S01200007566322D73616D6432312E73726563D0
S1130000B02D002091170000791700008D17000013
S113001000000000000000000000000000000000DC
S1130020000000000000000000000000791700003C
S1130030000000000000000079170000D90F000044
S1130040791700007917000079170000791700006C
S1130050791700007917000079170000791700005C
S1130060791700007917000079170000791700004C
S1130070791700007917000079170000791700003C
S1130080791700007917000079170000791700002C
S1130090791700000000000000000000791700003C
S11300A0791700007917000079170000791700000C
S11300B000000000F8B5394D00AFAB68002B00D04C
S11300C0FEE701F003FD364B1E68364BF218F823A9
S11300D09B029A4214D8344B344A1968344C354B39
S11300E0914239D11978344AC90702D4216891421E
S11300F032D0324B22601B68314A2D33FF331360F8
S1130100012400F003FF2F4B1C70BFF35F8F62B616
S113011000F03EFC8020C00201F068FC00232A4E5F
S1130120337000F0CBF9294D00280FD02B78DBB2C7
S1130130002B0AD18020224AC000136001F056FC33
S11301400023F356002B00D134702C702B78002B35
S1130150E7D001F0CBF9FCE71B78DB07DB0F0DD010
S11301600023802223601A4B92025A6180239B0150
S11301701A6882F30888AB603047C1E72168154AE2
S1130180914201D12360BBE721680B4B9942E7D030
S1130190FA202260400001F098FBE1E700ED00E066
S11301A00420000000E0FFFFB42000007CB0EE87D4
S11301B0FC7F002038040040EF6926F0A80D0020E1
S11301C0AC0D002096010020C8010020CC010020C5
S11301D000440041EF6916F0202370B5364A0F2021
S11301E0D1690B43D361012234490B7813430B705B
S11301F0334B19788143197006211C7821431970F7
S113020030490C7822430A701A7802401A7060222E
S113021019780A431A702C4B2C4A5A805A7852B2D5
S1130220002AFBDB01222A4B19780A431A709A78B8
S1130230D207FCD41F2027490A68520B024082428D
S113024000D105221C8D244D024092012C402243F2
S11302501A850A68920C02401F2A00D1023A1F2410
S1130260188D2240A043024307201A850A68D20D44
S11302700240824200D10322198D02401748120322
S113028001400A437F211A851A7815480A401A70DA
S1130290042219780A430C211A7058621A898A4375
S11302A01A811A890B398A431A818022002152004B
S11302B001F02BFC70BDC0460004004058440041CE
S11302C03C44004159440041000C004006400000F9
S11302D000500041246080003FF8FFFFFF8FFFFFC4
S11302E0200A0020F7B51C00314B06005B6A0F00A2
S11302F015000193002C05D1443454432D4BE418CC
S113030001F0C4FB63782278934210D2D51ABD421F
S113031000D93D00002E08D0211DC9182A00300044
S113032001F0EAFB63785B1963702800FEBD019B52
S1130330A1786A01D318002911D1211D19605968C7
S11303401D48890B890359605968014059601B494C
S1130350551840212879014329710121A1701449BC
S113036000255118019116495218127AD207DCD58A
S11303705D68A278EDB22570022A04D11968201DA7
S11303802A0001F0B9FBBD4200D93D00002E0CD07B
S11303906570211D2A00300001F0AEFB0122019B93
S11303A0FF331A720023A370BFE76670F6E7C046F6
S11303B000500041200B0020FF3F00F0005100419D
S11303C0FF50004110B50023FFF78CFF10BDF8B5B6
S11303D005000C0016001F00002C00D1F8BD210000
S11303E028003B003200FFF77DFF241A2D18F3E7A5
S11303F0F8B50E001F4955014C6A2C19002B1CD06E
S113040063695B005B08636120616369B2049B0BF1
S1130410920C9B03134363616369174A8021134061
S11304206361164BEA18022313729171134AAD18D3
S11304302A7A1A42FCD03000F8BD012163695B00BE
S11304405B0F03339940B14208D8043A531E9A41D2
S11304506369D2075B005B081343D4E7442757431F
S1130460074A0437BF1801003200380001F044FB8A
S11304703800C9E700500041FF3F00F0FF50004141
S1130480200B002010B50023FFF7B2FF10BD0000C1
S1130490054B10B51B888B4200D90B0000221900B4
S11304A0FFF7F0FF10BDC046CE01002007B50022C3
S11304B06B461100D81DFFF7E5FF07BDF0B599B0F5
S11304C001F0E4FA0823BF4CBF49A28B1A400492FE
S11304D02DD011224020A3837833A372C0244A7004
S11304E088714B71B94BBA4D5A68A4052A4022430E
S11304F05A605A692A401443B64A5C611A60B64A83
S1130500B64C1A615A6814408022920222435A60FF
S11305105A68920B92035A600022B14B48711A70C8
S1130520AF4B1878431E9841C0B219B0F0BD1027E4
S11305300B7A3B42F4D0AB4D0F72AA79AB8801928F
S1130540EE7901983202024312B203926A4692890A
S113055002926A7A287A1202104300B282B2059299
S1130560EA7AAD7A120215439F4A158040259F4AC4
S11305704D71934200D1B0E13AD881246400A34282
S113058000D1C0E117D8822B00D188E108D8802B94
S113059000D178E1812B00D17BE120238B71BFE76F
S11305A0802252009342F8D00222FF329342F4D1C7
S11305B0FFF77CFFB4E78E48834204D00AD8A22216
S11305C0FF329342E9D10021082206A801F09DFAE6
S11305D008217BE1C02080008342DED0E8D8403887
S11305E08342DAD1059B072BD7D1AA218148C2E0E7
S11305F0814A9342DCD000D99CE0804A934214D8CB
S1130600013A934200D3AFE07D4A9342DBD060329B
S1130610FF329342C1D1FFF749FF8023039A5B4223
S11306201343684ADBB293727AE788226C4812015A
S1130630934200D125E180329342AED16B461B7BBD
S113064030270370FFF732FFA02303225B00E2543C
S1130650C0225E4B5E49586C9205084010435864B2
S11306604620FF30255467488026186490204000B7
S11306702754586B08401043586392204000265476
S1130680614880261863B02040002554586F084004
S11306905867B2204000265403263C302654FC38C8
S11306A084469C44604606680E4016430660A626AF
S11306B0FF36A5551E005548A0363060C02676008A
S11306C0A7551F0094373E6880200E4016433E60B5
S11306D0C2267600A0551E004D4F90363760E026A6
S11306E0442780207600A7550436A555A055C4207C
S11306F084469C44604606680E4016430660D42037
S113070084469C44604606680E4016430660F02604
S113071080207600A7550436A555A0551C00E43466
S11307202068F433084010432060186801400A43ED
S11307301A60F5E6374A934200D139E705D8364ABC
S1130740934200D134E7354A30E7354A934200D129
S11307502EE7344A934200D109E1334A934200D050
S11307601BE70821314806E08023029A5B009A4285
S113077004D112212E48FFF78BFED1E68023029A82
S11307809B009A4202D199212A48F4E7032E68D1AA
S1130790019B032B00D900E74822002106A801F0A1
S11307A0B4F906AB5E70019B002B45D1043306AA55
S11307B01370092206A98A70CB7006AB1978180049
S11307C0D9E7C04600500041FF500041200A0020F4
S11307D0FFFFFF8FE0090020240B0020FF3F00F003
S11307E0CD010020DC090020CE010020020300001E
S11307F0A1020000EC000020210900008106000095
S1130800A1030000AC0B0020680B0020780C002032
S1130810340C002021200000210A0000210B0000DC
S113082021220000A1FE0000A1210000E40000201C
S1130830281B00003C000020019B4F4A9B009C5851
S1130840200001F06AF9013006AB40001870002363
S11308505A1CE35C002BB0D0510006A8435413008B
S1130860F6E70F2E02D13921444884E7212E02D124
S1130870092143487FE7222E00D08EE621214148FA
S113088079E7012177E76A46128A06AB1A800221CA
S113089095E70023022106AA138010006BE76A463D
S11308A0128A06AB1A800F2382B21A40072A00D993
S11308B073E6083241335201184209D0324BD21840
S11308C093799B060221DB0F06AA138006A852E740
S11308D02D4BD2189379DB06F4E7029B002B00D052
S11308E05BE60F3382B21A40531E062B00D954E63E
S11308F00832254B5201D218030602D52023537126
S113090056E6577154E6029B002B00D045E60F33A0
S113091082B21A40531E062B00D93EE6520103064A
S113092013D51A49184BD31852182021D0790842EC
S113093000D13DE65171127A2A4200D138E64022B4
S1130940FF331A723E3A5A7132E610490E4BD318ED
S11309505218D179394200D12AE65771117A2022EE
S1130960114200D124E6FF331A721F3AEBE7002349
S113097006AA1380012190E7841B000000000020D8
S1130980D80000203C1B000000500041FF500041F3
S113099010B5FFF721FC0022034B1A700223034A0F
S11309A011780B43137010BDCD010020005000419D
S11309B010B50C000122FFF765FD200010BD10B535
S11309C00C000122FFF75EFD200010BD70B504008D
S11309D00D00FFF773FD03000020834204D00222C0
S11309E029002000FFF7EEFC70BD70B505000C0077
S11309F0FFF764FD002807D000230222210028000D
S1130A00FFF7E5FC200070BD0400FBE730B50300F0
S1130A1020251C1AA24200DC30BD0C78002C03D027
S1130A2001311C700133F4E71D70FBE770B58022BF
S1130A300C00050092000021200001F066F8002D52
S1130A400CD13E223F49200001F056F8FF235522E5
S1130A505B00E2543C4B9218E25470BD402D1FD809
S1130A606B1E1F2B00D9203B002B08D110225242B1
S1130A7022800F326280A280E280053222811B0232
S1130A8032481A1FFC33824203D807D0511D89B261
S1130A902180013202349A42F5D1DEE72C49F7E78E
S1130AA0442D24D8412DD8D126490B222B312000A6
S1130AB0FFF7ACFF274E28233500E3721035583674
S1130AC0AE42CAD029002B78203423776B781039B2
S1130AD06377AB780B22A377EB782000E377AB88BE
S1130AE01835A3761B0AE376FFF790FFE8E72A00A0
S1130AF0453A012A0DD818235A43164B9B18DD6832
S1130B00280001F00AF829000200200000F0F4FF98
S1130B10A3E70E4B473D9D429FD80F4B0F4A2360DE
S1130B200F4B20006360FE235B00E2508023802291
S1130B302902DB0052006561A361E160226120307B
S1130B40E4E7C046941B0000FF010000FF0300001F
S1130B50FFFF00003C1C00005546320A306FB10A0A
S1130B6057515D9E70B516001D000A682B4B0C0092
S1130B709A424BD12A4B4A689A4247D1FE225200EC
S1130B80284B8A589A4241D18B68DB0711D48023C1
S1130B9022695B009A420CD1E068C3B2002B08D1F1
S1130BA0214B224AC318934203D82100203100F07C
S1130BB08DF8002D2BD0A369002B28D029681C4A5E
S1130BC08B4206D0934201D8002901D001235B4215
S1130BD02B606369934219D80721012219408A4086
S1130BE0DB08EB18197AD2B2114204D10A431A7203
S1130BF06B6801336B606A682B689A4206D3002ED7
S1130C0004D10C4B1B681E330B4A136070BD002EBD
S1130C10FCD1084B1B682D33FF33F5E75546320AE8
S1130C2057515D9E306FB10A00E0FFFFFFDF030004
S1130C3063040000A80D0020AC0D0020074B1A002F
S1130C40197DC907FCD52021FF31198304494008C7
S1130C50D8611980137DDB07FCD570470040004143
S1130C6002A5FFFF002330B59A4200D130BD9C009D
S1130C700D5901330551F7E7F0B58025104B114E9E
S1130C805C68114FAC435C60002A00D1F0BD1400D5
S1130C90102A00D91024121B1E801D7DED07FCD5DF
S1130CA0A400A44600240D59055104346445FAD126
S1130CB0001909191F801C7DE407FCD5E4E7C04630
S1130CC00040004144A5FFFF04A5FFFF802270B54A
S1130CD0002304000D005200E958E058814203D17A
S1130CE004339342F8D170BD2000FFF7A7FF4022E0
S1130CF029002000FFF7C0FFF5E7F8B503004733EC
S1130D0004001A78402103000020FFF7EBFA0028C2
S1130D1001D10020F8BD0023257923706BB2002B8C
S1130D20F7DB3F272000A61DF38F2F404830C01863
S1130D30611D3A0000F0E0FE3F23F08F9D43C0198F
S1130D4080B2002D01D1F087E3E70023F387E1E7C8
S1130D50F0B50C001F00060093B001923F25AC4291
S1130D6003DC2500002F00D140373B0002AA2B43AF
S1130D70137002AB31002A00581C00F0BDFE6B4614
S1130D8040211A7902A80123FFF732FB7619641B6C
S1130D90E4D113B0F0BD030010B547331A78043121
S1130DA048300023FFF7D4FF10BD0000F7B504005E
S1130DB0FFF7A3FF00283FD0230048339A88A06C94
S1130DC01A80002201385A80082862D800F08AFE6E
S1130DD0150521252328453C35002F4E300000F011
S1130DE09CFE0500200031004C302A0000F084FEF7
S1130DF029002000FFF7CFFF1EE00123E364FF3347
S1130E0023658023DB006365A0235B00A3651021B9
S1130E10EFE700F023FE0021EBE700F07DFDFAE7A9
S1130E2020000021FFF7B7FF206D1C4B984203D927
S1130E3021005431FFF74AFFF7BD2100626D58319C
S1130E40206DFFF70FFFE6E72000656D216D4C3044
S1130E502A00FFF707FFA900CBE727000026636DF0
S1130E60256D00934C37009BB34201DC5900C0E769
S1130E7000216B1CFF330193287800F0E1FC019BF7
S1130E8001350100AB42F7D13880013602371D002D
S1130E90E9E701225A80BEE7841C0000FF1F00001E
S1130EA007480622030010B547331A70FFF77EFF88
S1130EB004480722030047331A70FFF777FF10BD79
S1130EC0D00100205803002010B5E2B0040000F067
S1130ED061FAC42200215200684600F016FE47233E
S1130EE06B441C706846FFF761FFFBE7024A5378C6
S1130EF05BB2002BFBDB7047000C0040102302495F
S1130F00CA681A42FCD07047000800401E21F8B598
S1130F100226254A254C5368254D8B4333435360A1
S1130F20A660FFF7E3FF234B6360FFF7DFFFAE84A8
S1130F30FFF7E4FF204B1B689B0E3F2B00D1203BA7
S1130F40002602271D4A9B0213431D4AEA62AB6234
S1130F50AE84FFF7D3FF1B4BAB84FFF7CFFFAB8C03
S1130F603B43AB84FFF7CAFF3F226388934380224D
S1130F701F4367806388D20113436380A660FFF731
S1130F80B5FF114B6360FFF7B1FFC0210F4A104B4F
S1130F9010485360036A09061B021B0A0B430362D1
S1130FA0072396601360F8BD00400041000C004028
S1130FB0000800400600010024608000FF010000DA
S1130FC080BB0A1C240500000007030010E000E0B9
S1130FD0E703000000ED00E010B500F0B1FC10BD27
S1130FE010B5054C12220021200000F08EFDF023E4
S1130FF02370E63BE37110BD1B070020F8B5050024
S11310000E0017000024AB689C4200D3F8BD802179
S1131010AA7833008900E868FFF7D9F980235B01D7
S1131020E01801223B00E968FFF79CFD0134EAE780
S113103070B5130006000C00150000200A00012101
S1131040FFF750F90023984206D02B0022001F21FD
S11310503000FFF747F90123180070BD10B50422D2
S11310600D210248FFF70EFA10BDC046970100207B
S113107010B50B480B494279037912021A4383795C
S11310801B041A43C3791B0613431A0A0B714A71D2
S11310901A0C1B0E8A71CB71FFF7E0FF10BDC0461E
S11310A0FC0600209701002070B504220D00FFF714
S11310B0E9F9164C85420FD0FFF792FF0123042271
S11310C02373134B9A700022DA701A715A719A7151
S11310D01A735A73FFF7CCFFFFF782FF00232373C1
S11310E0637A217A1B020B43A17A09040B43E17A48
S11310F009061943491B0B0A217263720B0C090E72
S1131100A372E172FFF7B4FF70BDC04697010020DF
S11311101B07002070B5194C002105001422200083
S113112000F0F3FC1649002D21D022000823C87DCD
S113113008323F26497C31401C2901D0B14207D1F5
S11311401C211170123951700C330539D170DBB286
S1131150191C834200D9011CC9B2002D0BD0023BDB
S11311609BB21B0223802000FFF79EFF70BDC87C4A
S1131170221D0423DDE7013B2370F4E7E006002091
S1131180FC060020F7B52B4B01AA597C0700D1704F
S1131190997C00249170D97C5170197D11706A4634
S11311A0961C9A7D7270DB7D337033889C4207D322
S11311B0FFF716FF0022204B1A73FFF759FFF7BD04
S11311C0FFF77CF90028FAD01C4D002F20D0019B9A
S11311D02900E018FFF72AFC802104228900280056
S11311E0FFF750F9144A0134517A137A090219436A
S11311F0937A1B041943D37A1B060B4310495B18DB
S1131200190A13725172190C1B0E9172D372CCE726
S113121080213B00280005228900FFF7D8F8019BB4
S11312203A00E0182900074BFFF79CFC00F0C8FBCC
S1131230D8E7C046FC06002097010020E004002007
S113124000FEFFFF30070020F0B587B0FFF728FE4F
S1131250484F002205213800FFF7EAFE002858D045
S11312607B7A3A7A1B021A43BB7A434D1B0413431D
S1131270FA7A002612061A436B4601921B792B72E6
S1131280130A6B72130CAB72130EEB72FC7B1E2CE5
S11312901BD01ED8122C3ED013D8B44250D0032CED
S11312A02ED0FFF79DFE012305222B73334B202103
S11312B09A7000221973DA701A715A719A715A73FA
S11312C041E01A2C36D01B2CEBD1FFF789FE2E738C
S11312D039E0282C3AD00BD8232C3BD0252CE0D154
S11312E0802327489B024360264B082103600EE0BD
S11312F02F2CEAD05A2C21D02A2CD2D1300026E02F
S1131300FB7C191C122B00D912211C48C9B2FFF70F
S1131310CBFE07B0F0BD1C4C1C492000182208303D
S1131320FFF774FBFB7C191C242B00D92421C9B2C0
S11313302000ECE73000FFF7EDFEEAE70120FAE7D2
S1131340FFF74EFE2C73FFF793FEE2E70120FFF751
S113135019FFDEE70C240E49220003A800F0CCFBA1
S1131360019BA34203D92C726E72AE72EE720C21F1
S113137003A8CCE7FC060020970100201B070020EF
S1131380F406002000001F3FA4010020711B000090
S1131390D91C000072B6BFF35F8F0023044A0549CD
S11313A01370054A91829183044A93607047C04642
S11313B096010020FF0300000050004100ED00E012
S11313C0F0B5C7B00FAF0400FFF7E4FF44220021DB
S11313D0380000F09AFB9822002120A800F095FB29
S11313E002230F21BB70A37862780B40A37063685B
S11313F00A400893002307AD274E627009932B73AC
S1131400012220ABE16825480796FFF7ABFB20AA31
S113141039002000FFF7F2FD627801230D21280036
S1131420FEF7E6FF0196002507AEA1783A003000EA
S1131430FFF7FEFD002824D0019B03AD03937368DE
S11314406B60B368AB6000232B73F37B002B11D06C
S11314502A2B1DD1B27D02ABDA70F27D39009A706D
S11314605E8820AAA6602000FFF7C8FDAB6876025C
S11314709E1BAE60627801230D212800FEF7B8FFA1
S1131480D1E7074B9D4201D900F0E8FA0135CBE7DB
S113149000F042FAEEE7C04655534253FF0F0000F6
S11314A0F824010080B500AF72B6BFF35F8F00224D
S11314B0064B1A70EFF30883054A1360036883F33D
S11314C0088843681847BD4680BDC0469601002081
S11314D09C0D002007B501000122684600F0FDF9CB
S11314E008216846FFF764FA07BD000000227A234A
S11314F0F0B58C4985B08C4C00AF22600B70FA605B
S11315007B60FFF7A1FE894D40212800FFF75EFABA
S1131510874B18603B7B2B54002801D000F050FA15
S1131520844BFA681D60844B1A608348804B0268C0
S11315301B689C469A42E4D27E4D29680B78FF2BA7
S113154038D07E4E232B00D0C9E0764B1B78532B2A
S113155035D1013202606046336801312960821A54
S11315609A4200D91A00764D20682A6000F0C4FA25
S11315707148296803686F4ACB18013B03601068FF
S11315804B1EC3181360FF236E4D297019406B4B1B
S11315901B68994203D2591A2068FFF726FAC046FD
S11315A0604B3A791A70654BFA681A60614A13689D
S11315B001331360604A136801331360B5E7522B9B
S11315C004D131682068FFF7FAF9E9E74F2B03D11A
S11315D0336822681370E3E7482B03D13368226829
S11315E01380DDE7572B0AD1574B22689A4202D168
S11315F0002000F0FBF9236832681A60D0E76F2BF3
S113160004D101212068FFF7D3F9C9E7682B05D17C
S1131610022123681B8833603000F4E7772B04D160
S1131620236804211B683360F6E7472B12D1306826
S1131630FFF738FF454B1B6883F308880121444BAF
S11316401970BFF35F8F62B6424B43481B78002B7F
S1131650A6D0D8E7542BA3D04E2BA1D0562B02D121
S11316602A213E48CFE7582B0CD135683C4B9D428C
S113167002D903213B48C6E728000135FFF7DEFA0B
S1131680FF35F3E7592B0ED13268374B002A04D1CA
S113169022681A6003213548B5E792081968206862
S11316A0FFF7EAFAF6E75A2B00D079E73368002609
S11316B02568EB18BB60BB689D4209D101212C4809
S11316C0FFF776F93000FFF705FF032129489AE771
S11316D02878310000F0B4F801350600EBE71A0071
S11316E0303AD1B2092904D833681B01134333605B
S11316F05CE71A00413A052A03D83268373B1201E5
S1131700F4E71A00613A052A03D83268573B1201FC
S1131710ECE72C2B03D133682360FB68E7E7014A2D
S11317201370FAE74C0D0020980D0020540D002092
S1131730440D0020480D0020500D0020A00D002075
S1131740A40D0020400D00200CED00E09C0D0020B5
S113175096010020C80700200F1D0000E51C0000B2
S1131760FFFF0300111D0000CC070020151D000021
S1131770191D00001B1D000082B0EFF305833F22FA
S11317801340103B5BB20193019BFEE7FEE70000B0
S11317902048214970B5884204D000231F4CCA1840
S11317A0A24230D300211E4B1E4A93422FD3FF2165
S11317B01D4B1E4A8B43936002220C2508243026BD
S11317C01B4B1C485A62C378FC398B431343C370C8
S11317D0C378AB432343C370174B987BB0430600D5
S11317E0202030439873987BA84304439C73987BD0
S11317F0884302439A738023104A51680B43536011
S1131800FEF758FCFEE7C55804331560C7E702C36A
S1131810CBE7C046201D000000000020CC010020C2
S1131820CC010020B00D00200000000000ED00E01D
S1131830FC7000410050004100480041004000415C
S11318400022F0B5114E7388934216D10824D301B7
S11318509BB21DB2AC4667465D00ABB2002F02DA04
S11318600B4B5D40ABB2013CA4B2002CF1D1B3529E
S1131870802302329B009A42E8D10B0A5840400070
S1131880305A0902484080B2F0BDC046D00700205B
S11318902110000070B5D3181578013280244160FE
S11318A00326013EFDD12C4200D101600626013EF3
S11318B0FDD10160641004D0E4B20226013EFDD1E2
S11318C0EDE79A4200D2E7E770BD01230002984297
S11318D000D87047C0460133F9E7F0B506001C256F
S11318E000200F270C00EC403C40002A05D1002CBE
S11318F003D1002D01D0002809D0431C9C46331885
S113190020003030092C00DD073018706046043D9B
S11319102B1DE7D1F0BD0000054A064B1A60BFF34A
S11319204F8F054A054BDA60BFF34F8FFEE7C04681
S1131930EF6916F0FC7F00200400FA0500ED00E0DA
S1131940194A1A49136810B5013313600A68002A4A
S11319500CD017481018834203D180241548A402E0
S11319608461934201D100230B6010BDDBB2124AA3
S1131970002B11D180210F4B8902996113780F49F3
S113198018000A38C0B2F02802D90878404208701A
S113199009785B181370E8E712789A42E5D180223F
S11319A0044B92025A61E0E7D0090020D4090020D8
S11319B018FCFFFF00440041C9010020C8010020B9
S11319C0074B084A1B681168994207D2FA21C900DB
S11319D05B1813608022044B92025A617047C04620
S11319E0D0090020D40900200044004170B500242F
S11319F0020A030C88B0D2B2DBB2694662542100F9
S1131A00033469444B7088701E2CF6D18025022261
S1131A100F4B2D041D600F4E0F4B01201A703560C3
S1131A20FFF753FFEFF31083002B09D172B62300A5
S1131A306A4629003000FFF72DFF62B608B070BD7A
S1131A4023006A4629003000FFF724FFF6E7C0466A
S1131A508844004194440041D744004110B500201B
S1131A60FFF7C4FF054A064B1A60BFF34F8F054AC0
S1131A70054BDA60BFF34F8FFEE7C046EF6926F0EF
S1131A80FC7F00200400FA0500ED00E00B4A10B5CD
S1131A901368002B0ED10A4911600A490A68013201
S1131AA00A6009490868002806D0824204D30B6002
S1131AB0FFF7D4FF013B136010BDC046D8090020D6
S1131AC0DC050000A80D0020AC0D0020802210B51C
S1131AD0034B92029A6000209A61FFF787FF10BDC2
S1131AE00044004102B4714649084900095C4900B8
S1131AF08E4402BC7047C046002310B59A4200D100
S1131B0010BDCC5CC4540133F8E70300821893423F
S1131B1000D1704719700133F9E70023C25C013327
S1131B20002AFBD1581E704712011002EF02014037
S1131B309A23180001420102030100000697FF09DD
S1131B4001A101150026FF007508954009018102D5
S1131B5095400901910295010901B102C0416461F6
S1131B60667275697420496E6475737472696573FD
S1131B700043506C6179204578707265737300344A
S1131B8032343200000000005D1B0000711B0000B5
S1131B907F1B0000EB3C9055463220554632200016
S1131BA0020101000240003E1FF820000100010074
S1131BB00000000000000000000029420042004331
S1131BC0504C4159424F4F54000046415431362045
S1131BD020203C21646F63747970652068746D6C97
S1131BE03E0A3C68746D6C3E3C626F64793E3C73A3
S1131BF063726970743E0A6C6F636174696F6E2EF0
S1131C007265706C6163652822687474703A2F2F52
S1131C106164616672752E69742F333333332229FC
S1131C203B0A3C2F7363726970743E3C2F626F648D
S1131C30793E3C2F68746D6C3E0A0000494E464F55
S1131C405F55463254585400841C00005400000070
S1131C5002000000494E44455820202048544D00BD
S1131C60D21B0000680000000300000043555252DC
S1131C70454E542055463200000000000000080084
S1131C800400000055463220426F6F746C6F61642B
S1131C9065722076312E32362E3020534648575204
S1131CA04F0D0A4D6F64656C3A2043506C61792086
S1131CB0457870726573730D0A426F6172642D49C1
S1131CC0443A2053414D443231473138412D435039
S1131CD06C61792D76300D0A000000000800001FA9
S1131CE0400200020076312E31205B417264756936
S1131CF06E6F3A58595A5D204E6F76202037203245
S1131D003031392031333A32383A30340A0D000652
S1131D1000580A0D00590A0D005A00230A0D00004C
S1131D20050F3900021810050038B60834A909A0B7
S1131D30478BFDA0768815B665000101001C1005CF
S1131D4000DF60DDD88945C74C9CD2659D9E648ABE
S1131D509F00000306AA0002000000000902990087
S1131D6005010080FA080B000202020100090400C8
S1131D7000010202010005240010010424020605EA
S1131D80240600010524010301070583030800FF5D
S1131D9009040100020A0000000705810240000056
S1131DA00705020240000009040200020806500070
S1131DB007058402400000070505024000000904ED
S1131DC00300020300000009210001000122210098
S1131DD007058603400001070506034000010904C6
S1131DE0040002FF2A0100070587034000010705DC
S1131DF0070340000100000009040300020300007F
S1131E000300000000C20100000008000A000000F6
S1131E1000000306AA00080002000400A000140049
S1131E20030057494E5553420000000000000000D3
S1131E3000008400040007002A00440065007600C6
S1131E4069006300650049006E007400650072005B
S1131E5066006100630065004700550049004400C6
S1131E607300000050007B0039003200430045003D
S1131E7036003400360032002D00390043003700AC
S1131E8037002D0034003600460045002D0039008F
S1131E903300330042002D00330031004300420080
S1131EA0390043003500410041003300420039004D
S1131EB07D00000000000155534253000000000063
S1131EC0000000000080020220000000000000006A
S1131ED000000000000000000000000000000000FE
S10F1EE000000000312E303001C800006A
S1131FF000000000C90E0000C1130000841C000092
S9030000FC
