:10000000FC7F0020E1080000D1080000D5080000B6
:1000100000000000000000000000000000000000E0
:10002000000000000000000000000000D9080000EF
:100030000000000000000000DD080000010B0000CF
:1000400010B5064C2378002B07D1054B002B02D0AE
:10005000044800E000BF0123237010BDBC00002055
:100060000000000064200000044B10B5002B03D0FA
:100070000349044800E000BF10BDC0460000000076
:10008000C0000020642000001B4B1B78002B0AD10D
:100090001A4B1B781A4A11785B18DBB21370194B94
:1000A00080229202DA61144A13780133DBB21370B2
:1000B000134B1B78DBB2F02B04D8114B1B78DBB24F
:1000C000092B0BD80D4A13785BB25B425BB21370FD
:1000D00013780B4A11785B18DBB21370064B1B7850
:1000E000074A1278DBB2934200D07047054B80225A
:1000F0009202DA61F9E7C046D80000200000002033
:10010000010000200044004170B504000800160002
:100110008021FFF775FF05005020FFF771FF200ACF
:10012000FFF76EFFE0B2FFF76BFF2D042D0C002DE3
:1001300007DD340075192078FFF762FF0134AC4207
:10014000F9D10120FFF75CFF70BD70B50400080015
:1001500016008021FFF754FF05005020FFF750FFE5
:10016000200AFFF74DFFE0B2FFF74AFF0120FFF73B
:1001700047FFE9B201225020FFF742FF2D042D0C6A
:10018000002D07DD0024E0B2FFF73AFF30550134BF
:10019000AC42F8D1002070BDF8B504000F001E007D
:1001A000042831D852B21C4B1A54002A04DB012314
:1001B00093401A4A936053617D007D19ADB263008C
:1001C000174A9D52280001F033FDA300154A9850AC
:1001D00000281AD02A00002101F03DFD6300124AD8
:1001E0009F52320903231A4010490A55B2081A4097
:1001F0000F490A5533400F4A13550F4B01221A5528
:100200000E4A137801331370F8BD630000220449CD
:100210005A5205495A52E4E7440100200044004183
:100220001801002000010020540100204C01002092
:10023000240100203C0100202C010020220100208C
:10024000F0B5042800D965E08300334A9B58002BA1
:1002500000D15FE0314B1B5C002B00D15AE072B63D
:100260002F4B1B5601229A4081002B4BCB5840004C
:100270002C49465A9E19591C187880232A4D2B4C1C
:1002800080271AE02260C046C046C046C046C0462D
:10029000C046C046C046C046C046C046C046C0462E
:1002A000C046C046C046C046C046C046C04624E020
:1002B000B1422ED2087801313B002A60C046C046C8
:1002C000C046C046C046C046C046C0460342D9D01C
:1002D000C046C046C046C046C046C046C046C046EE
:1002E000C046C046C046C046C046C046C046C046DE
:1002F000C046C046C046C04622605B08D8D0C04653
:10030000C046C046C046C046C046C046C046C046BD
:10031000D3E762B6F0BDC046000100202C010020EA
:1003200044010020180100201844004114440041F9
:1003300070B504AC2478042821D8114D2D5C002D13
:100340001DD045000F4EAD5B8D4218D90E4D2D5C72
:10035000002D05D06A43120A6B431B0A6C43240A22
:1003600086004D006D18094971584919084D2D5CDA
:100370004A55084A125C8B54074B1B5CCC5470BD29
:100380002C01002054010020340100200001002035
:100390004C010020240100203C01002010B5C3695D
:1003A0009B07FCD403680224A3430360C369DB07F3
:1003B000FCD403680124234303600368DB07FCD4F7
:1003C000C369DB07FCD4C3699B07F9D4084B1A4304
:1003D0000260C3695B07FCD4C0239B024360818138
:1003E000C3699B07FCD4036802221343036010BD5A
:1003F00004000040037EDB07FCD589B2018570470D
:10040000037E5B07FCD5438BDB0705D4438B9B073F
:1004100002D4438B5B0702D5024B01221A70008D78
:10042000C0B27047D9000020F8B5040003689A8B69
:10043000120707D40822FF329B5CDB062FD500F0A1
:10044000A3FB2CE008229A8378329A72802149001B
:100450001120585440260621FF315E5482256D003C
:100460005A55104A5168104F3940C0208005014349
:10047000516051693940084350610C4911600C4981
:10048000116151680B480840802189020143516085
:100490005168890B890351605E55002323712079CF
:1004A000F8BDC04660020020FFFFFF8F6001002002
:1004B000E0010020FF3F00F0016000230371437161
:1004C000034B83600B78022213430B707047C046C6
:1004D0002904000010B5394AD36920210B43D361A8
:1004E000374B38315A5C012422435A543C22985CE1
:1004F000493988439854985C0621084398545920F8
:10050000195C21431954995C4A3801409954995C0B
:100510006020014399542B4B2B4A5A801A00537880
:100520005BB2002BFBDB294A137801210B431370CC
:100530009378DB07FCD4264B1B689B03DB0E1F2B39
:1005400036D022490A8D9B012248024013430B8575
:100550001F4B1B685B02DB0E1F2B2BD01B490A8D28
:100560001F20824313430B85194B1A689201520FC7
:10057000072A21D0154B198D1203174801400A4351
:100580001A8519787F220A401A701A7804210A43C2
:100590001A70124858621A890C218A431A811A89E2
:1005A0000B398A431A818022002101F054FB10BDCF
:1005B0001A3BC6E7023BD1E7043ADBE70004004000
:1005C00000440041000C0040064000000050004183
:1005D000246080003FF8FFFFFF8FFFFF60020020D4
:1005E000F0B5C64600B5050016001C0098465A0135
:1005F000214B9B1810335B685B005B0F03330122B8
:100600009A40B2422BD862011B4B9B18586980223A
:10061000120602435A616201174B9B181A001961B6
:100620005B69B104890C9B0B9B030B4353615369BA
:1006300012490B405361083464012C190223E37101
:100640006279823B134363714046083040012818A9
:10065000C3799B07FCD5300004BC9046F0BD270051
:100660007B1E9F41BF01064BFF183200380001F08E
:10067000E9FA3900CFE7C04660020020FF3F00F0F2
:10068000E001002070B505000E0014001B4B1B7824
:10069000002B14D11A4B1B4A1A645A6C920B92030A
:1006A0005A645A6C18490A405A64A2225200835C68
:1006B00040210B438354114B443AFF3A1A704823AC
:1006C000FF33EB5C0020DB0716D50D4B5B6C9B0406
:1006D0009B0CA34203D20A4B5C6CA404A40C220022
:1006E0000849300001F0AEFA4823FF330122EA54F2
:1006F000024B00221A70200070BDC046DA000020B4
:1007000060020020A0010020FF3F00F0002906D178
:100710000622FF32835C10210B438354704706226C
:10072000FF32835C20210B438354F7E70A4A536965
:100730009B0B9B0353610823FF330222C254062202
:10074000FF32815C883BFF3B0B4383540822FF321E
:10075000835C9B07FCD570476002002080235B42CE
:100760001943C9B28172704770B5A0235B000322A0
:10077000C254134B5A6C134C2240C02189050A43C2
:100780005A6440254622FF3285540F4A1A6490224B
:100790005200302686545A6B2240114359638021FF
:1007A000922252008154094A1A63B02252008554A1
:1007B0005A6F22405A67B2235B00C15470BDC046D5
:1007C00060020020FFFFFF8FA00100202002002018
:1007D000024A53785BB2002BFBDB7047000C0040F1
:1007E00002491022CB681A42FCD070470008004032
:1007F00070B52C4A53681E218B431C390B43536040
:10080000294B2A4A9A829A8A0A439A82190002221A
:10081000CB681A42FCD0264C0123A360FFF7D8FF17
:10082000244B6360FFF7D4FF8223DB016380FFF773
:10083000CFFF1D4CA38C80229343A384FFF7D0FFEE
:100840001D4BE362FFF7CCFFA38C1C4A1343A38428
:10085000FFF7C6FFA38C02221343A384220080214A
:100860004020D3681942FCD0D3681842F9D0FFF772
:10087000B7FF0F4D0024AC60FFF7AAFF104B6B6071
:10088000FFF7A6FF0F4A104B53601048036A1B0284
:100890001B0AC02109060B430362946007231360FF
:1008A00070BDC04600400041000800400C0600003A
:1008B000000C004001050100B805FF7D040A00009E
:1008C0000007030010E000E0E703000000ED00E097
:1008D0000EBEFEE70DBEFEE705BEFEE702BEFEE76A
:1008E00010B5164A164B9A4215D0164A134B9A4227
:1008F00011D01A00124B9A420DD20333124A9B1A9E
:100900009B0801339B0000220C480E498C588450F0
:1009100004329A42FAD10D4A0D4B9A420AD009D2BA
:10092000111D03335B1A032083435B18002102C2AD
:100930009A42FCD100F00EF8FEE7C046000000200D
:10094000BC0000206820000004000020BC00002043
:1009500074040020F0B585B002AF5C4B1B68013316
:100960001AD05B4B5B4A1360043BFF22134213D146
:100970005949C73A8A5CD20750D5584A00211160BC
:10098000524A126882F30888FF229343544A9360C4
:10099000504B1B681B681847FFF72AFF5148FFF7A9
:1009A0002FFB62B6504B802292029A600822882167
:1009B0005A500C315A505223123293390020FFF70B
:1009C000EBFB002300937F2200210020FFF7B0FC07
:1009D0000020FFF735FC5923FB71FA1D01210A2085
:1009E000FFF792FB4423FB71FA1D01210A20FFF758
:1009F000ACFBFB79592B25D1002300937F220021EA
:100A00000020FFF795FC0020FFF71AFC4E23FB7136
:100A1000FA1D01210A20FFF777FBFEE72F4A116834
:100A2000324A914203D12D4B00221A60B4E72B4A7F
:100A30002E4911602E4A013A002AFCD1274A002192
:100A400011609DE700F0DEFE00F060F80400264B28
:100A5000802292029A60082288215A5010315A50FE
:100A6000802212059A609A61224A234B53601C48E7
:100A7000036A1B021B0AC02109060B430362002301
:100A80009360073313601D4E012506E03378002B79
:100A90000BD11A4B1B78002B0DD02000A368984770
:100AA0000028F3D0154B1D70F0E7002000F02AFB62
:100AB00000F0C2FBFCE700F019FF0028EDD0012098
:100AC00000F020FB00F0B8FBFCE7C046004000004F
:100AD00004400000E002002000040040FC7F0020F1
:100AE00000ED00E0801A06000044004135817307E4
:100AF00048E8010010E000E0E7030000DB00002010
:100B000010B5FFF7C1FA00F06FFB10BD10B5054C32
:100B1000054B2360FFF7DEFC21682000FFF7CCFCCB
:100B2000200010BDE40200200050004170B5C0B0AC
:100B300005000C001600080001F006F94000023024
:100B40006B46187003236A4653702378002B17D026
:100B50007608012E16DD0122694602310134881C17
:100B60000B8001322378002B02D00100B242F5DB6A
:100B70005200002369462800FFF732FD40B070BDE7
:100B80000122F5E70122F3E7F0B583B00500046820
:100B90000823FF331022E254B84B1A78B848027089
:100BA0005A78B84E32709978B74A11801188DF7838
:100BB0003F02394311801979B44A118011885F7955
:100BC0003F02394311809979B14A11801188DB794C
:100BD0001B020B43138082235B004022E2543378D4
:100BE00002781B021343AB4A934200D11EE125DC7D
:100BF00080225200934255D012DD8122520093424E
:100C000000D172E100DA6CE1FF32FF32934200D191
:100C100007E1A14A93420CD12000FFF787FD3CE099
:100C2000812B00D1BFE0822B00D1C4E0802B00D10A
:100C3000B1E001212000FFF769FD2EE090221201B2
:100C4000934200D196E012DD944A934200D1B7E17D
:100C500025DD934A934200D1B6E1924A9342E8D10E
:100C6000894B1B886B712000FFF760FD15E0D022D7
:100C7000D20093421BD088221201934200D183E01C
:100C8000A022D2009342D4D12000FFF74FFD7E4B2B
:100C9000198889B22868FFF761FD03B0F0BD824A68
:100CA0009342C6D101212000FFF730FDF5E7764BD6
:100CB0001B881B0A012B18D0734B1B881B0A022BA5
:100CC00022D0714B1B881B0A032B4ED16E4B1B8805
:100CD000FF221340012B38D0002B24D0022B3CD014
:100CE00001212000FFF712FDD7E72868684B1B8819
:100CF0009BB21222122B02D8654B1A8892B20023A3
:100D00006A49FFF76DFCC8E72868614B1B889BB2F6
:100D10004322432B02D85E4B1A8892B200236449C7
:100D2000FFF75EFCB9E7634B1B6801932868584BDB
:100D30001B889BB20422042B02D8554B1A8892B20E
:100D4000002301A9FFF74CFCA7E7514B1A88D2B248
:100D500028685949FFF7EAFE9FE74D4B1A88D2B23F
:100D600028685649FFF7E2FE97E701212000FFF7C8
:100D7000CDFC92E7444B1B882B712000FFF7D6FC7B
:100D80002000FFF7F1FC88E7291D286800230122D5
:100D9000FFF726FC81E74A4900230B8028680222DE
:100DA000FFF71EFC79E7464900230B8028680222E2
:100DB000FFF716FC71E7424B00221A80334B1A886A
:100DC00050210A403F490A701A880F210A401A80B0
:100DD0001B889BB2032B1FD83A4B1B78002B10D0DB
:100DE0002A4B1B8808335B01E418A3799B06DB0FB1
:100DF000334A13802868002302223149FFF7F0FBB1
:100E00004BE7224B1B8808335B01E418A379DB0610
:100E1000DB0F2B4A1380EDE701212000FFF776FC62
:100E20003BE701212000FFF771FC36E7174B1A88DA
:100E300080210A4023490A701A880F210A401A802B
:100E4000114B1B889BB2002B46D1104B1B889BB2C9
:100E5000002B41D00D4B1B889BB2032B3CD8194B68
:100E60001B78002B30D0094B1B8808335B01E3183B
:100E700020225A712000FFF759FC0EE76001002084
:100E8000DD000020DC000020E6000020E000002063
:100E9000E200002002030000010300002120000006
:100EA000A121000021220000010B0000941D000080
:100EB00004000020901D0000A81D0000B01D0000CF
:100EC000E4000020DE000020474B1B8808335B0154
:100ED000E31810225A71CDE701212000FFF716FC1C
:100EE000DBE62000FFF722FCD7E63F4B1A88802183
:100EF0000A403E490A701A880F210A401A803C4B6A
:100F00001B889BB2002B56D1374B1B889BB2002B02
:100F100051D0354B1B889BB2032B4CD8334B1B78DD
:100F2000002B25D0304B1B8808335B01E3189B79DD
:100F30009B0619D52C4A138808335B01E31811313D
:100F40001971138808335B01E318DB795B060BD555
:100F5000138808335B01E3182031D97113880833F3
:100F60005B01E31802221A712000FFF7DFFB94E611
:100F70001D4B1B8808335B01E3189B79DB06F3D517
:100F8000194A138808335B01E3181021197113887B
:100F900008335B01E318DB799B06E5D5138808333A
:100FA0005B01E3181031D971138808335B01E31832
:100FB00001221A71D8E701212000FFF7A7FB6CE698
:100FC0002000FFF7B3FB68E628680A4B1B889BB23A
:100FD0000822082B02D8074B1A8892B20023064930
:100FE000FFF7FEFA59E6C046E0000020DE000020D0
:100FF000E6000020E20000204800002000B583B099
:101000000190054B18680123012201A9FFF7E8FAB6
:10101000012003B000BDC046E402002010B582B03C
:101020006B46DC1D044B186801222100FFF72AFBE8
:10103000207802B010BDC046E402002010B5074879
:10104000FFF7F2F903000020002B06D0034B1A68CB
:101050004823FF33D05CC007C00F10BDE40200205E
:1010600070B505000C00044B186801230A00290024
:10107000FFF7B6FA200070BDE402002070B504004E
:101080000D000848FFF7D0F90023002801D118000F
:1010900070BD044B18682A002100FFF7F3FA030023
:1010A000F5E7C046E4020020F8B505000E000B4845
:1010B000FFF7BAF900280DD0002E0CD03400074FEE
:1010C000220029003868FFF7DDFA241A2D18002CB9
:1010D000F6D100E000263000F8BDC046E402002052
:1010E00010B50C00C368110020009847034B802204
:1010F00012055A61024B64221A8010BD004400415F
:10110000F0000020012805D0002802D1054B064A36
:101110001A607047034B054A1A60054B01221A708A
:10112000F7E7C04654030020481E00002C1E0000B4
:10113000E8000020F0B585B0214B1B78002B37D09C
:10114000042908D002290FD004784E001CD004AB2B
:1011500098190B3804E004684E0004AB98190B385A
:1011600000250F22302708E00488F5E737330370A5
:10117000240901380135B54206D213002340092B5A
:10118000F4D83B430370F3E701AB30221A704832C6
:101190005A704A1C52000A2199549E190331F17069
:1011A0000232084908681900FFF79AFF05B0F0BD40
:1011B000044B1B680A0001001800FFF791FFF5E7D8
:1011C000E90000205403002080B500AF72B6EFF3B1
:1011D0000883044A1360036883F308884368184748
:1011E000BD4680BD58030020104B1B889BB2002BCE
:1011F0000AD00E4A1388013B9BB21380002B03D107
:101200000B4B802212059A610A4B1B889BB2002B64
:101210000AD0084A1388013B9BB21380002B03D1EC
:10122000034A98330821D1507047C046F00000208F
:1012300000440041EA000020F0B5DE4657464E4625
:101240004546E0B58DB000AF08230822BA18D11882
:10125000CF4B0A0031CB31C231CB31C211CB11C2DD
:10126000CC4883685B035B0F9B005A58CA4B1A60DB
:1012700083689BB2C9490B605343C94A1360C94B89
:1012800000221A60C84B7A321A7078E2C74B1B787A
:10129000002B4BD1C44B1B78532B4ED0522B00D17B
:1012A000BEE04F2B00D1CBE0482B00D1CEE0572B36
:1012B00000D1D1E06F2B00D1D4E0682B00D1D7E072
:1012C000772B00D1DDE0472B00D1E3E0542B00D198
:1012D000F4E04E2B00D1FBE0562B00D107E1582B58
:1012E00000D191E1592B00D1ABE15A2B59D1B04B30
:1012F0001E68AC4B1B68002E00D1EFE11A009E194E
:1013000000237B6015001078796800F011FB78608D
:101310006B1C1A00B342F5D1A64B18680122A649EE
:10132000FFF7DEFE7B6807220F26DFE1A14B18687E
:101330000222A249FFF7D4FEACE7A14B1A68A14BE9
:101340001B689A421ED9A04801680131016001332F
:101350009C480360D31A964A126893424CD29B4A27
:101360001360904B1868994E326800F06BFC33683C
:1013700094490A68D2180A6093490A68D2180A6028
:10138000934A13708F4A1368013B13608E4A1368A7
:10139000013B13608E4B1B78854A11688B422ED31C
:1013A000C046814B7A221A70814B00221A607F4B13
:1013B0001B78002B00D0AEE1824A13680133136022
:1013C00081490A6801320A607D4A1268934200D35B
:1013D000D5E123681B78FF2BEED0232B00D155E7F6
:1013E0001A00303A092A00D99CE171490A681201B1
:1013F000303B13430B60DFE7744B1A60B1E7C91A47
:10140000684B18686B4B1B689B6998470028C7D0CE
:10141000704A94230821D1506F4B64221A80BFE791
:10142000634B19685F4B1868624B1B685B69984790
:10143000684B802212055A61684B64221A80B0E71B
:10144000584B1B685A4A12681A70AAE7554B1B681A
:10145000574A12681A80A4E7524B1B68544A126814
:101460001A609EE74F4B18680121FFF763FE98E76B
:101470004F484C4B1B681B8803600221FFF75AFE44
:101480008FE7484B1B681B68494803600421FFF73E
:1014900051FE86E7464B1868FFF796FE504B1B68D7
:1014A00083F3088862B64F4B1B78002B00D178E796
:1014B000404B1B681B680620984772E73B4B012294
:1014C0001A703C4B186801323C49FFF709FE68E787
:1014D000364B1B78002B03D0344B00221A7060E788
:1014E000344B186802223549FFF7FAFDF4E7314E14
:1014F00001223D493068FFF7F3FD03223B49306884
:10150000FFF7EEFD01223A493068FFF7E9FD0D22B1
:1015100038493068FFF7E4FD306801223449FFF7AD
:10152000DFFD284B00221A60274B334A1A602548FA
:10153000190003685A1C02600B685E1C0E601B7861
:10154000002BF6D11B4E2D493068FFF7C9FD3068DE
:1015500001222749FFF7C4FD1A4B00221A601A4BDB
:10156000274A1A601748190003685A1C02600B6862
:101570005E1C0E601B78002BF6D10E4E21493068A0
:10158000FFF7AEFD306802220C49FFF7A9FD08E71E
:10159000C01D0000004000410C0300200403002097
:1015A0000003002050030020FC020020E90000207E
:1015B0005C03002054030020201E0000F41D0000E6
:1015C000F402002008030020F8020020600300203D
:1015D000F002002000440041EA000020F00000205A
:1015E00058030020E8000020F81D0000F01D000056
:1015F000FC1D0000E01D0000011E0000001E000098
:101600000D1E00000C1E0000694B1968694B1B6819
:1016100099420FD2684A694E66484B08D361684BBD
:101620001380137DDB07FCD533689B00C918036862
:101630009942F2D3634B186803226349FFF750FDC8
:10164000AFE65B4B1E68002E0AD1604B1A68604BF8
:101650001A605C4B186803225E49FFF741FDA0E663
:10166000B6085B4B1B689C46584B1B689B46524A0E
:10167000536880218B435360002EEAD01000564BF4
:101680009A464E4B9946554B98460AE000234246EF
:101690000280027DD207FCD59A0093449444F61A46
:1016A000D7D053460380037DDB07FCD54B461B6830
:1016B000032BEBD9002E0FD0002100235A4665469C
:1016C0006D58555001333D4A126892089342DED25C
:1016D0000431B342F2D1DAE73300D8E700237B606C
:1016E0001AE6082179188854013A09D331001940C3
:1016F0001B09080030300929F3DD37310800F0E715
:10170000304E08223068FFF7EBFC30680322344982
:10171000FFF7E6FC45E62B4B186801323149FFF72D
:10172000DFFC49E61A00413A052A06D820490A6832
:101730001201373B13430B603EE61A00613A052A5B
:1017400006D81B490A681201573B13430B6033E666
:101750002C2B05D0244A1370154B00221A602BE65F
:10176000134B1A4A1968116000221A6024E60023FC
:101770001E4A13601E4A1F4911601F4A1360114B15
:101780001B681B6940211B4898470028EFD01B4A63
:1017900094230821D1501A4B64221A80134B1860ED
:1017A000134B144A1A60144B00221A60104C10E6B6
:1017B0005C03002000030020004000410C030020D7
:1017C00002A5FFFF54030020181E00005003002054
:1017D000EC0000201C1E000044A5FFFF04A5FFFF35
:1017E000241E0000281E0000FC020020F40200203D
:1017F000F8020020100300200803002000440041EC
:10180000EA00002010B51E4B4A215A5C01242243F5
:101810005A543522985C3B3988439854985C02218D
:10182000084398544B20195C21431954995C3C3867
:1018300001409954995C202001439954114A136A3C
:1018400004210B431362104B104A5A801A0053783C
:101850005BB2002BFBDBC42292030D490D48FEF75F
:101860009DFD00230C4A13700C4A13700C4A137030
:101870000C4A13700C4A13700C4A137010BDC0460A
:101880000044004100040040000C004014400000EF
:101890002AF600000008004264030020EE03002046
:1018A0006503002068030020EF030020EC03002004
:1018B00010B5C1B20248FEF79DFD012010BDC04623
:1018C00000080042024B187E4007C00F7047C04618
:1018D0000008004210B5FFF7F5FF0028FBD00248D2
:1018E000FEF78EFD10BDC0460008004210B5FFF7A0
:1018F000E9FF0023002801D1180010BDFFF7EAFF1F
:10190000233843424341F7E770B504000E1E06D06A
:1019100045182078FFF7CCFF0134A542F9D13000FB
:1019200070BD10B50400FFF7D5FF2070012010BD79
:101930000B0A43405B000902024A985A484080B2B1
:101940007047C046641E0000F0B5DE4657464E465E
:101950004546E0B583B001908B464C4B00221A708F
:10196000002918D14A4B01321A70484C0025FFF764
:10197000B1FF2378002B1CD1C0B2432803D07128BB
:101980007CD01528F3D101239946424B98461C0080
:101990003F4B9A4662E03F4B19803D4B00221A7044
:1019A0000B005B06E1D00B0080337F3293439B46F4
:1019B000DBE7364B1D70FFF78DFFC0B2334B1B7852
:1019C000002BDAD0314B00221A70002057E02F4B49
:1019D00000221A70002052E00420FFF769FFFFF791
:1019E00079FF2B4B00221A70012048E03D78013B23
:1019F000238001372800FFF75BFF00992800FFF7DD
:101A000097FF0090013E002E08D043461B88002B14
:101A1000ECD152461578002DECD0E7E70500000A1E
:101A2000C0B2FFF745FFE8B2FFF742FFFFF752FFF2
:101A3000164B1B78002BCAD1FF23184006280AD169
:101A40004B460133DBB2994680235B429C46E3441C
:101A5000019B803301935B46002BBDD00120FFF733
:101A600027FF4846FFF724FF4B46D843C0B2FFF795
:101A70001FFF019F802600230093C6E7002003B0CC
:101A80003CBC90469946A246AB46F0BDEC03002014
:101A9000ED03002066030020F0B5D646474680B52A
:101AA00083B006000F1E2BD0002400230193194B96
:101AB0009A46194B984608E0731C35701E00802F1B
:101AC00018D00134A4B2A7421ED0FFF703FFC5B25D
:101AD00053461B78002B15D101992800FFF728FFEA
:101AE000019043461B88002BE6D10C4B1B78002B42
:101AF000E7D0E1E7084A1288013A07490A80E0E79F
:101B0000019101E001230193019803B00CBC9046C0
:101B10009A46F0BDEC03002066030020ED03002090
:101B2000F0B585B005003E4B00221A70002904D1A3
:101B30003C4B01321A7064260AE03B4B1980394B4A
:101B400000221A70F7E7002C0ED1013E002E65D05E
:101B50004320FFF7ADFE354CFFF7B4FE0028F2D16D
:101B6000002CF2D0013CF7E701242D4E41E02C4B34
:101B700000221A7000204BE0022103A8FFF78CFF1F
:101B800080212800FFF788FF0190254B1B78002B50
:101B900008D0234B1B78002B36D0214B00221A7023
:101BA000002035E0FFF796FE0700FFF793FE1C4B81
:101BB0001A78012AEDD03F02381880B2019B834287
:101BC00003D103AB1B78A34203D01820FFF770FEAC
:101BD000DFE7E34303AA5278DBB29A42F5D106204D
:101BE000FFF766FE0E4B1B78002BD6D10134E4B212
:101BF0008035FFF76FFE3378002BB8D1FF231840F4
:101C00000128B9D0042805D0064B00221A70012003
:101C100005B0F0BD0620FFF74BFEF5E70020F7E723
:101C2000EC030020ED0300206603002000350C00CB
:101C300010B5034B0100186800F016F810BDC0463F
:101C400050000020002310B59A4200D110BDCC5C9A
:101C5000C4540133F8E703001218934200D17047CF
:101C600019700133F9E70000032370B5CD1C9D43C3
:101C7000083506000C2D1ED20C25A9421DD83000B7
:101C800000F069F8254A14682100002919D1244C74
:101C90002368002B03D1300000F044F820602900B5
:101CA000300000F03FF8431C2BD10C233000336090
:101CB00000F052F803E0002DDFDA0C23336000203F
:101CC00070BD0B685B1B19D40B2B03D90B60CC18B0
:101CD000256003E04B688C420DD11360300000F0AA
:101CE0003BF8200007220B30231D9043C31AE7D096
:101CF0005A42E250E4E763600C00EFE70C004968E9
:101D0000C3E70323C41C9C43A042E1D0211A300046
:101D100000F008F8431CDBD1C7E7C046F400002000
:101D2000F8000020002370B5064C05000800236071
:101D300000F014F8431C03D12368002B00D02B6063
:101D400070BDC046700400200023C25C0133002A2D
:101D5000FBD1581E7047704770470000044A136853
:101D6000002B00D1034B1818106018007047C046B4
:101D7000FC00002074040020F8B5C046F8BC08BC84
:101D80009E467047F8B5C046F8BC08BC9E467047F2
:101D90000403090412010002020000404123103034
:101DA00000020102000100005961656C7465780051
:101DB0005961656C746578204B696C6F6D7578003E
:101DC000080000001000000020000000400000009B
:101DD000800000000001000000020000000400007C
:101DE0005B41726475696E6F3A58595A5D00000024
:101DF000322E30000A0D00007600000020000000A6
:101E000044656320203520323031390031323A3296
:101E1000363A353600000000580A0D00590A0D0008
:101E20005A000000230A0D003E000000B118000017
:101E3000D5180000C518000009190000231900007A
:101E400049190000211B0000FD0F00001D100000BB
:101E50003D100000611000007D10000061100000C6
:101E6000A910000000002110422063308440A550DA
:101E7000C660E770088129914AA16BB18CC1ADD1D0
:101E8000CEE1EFF13112100273325222B552944278
:101E9000F772D662399318837BB35AA3BDD39CC320
:101EA000FFF3DEE36224433420040114E664C774C4
:101EB000A44485546AA54BB528850995EEE5CFF570
:101EC000ACC58DD55336722611163006D776F66618
:101ED0009556B4465BB77AA719973887DFF7FEE7C0
:101EE0009DD7BCC7C448E5588668A77840086118E4
:101EF00002282338CCC9EDD98EE9AFF94889699910
:101F00000AA92BB9F55AD44AB77A966A711A500AB7
:101F1000333A122AFDDBDCCBBFFB9EEB799B588B5F
:101F20003BBB1AABA66C877CE44CC55C222C033C03
:101F3000600C411CAEED8FFDECCDCDDD2AAD0BBDAF
:101F4000688D499D977EB66ED55EF44E133E322E57
:101F5000511E700E9FFFBEEFDDDFFCCF1BBF3AAFFF
:101F6000599F788F8891A981CAB1EBA10CD12DC15D
:101F70004EF16FE18010A100C230E32004502540F3
:101F800046706760B9839893FBA3DAB33DC31CD353
:101F90007FE35EF3B1029012F322D2323542145243
:101FA00077625672EAB5CBA5A89589856EF54FE59F
:101FB0002CD50DC5E234C324A01481046674476493
:101FC00024540544DBA7FAB79987B8975FE77EF7F3
:101FD0001DC73CD7D326F2369106B01657667676E3
:101FE000154634564CD96DC90EF92FE9C899E989BF
:101FF0008AB9ABA94458654806782768C018E10833
:102000008238A3287DCB5CDB3FEB1EFBF98BD89B92
:10201000BBAB9ABB754A545A376A167AF10AD01A82
:10202000B32A923A2EFD0FED6CDD4DCDAABD8BADDE
:10203000E89DC98D267C076C645C454CA23C832CD2
:10204000E01CC10C1FEF3EFF5DCF7CDF9BAFBABF32
:10205000D98FF89F176E367E554E745E932EB23E22
:08206000D10EF01E000000008B
:102068000114000009024300020100803209040043
:1020780000010202000005240010010424020005EA
:10208800240600010524010001070583030800FF59
:1020980009040100020A000000070581024000004F
:1020A800070502024000000000C20100000008000D
:1020B80054000020000000000000000000000000A4
:1020C8000000000000000000000000000000000008
:1020D80000000000000000000000000000000000F8
:1020E80000000000000000000000000000000000E8
:1020F80000000000000000000000000000000000D8
:1021080000000000000000000000000000000000C7
:0C21180000000000690000004100000011
:04000003000008E110
:00000001FF
