:100000000C941B010C9443010C9443010C94430188
:100010000C9443010C9443010C9443010C94430150
:100020000C9443010C9443010C9443010C94430140
:100030000C9443010C9443010C9443010C94430130
:100040000C94DC090C9443010C9413090C9445099D
:100050000C9443010C9443010C9443010C94430110
:100060000C941B040C9443010C9443010C94430125
:100070000C9443010C9443010C9443010C944301F0
:100080000C9443010C9443010C9443010C944301E0
:100090000C9443010C9443010C9443010C944301D0
:1000A0000C9443010C9443010C9443010C944301C0
:1000B0000C944301F00AF30AE60AEA0A140B140B43
:1000C000F70AFB0A010B050B140B0B0B0F0B0000BF
:1000D0000000000000000000000000000000000020
:1000E000000000000000000000000101010101010A
:1000F00001010101010101020202020202020203E6
:1001000003030303030304040404040505050506AF
:10011000060606070707070808080909090A0A0A60
:100120000B0B0B0C0C0D0D0D0E0E0F0F10101111F3
:100130001212131314141515161617181819191A64
:100140001B1B1C1D1D1E1F202021222323242526AE
:10015000272728292A2B2C2D2E2F303132323334C9
:10016000363738393A3B3C3D3E3F404243444546B2
:1001700048494A4B4D4E4F515253555657595A5C68
:100180005D5F606263656668696B6D6E70727375E2
:1001900077787A7C7E7F81838587898A8C8E90921E
:1001A0009496989A9C9EA0A2A4A7A9ABADAFB1B417
:1001B000B6B8BABDBFC1C4C6C8CBCDD0D2D5D7DAC8
:1001C000DCDFE1E4E7E9ECEFF1F4F7F9FCFF090C1F
:1001D0000D080002010000030407000000000000F9
:1001E000000000000000010204081020408001020D
:1001F000040810200102040810200408010204046D
:1002000004040404040402020202020203030303BE
:1002100003030505050500000000250028002B004C
:100220002E0000000000240027002A002D003903C2
:10023000EE0375094B0311241FBECFEFD8E0DEBFDC
:10024000CDBF11E0A0E0B1E0E2E2FAE102C005902A
:100250000D92AA32B107D9F722E0AAE2B1E001C0BB
:100260001D92A23CB207E1F711E0CAE1D1E004C05F
:100270002197FE010E94D60BC731D107C9F70E9412
:10028000CD090C94040D0C9400008CB580648CBDD9
:1002900061E08CE00E94150B80911702882399F091
:1002A0002FB7F89480911702813059F48DB3809361
:1002B00015029DB380911602809589238DBB2FBFB7
:1002C00002C02093150282E58CBD81E08DBD809136
:1002D0001702882361F09FB7F8942091170280914C
:1002E0001502213019F48DBB9FBF01C08FBF8CB5A3
:1002F00080688CBD109254011092550126E040E0B8
:1003000052EC61E070E088E192E00E94AE088FE379
:1003100091E00E945C056FE78FE391E00E94800707
:100320008AE291E00E945C056FE78AE291E00C941A
:100330008007CF92DF92EF92FF920F931F93CF939C
:10034000DF93E12CF12CCEECD0E002E611E0FE01CF
:1003500044916491F8018491469546956695669519
:10036000869586950E9471079B01AC01B7018FE3CA
:1003700091E00E94FC068FE391E00E94DF05FE0100
:1003800044916491F80184914695469566956695E9
:10039000869586950E9471079B01AC01B7018AE2A0
:1003A00091E00E94FC068AE291E00E94DF0568E28B
:1003B00070E080E090E00E944B0AFE014491F80159
:1003C0006491FE018491469546956695669586955D
:1003D00086950E9471079B01AC016701FFEFCF1A60
:1003E000DF0AB6018FE391E00E94FC068FE391E003
:1003F0000E94DF05FE014491F8016491FE018491A1
:100400004695469566956695869586950E947107F0
:100410009B01AC01B6018AE291E00E94FC068AE2EF
:1004200091E00E94DF0568E270E080E090E00E94C9
:100430004B0AF8014491FE016491849146954695DA
:1004400066956695869586950E9471079B01AC011D
:100450006701F2E0CF0ED11CB6018FE391E00E945C
:10046000FC068FE391E00E94DF05F8014491FE0154
:100470006491849146954695669566958695869590
:100480000E9471079B01AC01B6018AE291E00E94D3
:10049000FC068AE291E00E94DF0568E270E080E0FD
:1004A00090E00E944B0AFE014491F801649184910E
:1004B0004695469566956695869586950E94710740
:1004C0009B01AC016701F3E0CF0ED11CB6018FE3B5
:1004D00091E00E94FC068FE391E00E94DF05FE019F
:1004E0004491F80164918491469546956695669588
:1004F000869586950E9471079B01AC01B6018AE240
:1005000091E00E94FC068AE291E00E94DF0568E229
:1005100070E080E090E00E944B0AF8014491FE01F7
:100520006491F80184914695469566956695869501
:1005300086950E9471079B01AC016701F4E0CF0E24
:10054000D11CB6018FE391E00E94FC068FE391E09D
:100550000E94DF05F8014491FE016491F801849145
:100560004695469566956695869586950E9471078F
:100570009B01AC01B6018AE291E00E94FC068AE28E
:1005800091E00E94DF0568E270E080E090E00E9468
:100590004B0AF80144916491FE0184914695469579
:1005A00066956695869586950E9471079B01AC01BC
:1005B0006701F5E0CF0ED11CB6018FE391E00E94F8
:1005C000FC068FE391E00E94DF05F80144916491FD
:1005D000FE01849146954695669566958695869525
:1005E0000E9471079B01AC01B6018AE291E00E9472
:1005F000FC068AE291E00E94DF0568E270E080E09C
:1006000090E00E944B0AF6E0EF0EF11C82E4E8163F
:10061000F10409F09CCEC0E0D0E040E060E080E072
:100620000E9471079B01AC01BE018FE391E00E9423
:10063000FC0640E060E080E00E9471079B01AC0195
:10064000BE018AE291E00E94FC062196C034D105E9
:1006500021F78FE391E00E94DF058AE291E0DF91CC
:10066000CF911F910F91FF90EF90DF90CF900C945E
:10067000DF0522E530E04FE060E470E08FE391E0D9
:100680000E94DC0622E530E04EE060E470E08AE2A1
:1006900091E00C94DC068AE291E00E9448058FE329
:1006A00091E00C94480580E090E0089580918501E8
:1006B00090E020918601821B910908959091860116
:1006C00080918501981750F4E92FF0E0E957FE4F2B
:1006D000208130E09F5F9093860102C02FEF3FEFB3
:1006E000C9010895E091860180918501E81730F4F1
:1006F000F0E0E957FE4F808190E008958FEF9FEF83
:1007000008950895CF92DF92EF92FF920F931F9377
:10071000CF93DF937C01CB018A01209162012223D8
:1007200089F0EB016B01C40ED51ECC15DD0569F017
:100730006991D701ED91FC910190F081E02DC70105
:100740000995F3CF642F0E94F203C801DF91CF9186
:100750001F910F91FF90EF90DF90CF900895CF936E
:10076000DF931F92CDB7DEB7698320916201222308
:10077000D1F020916301203240F021E030E0FC0113
:100780003383228380E090E015C080916401E82FDC
:10079000F0E0EB59FE4F998190838F5F8093640165
:1007A0008093630105C061E0CE0101960E94F203CF
:1007B00081E090E00F90DF91CF910895FC011382CA
:1007C000128288EE93E0A0E0B0E084839583A68354
:1007D000B7838AE091E091838083089586E591E074
:1007E0000C94DE03613298F420911402243089F4D1
:1007F0006093C901282FABECB1E0FC018E2F821B66
:10080000861718F481918D93F9CF80E0089581E0E7
:10081000089582E0089585ED8093BC008091BC002E
:1008200084FDFCCF10921402089585EC8093BC00E7
:100830001092140208951F920F920FB60F92112476
:100840002F933F934F935F936F937F938F939F93D8
:10085000AF93BF93EF93FF938091B900887F803669
:1008600009F49EC078F5883209F45DC090F48031B7
:1008700009F456C038F4882309F4F5C0883009F427
:100880004FC0F5C0883109F44EC0803209F45FC012
:10089000EEC0803409F46AC058F4803309F457C0BC
:1008A000883309F0E4C08093A7010E941504DFC0DB
:1008B000803509F44FC0883509F45DC0883409F0EB
:1008C000D6C0D3C0883909F4C4C0A8F4883709F465
:1008D00067C038F4883609F463C0803709F460C013
:1008E000C6C0883809F4B5C0803909F45FC08038C3
:1008F00009F0BDC05BC0803B09F483C038F4803A86
:1009000009F466C0883A09F47CC0B1C0803C09F49F
:10091000A4C0883C09F4A1C0883B09F487C0A7C0E3
:100920008091130210C09091EC018091EB01981717
:1009300070F5E091EC0181E08E0F8093EC01F0E026
:10094000E351FE4F80818093BB0085EC83C0809390
:10095000A7018BC0E091EC0181E08E0F8093EC0148
:100960008091BB00F0E0E351FE4F80839091EC0159
:100970008091EB016BC0E091EC0181E08E0F8093E0
:10098000EC018091BB00F0E0E351FE4F8083809149
:10099000120281116AC081E08093110284EA5EC074
:1009A00083E0809314021092A801CFCF8091A80118
:1009B000803208F04EC0E091A80181E08E0F809354
:1009C000A8018091BB00F0E0E755FE4F8083BDCFCA
:1009D0000E9415048091A801803230F4E091A801B2
:1009E000F0E0E755FE4F10826091A80170E0E091C1
:1009F0000D02F0910E0289EA91E009951092A8018A
:100A000036C084E0809314021092CA011092C9018A
:100A1000E0910F02F091100209958091C9018111B6
:100A200005C081E08093C9011092CB01E091CA0119
:100A300081E08E0F8093CA01F0E0E553FE4F808184
:100A40008093BB009091CA018091C901981708F466
:100A50007CCF85E88093BC000AC085EC8093BC0005
:100A60001092140204C01092A7010E940B04FF917F
:100A7000EF91BF91AF919F918F917F916F915F9116
:100A80004F913F912F910F900FBE0F901F9018958F
:100A9000CF93DF93EC0188859985009711F00E9430
:100AA000740C8E8187FD05C060E0DF91CF910C94BE
:100AB000150BDF91CF910895CF93DF93EC018E81D9
:100AC00087FD07C061E00E94150B60E08E810E94E7
:100AD000510B81E08983DF91CF910895EF92FF92CE
:100AE0000F931F93CF93DF93EC017B01888599854A
:100AF000009711F00E94740C9D858A85981719F053
:100B000084E090E002C083E090E08E9D80018F9DA4
:100B1000100D9E9D100D11241D830C83C8010E9491
:100B2000DC0B99878887009741F0A80160E070E0AE
:100B30000E94FD0CFB82EA8204C01D821C821B8283
:100B40001A82DF91CF911F910F91FF90EF9008953E
:100B5000FC0131E095858285981330E0CB0126E0D9
:100B6000969587952A95E1F7282F23702587CB0145
:100B700044E0969587954A95E1F783708287AB01AB
:100B8000569547955695479543704387962F937092
:100B9000948791E06F3F710511F008F090E0908329
:100BA00040855185452B51F091E0281390E039178D
:100BB00029F062817381CF010C946E050895CF9264
:100BC000DF92EF92FF920F931F93CF93DF93CDB7F6
:100BD000DEB729970FB6F894DEBF0FBECDBF8C01EC
:100BE000DC0118968D919C911997892B09F4A3C06B
:100BF0000E94260AF801C684D784E088F188DC01C7
:100C0000CB018C199D09AE09BF098C329140A10519
:100C1000B10570F3F894D80114968D919C911597B5
:100C20009A8389831896ED91FC9119977F01BFEF04
:100C3000EB1AFB0A80818987F80190810288F38989
:100C4000E02DD80154968C91992309F430C09081FD
:100C5000982B98879081809589238F838F818E83AD
:100C600088E08D8358856F8149853D812E818981FA
:100C70009A81D701508347FD252F3A952083262F4F
:100C800039F0441F00C000006083000000C0F2CFB4
:100C900038E04D9160830000019761F7D8015396C9
:100CA000FC93EE93529749873D832E833AC09081FF
:100CB000982B98879081809589238F838F818C834F
:100CC00088E08B8358856F8149853B812C818981A0
:100CD0009A81D701508347FD252F00C000C0208393
:100CE00000C000C000C000C000C060830000262F0C
:100CF0003A9541F0441F000000C000C000C000C091
:100D000000C0E8CF38E04D9100C0608300C001977B
:100D100009F7D8015396FC93EE93529749873B838A
:100D20002C839A83898378940E94260AF801668727
:100D30007787808B918B29960FB6F894DEBF0FBE14
:100D4000CDBFDF91CF911F910F91FF90EF90DF907A
:100D5000CF9008951F93CF93DF93EC01162F8981D5
:100D6000882331F08E8187FD03C060E00E94150B5F
:100D70001E838981882341F061E0812F0E94150B39
:100D800060E0812F0E94510B812F90E0FC01E25026
:100D9000FE4FE491F0E0EE0FFF1FEA5EFD4F25915C
:100DA00034913B8B2A8BFC01EA51FE4FE491EC8B92
:100DB000DF91CF911F910895EF92FF921F93CF93F0
:100DC000DF93EC017B01142F19821F82198618868C
:100DD0001E861F86188A198AB9010E94A805B701C4
:100DE000CE010E946E05612FCE01DF91CF911F9140
:100DF000FF90EF900C94AA067F928F929F92AF92F1
:100E0000BF92CF92DF92EF92FF920F931F93CF93F7
:100E1000DF93FC01828193816817790708F053C042
:100E20004A01AA24BB24782CC32ED42EE52EFF24FD
:100E3000BC2DA22F8781882361F0889E4001112458
:100E4000792C8C9D60011124BD2D829F700111248D
:100E5000AF2D9585D285E084F1849D1308C0CB0128
:100E6000880F991F680F791F6E0D7F1D1CC0660FBC
:100E7000771F660F771F6E0D7F1D052F1127222705
:100E800033277B01E90EF11C811102C0202F09C01C
:100E900090E0809F6001819FD00C909FD00C112426
:100EA0002D2DE701288382859B01280F311DE90143
:100EB00078828385EB01C80FD11DB8838485FB013F
:100EC000E80FF11DA083DF91CF911F910F91FF904B
:100ED000EF90DF90CF90BF90AF909F908F907F90DA
:100EE00008950F931F93962F50E060E070E0592B08
:100EF0008A019B01282BC901B8011F910F91089508
:100F0000FF920F931F93CF93DF93EC01FF24F39491
:100F1000F60E2F81F21679F1088519852150B9F066
:100F20006F3F59F430E040E050E06FEF7FEF80E03A
:100F300090E00E94B70BB9010CC08F2D90E0982F64
:100F400088270197622F70E00E94810B02C060E049
:100F500070E0F8014C815D81CF01801B910B8417FB
:100F6000950740F44081469FC001479F900D112492
:100F70009193F0CFFF82DF91CF911F910F91FF905E
:100F80000895FC01918D228D892F90E0805C9F4F08
:100F9000821B91098F7399270895FC01918D828D91
:100FA000981731F0828DE80FF11D858D90E008953E
:100FB0008FEF9FEF0895FC01918D828D981761F05E
:100FC000828DDF01A80FB11D5D968C91928D9F5F80
:100FD0009F73928F90E008958FEF9FEF0895FC012B
:100FE000538D448D252F30E0842F90E0821B930B8E
:100FF000541710F0CF960895019708958BE699E065
:10100000892B41F080E090E0892B21F00E946B0950
:1010100081110DC080E090E0892B71F080E090E0BC
:10102000892B51F00E940000811104C008950E9494
:101030000000F0CF0C9400000895FC01848DDF01C6
:10104000A80FB11DA35ABF4F2C91848D90E001963B
:101050008F739927848FA689B7892C93A089B1892A
:101060008C91837080648C93938D848D981306C0CB
:101070000288F389E02D80818F7D80830895EF922F
:10108000FF920F931F93CF93DF93EC0181E0888F42
:101090009B8D8C8D981305C0E889F989808185FD29
:1010A00026C0F62E0B8D10E00F5F1F4F0F73112718
:1010B000E02E8C8DE8120CC00FB607FCFACFE88941
:1010C000F989808185FFF5CFCE010E941D08F1CFFF
:1010D0008B8DFE01E80FF11DE35AFF4FF0829FB7A1
:1010E000F8940B8FEA89FB89808180620AC09FB7E0
:1010F000F894EE89FF896083E889F989808183709B
:10110000806480839FBF81E090E0DF91CF911F9149
:101110000F91FF90EF900895CF93DF93EC01888DAE
:101120008823C9F0EA89FB89808185FD05C0A889EB
:10113000B9898C9186FD0FC00FB607FCF5CF808171
:1011400085FFF2CFA889B9898C9185FFEDCFCE01BB
:101150000E941D08E7CFDF91CF910895CF92DF92D3
:10116000EF92FF921F93CF93DF93EC016A017B0113
:10117000122FE889F98982E080834115514E61057B
:101180007105B1F060E079E08DE390E0A701960190
:101190000E94950BDA01C9010197A109B109B69521
:1011A000A795979587959C01211580E13807A8F0B0
:1011B000E889F989108260E874E88EE190E0A7017F
:1011C00096010E94950BDA01C9010197A109B109A5
:1011D000B695A795979587959C01EC85FD853083FD
:1011E000EE85FF852083188EEC89FD891083EA89BE
:1011F000FB89808180618083EA89FB8980818860A6
:101200008083EA89FB89808180688083EA89FB8901
:1012100080818F7D8083DF91CF911F91FF90EF9030
:10122000DF90CF9008951F920F920FB60F92112466
:101230002F938F939F93EF93FF93E0912802F09168
:1012400029028081E0912E02F0912F0282FD12C0CE
:101250009081809131028F5F8F73209132028217CB
:1012600051F0E0913102F0E0E85EFD4F958F809300
:10127000310201C08081FF91EF919F918F912F9159
:101280000F900FBE0F901F9018951F920F920FB6E0
:101290000F9211242F933F934F935F936F937F93FC
:1012A0008F939F93AF93BF93EF93FF9388E192E067
:1012B0000E941D08FF91EF91BF91AF919F918F9177
:1012C0007F916F915F914F913F912F910F900FBE42
:1012D0000F901F90189588E192E00E94C10721E0CD
:1012E000892B09F420E0822F0895E8E1F2E01382CF
:1012F000128288EE93E0A0E0B0E084839583A68319
:10130000B7838CE191E09183808385EC90E09587B1
:10131000848784EC90E09787868780EC90E0918BBF
:10132000808B81EC90E0938B828B82EC90E0958BAC
:10133000848B86EC90E0978B868B118E128E138EA9
:10134000148E0895CF92DF92EF92FF920F931F9326
:10135000CF93DF936C017A018B01C0E0D0E0CE1512
:10136000DF0581F0D8016D918D01D601ED91FC91E1
:101370000190F081E02DC6010995892B11F021968D
:10138000EECF7E01C701DF91CF911F910F91FF90AA
:10139000EF90DF90CF90089508950E94870A0E94F1
:1013A000CC090E944501CEEFD7E00E949901209719
:1013B000E1F30E94FE07F9CF1F920F920FB60F9232
:1013C00011242F933F938F939F93AF93BF9380915B
:1013D000B6029091B702A091B802B091B9023091D3
:1013E000B50223E0230F2D3720F40196A11DB11D76
:1013F00005C026E8230F0296A11DB11D2093B5025A
:101400008093B6029093B702A093B802B093B9024A
:101410008091BA029091BB02A091BC02B091BD0232
:101420000196A11DB11D8093BA029093BB02A093B7
:10143000BC02B093BD02BF91AF919F918F913F913C
:101440002F910F900FBE0F901F9018953FB7F894F3
:101450008091BA029091BB02A091BC02B091BD02F2
:1014600026B5A89B05C02F3F19F00196A11DB11DFF
:101470003FBFBA2FA92F982F8827820F911DA11D3A
:10148000B11DBC01CD0142E0660F771F881F991F77
:101490004A95D1F708958F929F92AF92BF92CF92C3
:1014A000DF92EF92FF926B017C010E94260A4B01B2
:1014B0005C01C114D104E104F10401F10E94800B2C
:1014C0000E94260ADC01CB0188199909AA09BB09E7
:1014D000883E9340A105B10560F321E0C21AD1080E
:1014E000E108F10888EE880E83E0981EA11CB11C6B
:1014F000C114D104E104F10419F7DBCFFF90EF90A0
:10150000DF90CF90BF90AF909F908F900895789488
:1015100084B5826084BD84B5816084BD85B58260F8
:1015200085BD85B5816085BDEEE6F0E08081816096
:101530008083E1E8F0E01082808182608083808196
:1015400081608083E0E8F0E0808181608083E1EB6E
:10155000F0E0808184608083E0EBF0E08081816056
:101560008083E1E9F0E08081826080838081816016
:101570008083E0E9F0E0808181608083E1EAF0E04F
:10158000808182608083808181608083E0EAF0E0F6
:10159000808181608083EAE7F0E0808184608083DD
:1015A0008081826080838081816080838081806887
:1015B00080831092C100089590E0FC013197ED30D6
:1015C000F10590F5E65AFF4F0C94D60B8091800000
:1015D0008F7703C0809180008F7D80938000089575
:1015E00084B58F7702C084B58F7D84BD08958091C6
:1015F000B0008F7703C08091B0008F7D8093B000E2
:101600000895809190008F7703C0809190008F7D26
:101610008093900008958091A0008F7703C08091FF
:10162000A0008F7D8093A0000895CF93DF9390E07A
:10163000FC01EA51FE4F2491FC01E250FE4F8491DF
:10164000882361F190E0880F991FFC01EE5DFD4F4A
:10165000C591D491FC01EA5EFD4FA591B491611151
:1016600009C09FB7F8948881209582238883EC91E4
:101670002E230BC0623061F49FB7F8948881322F1B
:10168000309583238883EC912E2B2C939FBF06C02B
:101690008FB7F894E8812E2B28838FBFDF91CF91ED
:1016A00008951F93CF93DF93282F30E0F901E25381
:1016B000FE4F8491F901EA51FE4FD491F901E250B5
:1016C000FE4FC491CC23C1F0162F81110E94DC0A79
:1016D000EC2FF0E0EE0FFF1FEA5EFD4FA591B491F5
:1016E0009FB7F894111104C08C91D095D82302C0F3
:1016F000EC91DE2BDC939FBFDF91CF911F9108957A
:101700000895AA1BBB1B51E107C0AA1FBB1FA61748
:10171000B70710F0A61BB70B881F991F5A95A9F79A
:1017200080959095BC01CD010895A1E21A2EAA1BC7
:10173000BB1BFD010DC0AA1FBB1FEE1FFF1FA21781
:10174000B307E407F50720F0A21BB30BE40BF50B7E
:10175000661F771F881F991F1A9469F76095709507
:10176000809590959B01AC01BD01CF010895052E98
:1017700097FB1EF400940E94CE0B57FD07D00E94E9
:10178000950B07FC03D04EF40C94CE0B509540956E
:10179000309521953F4F4F4F5F4F0895909580951D
:1017A000709561957F4F8F4F9F4F0895EE0FFF1FEC
:1017B0000590F491E02D09940F931F93CF93DF933D
:1017C0008230910510F482E090E0E091C002F09147
:1017D000C10220E030E0A0E0B0E0309719F1408194
:1017E00051810281138148175907C8F08417950762
:1017F00069F4109731F012960C93129713961C937C
:1018000027C00093C0021093C10222C021153105E8
:1018100019F04217530718F49A01BD01EF01DF01D7
:10182000F801DBCF21153105F9F0281B390B2430E5
:10183000310580F48A819B816115710521F0FB01DE
:101840009383828304C09093C1028093C002FE01FF
:10185000329644C0FE01E20FF31F81939193225010
:101860003109398328833AC02091BE023091BF02EA
:10187000232B41F420910201309103013093BF02E8
:101880002093BE0220910001309101012115310504
:1018900041F42DB73EB74091040150910501241B3E
:1018A000350BE091BE02F091BF02E217F307A0F4FE
:1018B0002E1B3F0B2817390778F0AC014E5F5F4FA6
:1018C0002417350748F04E0F5F1F5093BF02409317
:1018D000BE028193919302C0E0E0F0E0CF01DF917E
:1018E000CF911F910F910895CF93DF93009709F443
:1018F00081C0FC01329713821282A091C002B09184
:10190000C102109781F420813181820F931F2091B1
:10191000BE023091BF022817390751F5F093BF027C
:10192000E093BE0267C0ED0120E030E0CE17DF0794
:1019300040F44A815B819E0141155105F1F0EA01B5
:10194000F5CFD383C28340815181840F951FC8177F
:10195000D90759F488819981840F951F0296918344
:1019600080838A819B81938382832115310529F4A9
:10197000F093C102E093C0023DC0E901FB83EA831A
:1019800049915991C40FD51FEC17FD0761F480816F
:101990009181840F951F0296E90199838883828142
:1019A00093819B838A83E0E0F0E012968D919C9175
:1019B0001397009719F0FD01DC01F7CF8D919C91F1
:1019C00011979D012E5F3F4F820F931F2091BE0202
:1019D0003091BF022817390769F4309729F4109223
:1019E000C1021092C00202C013821282B093BF02E1
:1019F000A093BE02DF91CF910895DC0101C06D93E9
:101A000041505040E0F7089511E0CAE1D1E004C030
:101A1000FE010E94D60B2196CB31D107C9F7F8946D
:021A2000FFCFF6
:101A22000000C202800000000000AF0382035303E3
:101A3200810356035E037203000000003F08A209FF
:0A1A4200EF078C08C107DB07CD0792
:107E00001F92CDB7DEB7112484B714BE982F9D7092
:107E100009F0E6D082E08093C00088E18093C10041
:107E200086E08093C20080E18093C4008EE0C3D0DE
:107E300010928500109284004899FECF489BFECF97
:107E400081E0809381004899FECF109281002091BB
:107E50008400822F20918500922F089644E0969509
:107E600087954A95E1F701978093C40098D08033B5
:107E7000E9F7A7D0812C912C13E001E025E0F22E48
:107E800031E1E32E8CD0813479F489D0898399D083
:107E90008981823811F482E005C0813811F486E0CE
:107EA00001C083E075D071C0823411F484E103C055
:107EB000853419F485E08DD068C0853549F46FD0DC
:107EC000D82E6DD08D2C912C982A880C991C5CC0D2
:107ED000863521F484E07DD080E0E4CF843609F05B
:107EE00036C05DD05CD0D82E5AD0C82EA12CBB2471
:107EF000B39455D0F50181935F01DE12FACF61D0C2
:107F0000F5E4CF1201C0FFCFF40117BFE89507B623
:107F100000FCFDCFA401A0E0B1E02C911296CD01B0
:107F20000197FC01808130E0382BFA01090107BF7D
:107F3000E89511244E5F5F4FDA12EFCFF401F7BEE0
:107F4000E89507B600FCFDCFE7BEE8951EC0843774
:107F500071F425D024D0D82E22D033D05401F5018D
:107F600085915F0115D0DA94D110F9CF0EC0853715
:107F700039F427D08EE10CD085E90AD086E192CF82
:107F8000813511F488E017D01CD080E101D07ACF80
:107F90009091C00095FFFCCF8093C600089580911A
:107FA000C00087FFFCCF8091C00084FD01C0A89570
:107FB0008091C6000895E0E6F0E098E19083808328
:107FC0000895EDDF803219F088E0F5DFFFCF84E11E
:107FD000DFCFCF93C82FE3DFC150E9F7CF91F1CFC7
:0C7FE000282E80E0E8DFE0E0FF27099495
:0400000300007E007B
:00000001FF
