:10000000FC0F0020AD0100009D010000A1010000D7
:1000100000000000000000000000000000000000E0
:10002000000000000000000000000000A50100002A
:100030000000000000000000A90100000000000016
:1000400010B5064C2378002B07D1054B002B02D0AE
:10005000044800E000BF0123237010BD18000020F9
:1000600000000000D80C0000044B10B5002B03D09A
:100070000349044800E000BF10BDC0460000000076
:100080001C000020D80C000010B5C3699B07FCD4ED
:1000900003680224A3430360C369DB07FCD403683D
:1000A0000124234303600368DB07FCD4C369DB0737
:1000B000FCD4C3699B07F9D4084B1A430260C36997
:1000C0005B07FCD4C0239B0243608181C3699B070B
:1000D000FCD4036802221343036010BD04000040F7
:1000E000037EDB07FCD589B201857047037E5B0781
:1000F000FCD5438BDB0705D4438B9B0702D4438B92
:100100005B0702D5024B01221A70008DC0B2704706
:1001100034000020184A53681E218B431C390B43BE
:100120005360164B196A164801401962C221C90072
:1001300099600421516000229A841A00D368DB067A
:10014000FCD50E490F4BCB620F4B1B689B0E9B02DD
:100150000E4A12689205920D13438B620C4B8B84EE
:100160000A00D368DB06FCD50A4B0B4A5A601A001A
:100170005378DB09FCD17047004000410008004083
:10018000FFFCFFFF80BB000024608000286080002F
:100190002E050000000C0040000721000EBEFEE707
:1001A0000DBEFEE705BEFEE702BEFEE710B5164A2D
:1001B000164B9A4215D0164A134B9A4211D01A0088
:1001C000124B9A420DD20333124A9B1A9B080133F9
:1001D0009B0000220C480E498C58845004329A42ED
:1001E000FAD10D4A0D4B9A420AD009D2111D0333A0
:1001F0005B1A032083435B18002102C29A42FCD1A0
:1002000000F00EF8FEE7C0460000002018000020B5
:10021000DC0C00000400002018000020F402002084
:1002200080B500AF1A4B4E22062199548022D2018C
:100230009A61FA23013B002BFCD1164B1A68531C20
:1002400009D0154B15490B60FF21043B0B4202D12D
:10025000134BFE3919700E4B1B6A5B040CD4FFF76D
:1002600059FF62B600F0FCF9012000F01DF800F023
:10027000B5F90020BD4680BD82F30888054BFF22FA
:100280009343084A9360054B1B681B681847E6E7D1
:100290000044004100100000041000003C00002059
:1002A0003500002000ED00E0012800D07047034B2E
:1002B000034A1A60034B01221A70F7E7E00000209E
:1002C000BC0A000036000020F0B5CE46474680B597
:1002D00006008846002A17D00023002400200727A4
:1002E0000EE0411C8946E501AC46F55C61460D43D4
:1002F00041460D5464084946C8B20133934204D2C2
:100300001F42EED1F45CF8E700200CBC9046994601
:10031000F0BD10B5002804D00022012300210024E4
:100320000AE000230021C8185A1E93411818C0B2D1
:1003300010BD0831C9B2230001328242F3D2062B2C
:10034000F7D00133DBB2F7E7F0B5DE4657464E464D
:100350004546E0B583B0464B464A1360464A14789A
:10036000013B1D5D611EC9B21170002913D0404BC5
:10037000591800221878424001338B42FAD17F236A
:100380001A400020954208D003B03CBC90469946E4
:10039000A246AB46F0BD0022F1E7364B374A1A6061
:1003A0002200083AD2B2344B1A70354B1B689A427D
:1003B000EAD1344D29003148FFF786FF04000422BA
:1003C000290001A800F054FB2F4B1E68019B9C469E
:1003D000664401962D4B1B68043C5A000020944251
:1003E000D2D1F3182A4A126893423FD8002500233D
:1003F0009B46284A284B9C46244F224B04339A465E
:100400003C00B946224B9846536880218B43536089
:1004100063461380137DDB07FCD53B68032B0CD9A7
:10042000300000215B4653449E1B33181B6808C0F4
:10043000013123689B088B42F7D8184B1380137D3A
:10044000DB07FCD50135022D0ED04B461B68290079
:1004500059438B46019959440E005B18414609687F
:100460008B42D1D901208FE701208DE701208BE756
:10047000E400002050000020DC000020EB00002001
:100480004C00002054000020E4010020D80000208F
:10049000440000200040004144A5FFFF04A5FFFFE9
:1004A00070B5224B1B78062B07D9214B9B79142B57
:1004B00004D0122B23D0162B25D070BD1D4B1968EC
:1004C0001D4B1B68994210D21C4A1D4B1D1C1D4C14
:1004D00019484B08D3611580137DDB07FCD52368D1
:1004E0009B00C91803688B42F3D8174B00221A707F
:1004F000164B1B68DB68062115489847DDE7154B4E
:1005000001221A70D9E7FFF71FFF002806D10F4B11
:100510001B68DB68062110489847CEE70B4B1B6829
:10052000DB6806210A489847C7E7C046DC00002080
:10053000E4000020E40100204400002000400041CD
:1005400002A5FFFFD800002040000020E0000020AE
:1005500000000020380000200800002010B5F0281E
:1005600015D0F72821D01A4B1B78002B19D0194928
:100570000A78531CDBB20B7017498854032B10D137
:100580000B78792B1CD0124B00221A7009E0104B0B
:100590001B78012B06D00F4B00221A700C4B013236
:1005A0001A7010BDFFF77CFFF5E7094B1B78012B94
:1005B00003D0074B00221A70F3E7FFF771FFF8E74B
:1005C0004B78742BDFD18B78782BDCD1E9E7C046F0
:1005D00037000020DC000020E400002030B599B096
:1005E00010A9164B0A0031CB31C231CB31C211CB2D
:1005F00011C2134883685B035B0F9B005A58114B71
:100600001A6083689BB210490B6053430F4A136012
:100610000F4B104A1A608420FFF77BFE0E4B1860C8
:100620000E4C23681B694021684698470028F8D083
:100630006B461878FFF792FFF3E7C0469C0A00006C
:1006400000400041D8000020480000204400002065
:10065000E4010020001000004C000020E000002019
:1006600010B51E4B4A215A5C012422435A543522AC
:10067000985C3B3988439854985C0221084398540D
:100680004B20195C21431954995C3C380140995422
:10069000995C202001439954114A136A04210B43A9
:1006A0001362104B104A5A801A0053785BB2002B29
:1006B000FBDBC42292030D490D48FFF7E5FC002344
:1006C0000C4A13700C4A13700C4A13700C4A1370C6
:1006D0000C4A13700C4A137010BDC0460044004110
:1006E00000040040000C00400E40000055FD0000DA
:1006F00000080042E801002072020020E901002009
:10070000EC010020730200207002002010B5C1B27D
:100710000248FFF7E5FC012010BDC046000800427A
:10072000024B187E4007C00F7047C04600080042C9
:1007300010B5FFF7F5FF0028FBD00248FFF7D6FC05
:1007400010BDC0460008004270B504000E1E06D061
:1007500045182078FFF7DAFF0134A542F9D13000BF
:1007600070BD10B50400FFF7E3FF2070012010BD3D
:100770000B0A43405B000902024A985A484080B283
:100780007047C046D80A0000F0B5DE4657464E46D0
:100790004546E0B583B001908B464C4B00221A7061
:1007A000002918D14A4B01321A70484C0025FFF736
:1007B000BFFF2378002B1CD1C0B2432803D071287F
:1007C0007CD01528F3D101239946424B98461C0052
:1007D0003F4B9A4662E03F4B19803D4B00221A7016
:1007E0000B005B06E1D00B0080337F3293439B46C6
:1007F000DBE7364B1D70FFF79BFFC0B2334B1B7816
:10080000002BDAD0314B00221A70002057E02F4B1A
:1008100000221A70002052E00420FFF777FFFFF754
:1008200087FF2B4B00221A70012048E03D78013BE6
:10083000238001372800FFF769FF00992800FFF7A0
:1008400097FF0090013E002E08D043461B88002BE6
:10085000ECD152461578002DECD0E7E70500000AF0
:10086000C0B2FFF753FFE8B2FFF750FFFFF760FF9A
:10087000164B1B78002BCAD1FF23184006280AD13B
:100880004B460133DBB2994680235B429C46E344EE
:10089000019B803301935B46002BBDD00120FFF705
:1008A00035FF4846FFF732FF4B46D843C0B2FFF74B
:1008B0002DFF019F802600230093C6E7002003B090
:1008C0003CBC90469946A246AB46F0BD7002002063
:1008D00071020020EA010020F0B5D646474680B5F7
:1008E00083B006000F1E2BD0002400230193194B68
:1008F0009A46194B984608E0731C35701E00802FED
:1009000018D00134A4B2A7421ED0FFF711FFC5B220
:1009100053461B78002B15D101992800FFF728FFBB
:10092000019043461B88002BE6D10C4B1B78002B13
:10093000E7D0E1E7084A1288013A07490A80E0E770
:10094000019101E001230193019803B00CBC904692
:100950009A46F0BD70020020EA01002071020020DA
:10096000F0B585B005003E4B00221A70002904D175
:100970003C4B01321A7064260AE03B4B1980394B1C
:1009800000221A70F7E7002C0ED1013E002E65D030
:100990004320FFF7BBFE354CFFF7C2FE0028F2D123
:1009A000002CF2D0013CF7E701242D4E41E02C4B06
:1009B00000221A7000204BE0022103A8FFF78CFFF1
:1009C00080212800FFF788FF0190254B1B78002B22
:1009D00008D0234B1B78002B36D0214B00221A70F5
:1009E000002035E0FFF7A4FE0700FFF7A1FE1C4B37
:1009F0001A78012AEDD03F02381880B2019B834259
:100A000003D103AB1B78A34203D01820FFF77EFE6F
:100A1000DFE7E34303AA5278DBB29A42F5D106201E
:100A2000FFF774FE0E4B1B78002BD6D10134E4B2D5
:100A30008035FFF77DFE3378002BB8D1FF231840B7
:100A40000128B9D0042805D0064B00221A700120D5
:100A500005B0F0BD0620FFF759FEF5E70020F7E7E7
:100A60007002002071020020EA01002000350C0015
:100A7000002310B59A4200D110BDCC5CC4540133A0
:100A8000F8E70000F8B5C046F8BC08BC9E467047C1
:100A9000F8B5C046F8BC08BC9E4670470800000088
:100AA0001000000020000000400000008000000056
:100AB0000001000000020000000400000D0700001B
:100AC000310700002107000049070000630700000C
:100AD00089070000610900000000211042206330F6
:100AE0008440A550C660E770088129914AA16BB186
:100AF0008CC1ADD1CEE1EFF131121002733252222E
:100B0000B5529442F772D662399318837BB35AA3D5
:100B1000BDD39CC3FFF3DEE36224433420040114FD
:100B2000E664C774A44485546AA54BB52885099525
:100B3000EEE5CFF5ACC58DD55336722611163006CD
:100B4000D776F6669556B4465BB77AA71997388775
:100B5000DFF7FEE79DD7BCC7C448E5588668A7788D
:100B60004008611802282338CCC9EDD98EE9AFF9C5
:100B7000488969990AA92BB9F55AD44AB77A966A6D
:100B8000711A500A333A122AFDDBDCCBBFFB9EEB15
:100B9000799B588B3BBB1AABA66C877CE44CC55C3D
:100BA000222C033C600C411CAEED8FFDECCDCDDD65
:100BB0002AAD0BBD688D499D977EB66ED55EF44E0D
:100BC000133E322E511E700E9FFFBEEFDDDFFCCFB5
:100BD0001BBF3AAF599F788F8891A981CAB1EBA109
:100BE0000CD12DC14EF16FE18010A100C230E32085
:100BF0000450254046706760B9839893FBA3DAB32D
:100C00003DC31CD37FE35EF3B1029012F322D232D4
:100C10003542145277625672EAB5CBA5A8958985FC
:100C20006EF54FE52CD50DC5E234C324A014810424
:100C30006674476424540544DBA7FAB79987B897CC
:100C40005FE77EF71DC73CD7D326F2369106B01674
:100C500057667676154634564CD96DC90EF92FE98C
:100C6000C899E9898AB9ABA94458654806782768C4
:100C7000C018E1088238A3287DCB5CDB3FEB1EFB6C
:100C8000F98BD89BBBAB9ABB754A545A376A167A14
:100C9000F10AD01AB32A923A2EFD0FED6CDD4DCD3C
:100CA000AABD8BADE89DC98D267C076C645C454C64
:100CB000A23C832CE01CC10C1FEF3EFF5DCF7CDF0C
:100CC0009BAFBABFD98FF89F176E367E554E745EB4
:0C0CD000932EB23ED10EF01E000000007A
:100CDC00F079747801F70000F079747802F700006D
:080CEC00690000004100000056
:04000003000001AD4B
:00000001FF
