:10000000FC0F00202502000015020000190200006C
:1000100000000000000000000000000000000000E0
:100020000000000000000000000000001D020000B1
:10003000000000000000000021020000000000009D
:1000400010B5064C2378002B07D1054B002B02D0AE
:10005000044800E000BF0123237010BD1000002001
:1000600000000000780D0000044B10B5002B03D0F9
:100070000349044800E000BF10BDC0460000000076
:1000800014000020780D000010B5C3699B07FCD454
:1000900003680224A3430360C369DB07FCD403683D
:1000A0000124234303600368DB07FCD4C369DB0737
:1000B000FCD4C3699B07F9D4084B1A430260C36997
:1000C0005B07FCD4C0239B0243608181C3699B070B
:1000D000FCD4036802221343036010BD04000040F7
:1000E000037EDB07FCD589B201857047037E5B0781
:1000F000FCD5438BDB0705D4438B9B0702D4438B92
:100100005B0702D5024B01221A70008DC0B2704706
:100110002C000020024A53785BB2002BFBDB7047B7
:10012000000C004002491022CB681A42FCD07047F4
:100130000008004070B52C4A53681E218B431C39BF
:100140000B435360294B2A4A9A829A8A0A439A821D
:1001500019000222CB681A42FCD0264C0123A3606E
:10016000FFF7D8FF244B6360FFF7D4FF8223DB0146
:100170006380FFF7CFFF1D4CA38C80229343A384A1
:10018000FFF7D0FF1D4BE362FFF7CCFFA38C1C4AA7
:100190001343A384FFF7C6FFA38C02221343A38457
:1001A000220080214020D3681942FCD0D368184235
:1001B000F9D0FFF7B7FF0F4D0024AC60FFF7AAFF9F
:1001C000104B6B60FFF7A6FF0F4A104B53601048AF
:1001D000036A1B021B0AC02109060B4303629460D9
:1001E0000723136070BDC046004000410008004076
:1001F0000C060000000C004001050100B805FF7D61
:10020000040A00000007030010E000E0E70300001C
:1002100000ED00E00EBEFEE70DBEFEE705BEFEE708
:1002200002BEFEE710B5164A164B9A4215D0164A82
:10023000134B9A4211D01A00124B9A420DD203333B
:10024000124A9B1A9B0801339B0000220C480E495E
:100250008C58845004329A42FAD10D4A0D4B9A427E
:100260000AD009D2111D03335B1A032083435B18A4
:10027000002102C29A42FCD100F00EF8FEE7C0460F
:1002800000000020100000207C0D00000400002071
:10029000100000204C02002080B590B000AF394B18
:1002A0001B6801331AD0384B384A1360FF22043BD5
:1002B000134213D1364A3823D35CDB0706D5354BBE
:1002C00000221A60344B01221A7007E0314B1A6881
:1002D000324B9A423DD12F4B00221A60FFF72AFF82
:1002E00062B640220021380000F014FC2C4B802222
:1002F0001201DA612B4A1A801A7DD207FCD5284BED
:100300005A6880218A435A60274A1A801A7DD20788
:10031000FCD580231B01842109014022BA18D21880
:10032000224884466244126804C38B42F5D11C4BB8
:100330001F4A1A801A7DD207FCD5174B1B78002B59
:1003400012D100F0DFF9012000F040F800F09AF936
:10035000FCE7104B114A1A60164B013B002BFCD1F5
:100360000C4B00221A60ADE7064B1A6882F308882E
:10037000FF229343104A9360044B1B681B68184785
:10038000DFE7C04600100000041000003400002029
:1003900000040040FC7F00202D0000203581730701
:1003A0000040004102A5FFFF44A5FFFFC0F7FFFF8B
:1003B00004A5FFFF48E8010000ED00E010B50C00C7
:1003C000C36811002000984710BD0000012800D02C
:1003D0007047034B034A1A60034B01221A70F7E778
:1003E000340100205C0B00002E00002010B502003C
:1003F00001394118C9B2884209D80020054CC00112
:10040000635C18430139C9B28A42F8D910BD002093
:10041000FCE7C04654000020F0B5D6464F4646469D
:10042000C0B54A4B1D786E1E002E22DD002300242D
:10043000002247498A5C54400133DBB21A00B342C0
:10044000F8DB04210420FFF7D1FF8046414B1B68F5
:10045000834210D908235B429C46AC446346002B80
:1004600035DD00200025002300220727A246614633
:100470001DE00024E5E7384B186806223749FFF7EE
:100480009DFF00202AE06C1CA446314CA1464A4442
:10049000C401127A2243324C625540086246D5B2FA
:1004A0003F2D0BD80133DBB21A008B4206DA1F4214
:1004B000E9D1274884466244107AF1E75446244B38
:1004C0009A5D7F231C40A24201D1402D0BD0224BCC
:1004D000186806222149FFF771FF00201CBC9046D6
:1004E0009946A246F0BD1F4B4246DA611E4A1A8069
:1004F0001A00137DDB07FCD51A4B5A6880218A430A
:100500005A601A4A1A801A00137DDB07FCD5184B73
:100510001B68032B0BD9414600221148401A144C8A
:10052000435808C1013223689B089342F8D80D4B09
:10053000104A1A801A00137DDB07FCD5064B186899
:1005400006220649FFF73AFF0120C7E730010020E5
:10055000540000204800002034010020000000204A
:10056000A80000200040004102A5FFFF44A5FFFFB6
:10057000E800002004A5FFFF80B500AF154B1B78F5
:10058000032B07D9144BDB78022B05D0032B0DD09E
:10059000042B1BD0BD4680BD104B00221A70104B9F
:1005A000186806320F49FFF709FFF3E70E4B0122E7
:1005B0001A700E4B1A6882F30888FF2293430C4A84
:1005C00093600C4B1B681B681847E3E7FFF724FF99
:1005D000E0E7C04630010020540000203800002031
:1005E0003401002000000020300000200010000036
:1005F00000ED00E03400002010B5F02814D0F728FA
:1006000020D01D4B1B78002B18D01C490A78531C96
:10061000DBB20B701A498854032B1ED0542B0DD912
:10062000154B00221A7009E0134B1B78012B06D0E2
:10063000124B00221A70104B01321A7010BDFFF7D6
:100640009BFFF5E70C4B1B78012B03D00A4B0022D4
:100650001A70F3E7FFF790FFF8E70B787F2B03D0D2
:10066000054B00221A70E9E74B78602BF8D18B78A4
:10067000072BF5D1E2E7C0462F0000203001002013
:100680005400002070B588B06946154B0A0031CB84
:1006900031C231CB31C211CB11C2124883685B0326
:1006A0005B0F9B005A58104B1A6083689BB20F492E
:1006B0000B6053430E4A13600E4B00221A600E4B20
:1006C0007A321A700D4C0E4D26002B681B694021A2
:1006D000200098470028F8D03078FFF78DFFF4E726
:1006E0003C0B000000400041E80000204C000020CE
:1006F000480000202C01002044000020EC000020D5
:100700003401002010B51E4B4A215A5C01242243BB
:100710005A543522985C3B3988439854985C02219E
:10072000084398544B20195C21431954995C3C3878
:1007300001409954995C202001439954114A136A4D
:1007400004210B431362104B104A5A801A0053784D
:100750005BB2002BFBDBC42292030D490D48FFF76F
:1007600093FC00230C4A13700C4A13700C4A13704C
:100770000C4A13700C4A13700C4A137010BDC0461B
:100780000044004100040040000C00400E40000006
:1007900055FD00000008004240010020CA01002071
:1007A0004101002044010020CB010020C8010020AD
:1007B00010B5C1B20248FFF793FC012010BDC0463E
:1007C00000080042024B187E4007C00F7047C04629
:1007D0000008004210B5FFF7F5FF0028FBD00248E3
:1007E000FFF784FC10BDC0460008004270B504004D
:1007F0000E1E06D045182078FFF7DAFF0134A54217
:10080000F9D1300070BD10B50400FFF7E3FF207090
:10081000012010BD0B0A43405B000902024A985AAE
:10082000484080B27047C046780B0000F0B5DE4605
:1008300057464E464546E0B583B001908B464C4B3B
:1008400000221A70002918D14A4B01321A70484C04
:100850000025FFF7BFFF2378002B1CD1C0B243282F
:1008600003D071287CD01528F3D101239946424B3F
:1008700098461C003F4B9A4662E03F4B19803D4B27
:1008800000221A700B005B06E1D00B0080337F3230
:1008900093439B46DBE7364B1D70FFF79BFFC0B2CF
:1008A000334B1B78002BDAD0314B00221A7000201A
:1008B00057E02F4B00221A70002052E00420FFF76F
:1008C00077FFFFF787FF2B4B00221A70012048E0CB
:1008D0003D78013B238001372800FFF769FF00992D
:1008E0002800FFF797FF0090013E002E08D04346F6
:1008F0001B88002BECD152461578002DECD0E7E791
:100900000500000AC0B2FFF753FFE8B2FFF750FF3F
:10091000FFF760FF164B1B78002BCAD1FF2318404E
:1009200006280AD14B460133DBB2994680235B424D
:100930009C46E344019B803301935B46002BBDD072
:100940000120FFF735FF4846FFF732FF4B46D843FB
:10095000C0B2FFF72DFF019F802600230093C6E75A
:10096000002003B03CBC90469946A246AB46F0BD81
:10097000C8010020C901002042010020F0B5D64680
:10098000474680B583B006000F1E2BD000240023FD
:100990000193194B9A46194B984608E0731C357021
:1009A0001E00802F18D00134A4B2A7421ED0FFF73A
:1009B00011FFC5B253461B78002B15D101992800B1
:1009C000FFF728FF019043461B88002BE6D10C4B14
:1009D0001B78002BE7D0E1E7084A1288013A074963
:1009E0000A80E0E7019101E001230193019803B03F
:1009F0000CBC90469A46F0BDC80100204201002080
:100A0000C9010020F0B585B005003E4B00221A70E8
:100A1000002904D13C4B01321A7064260AE03B4B9A
:100A20001980394B00221A70F7E7002C0ED1013ED5
:100A3000002E65D04320FFF7BBFE354CFFF7C2FE0A
:100A40000028F2D1002CF2D0013CF7E701242D4E12
:100A500041E02C4B00221A7000204BE0022103A839
:100A6000FFF78CFF80212800FFF788FF0190254BBE
:100A70001B78002B08D0234B1B78002B36D0214B42
:100A800000221A70002035E0FFF7A4FE0700FFF7F0
:100A9000A1FE1C4B1A78012AEDD03F02381880B213
:100AA000019B834203D103AB1B78A34203D01820E0
:100AB000FFF77EFEDFE7E34303AA5278DBB29A42F8
:100AC000F5D10620FFF774FE0E4B1B78002BD6D114
:100AD0000134E4B28035FFF77DFE3378002BB8D1C6
:100AE000FF2318400128B9D0042805D0064B002266
:100AF0001A70012005B0F0BD0620FFF759FEF5E79A
:100B00000020F7E7C8010020C901002042010020B1
:100B100000350C0003001218934200D17047197081
:100B20000133F9E7F8B5C046F8BC08BC9E467047EB
:100B3000F8B5C046F8BC08BC9E46704708000000E7
:100B400010000000200000004000000080000000B5
:100B5000000100000002000000040000B1070000D6
:100B6000D5070000C5070000ED07000007080000DA
:100B70002D080000050A000000002110422063300B
:100B80008440A550C660E770088129914AA16BB1E5
:100B90008CC1ADD1CEE1EFF131121002733252228D
:100BA000B5529442F772D662399318837BB35AA335
:100BB000BDD39CC3FFF3DEE362244334200401145D
:100BC000E664C774A44485546AA54BB52885099585
:100BD000EEE5CFF5ACC58DD553367226111630062D
:100BE000D776F6669556B4465BB77AA719973887D5
:100BF000DFF7FEE79DD7BCC7C448E5588668A778ED
:100C00004008611802282338CCC9EDD98EE9AFF924
:100C1000488969990AA92BB9F55AD44AB77A966ACC
:100C2000711A500A333A122AFDDBDCCBBFFB9EEB74
:100C3000799B588B3BBB1AABA66C877CE44CC55C9C
:100C4000222C033C600C411CAEED8FFDECCDCDDDC4
:100C50002AAD0BBD688D499D977EB66ED55EF44E6C
:100C6000133E322E511E700E9FFFBEEFDDDFFCCF14
:100C70001BBF3AAF599F788F8891A981CAB1EBA168
:100C80000CD12DC14EF16FE18010A100C230E320E4
:100C90000450254046706760B9839893FBA3DAB38C
:100CA0003DC31CD37FE35EF3B1029012F322D23234
:100CB0003542145277625672EAB5CBA5A89589855C
:100CC0006EF54FE52CD50DC5E234C324A014810484
:100CD0006674476424540544DBA7FAB79987B8972C
:100CE0005FE77EF71DC73CD7D326F2369106B016D4
:100CF00057667676154634564CD96DC90EF92FE9EC
:100D0000C899E9898AB9ABA9445865480678276823
:100D1000C018E1088238A3287DCB5CDB3FEB1EFBCB
:100D2000F98BD89BBBAB9ABB754A545A376A167A73
:100D3000F10AD01AB32A923A2EFD0FED6CDD4DCD9B
:100D4000AABD8BADE89DC98D267C076C645C454CC3
:100D5000A23C832CE01CC10C1FEF3EFF5DCF7CDF6B
:100D60009BAFBABFD98FF89F176E367E554E745E13
:0C0D7000932EB23ED10EF01E00000000D9
:100D7C00F07F600701F700006900000041000000EF
:0400000300000225D2
:00000001FF
