:10000000FC7F0020C1050000B1050000B50500001F
:1000100000000000000000000000000000000000E0
:10002000000000000000000000000000B905000012
:100030000000000000000000BD05000055070000A2
:1000400010B5064C2378002B07D1054B002B02D0AE
:10005000044800E000BF0123237010BD58000020B9
:100060000000000054170000044B10B5002B03D013
:100070000349044800E000BF10BDC0460000000076
:100080005C000020541700001B4B1B78002B0AD18A
:100090001A4B1B781A4A11785B18DBB21370194B94
:1000A00080229202DA61144A13780133DBB21370B2
:1000B000134B1B78DBB2F02B04D8114B1B78DBB24F
:1000C000092B0BD80D4A13785BB25B425BB21370FD
:1000D00013780B4A11785B18DBB21370064B1B7850
:1000E000074A1278DBB2934200D07047054B80225A
:1000F0009202DA61F9E7C046740000200000002097
:100100000100002000440041F8B5040003689A8B08
:10011000120707D40822FF329B5CDB062FD500F0C4
:100120005DFB2CE008229A8378329A728021490084
:100130001120585440260621FF315E5482256D005F
:100140005A55104A5168104F3940C020800501436C
:10015000516051693940084350610C4911600C49A4
:10016000116151680B4808408021890201435160A8
:100170005168890B890351605E55002323712079F2
:10018000F8BDC04690010020FFFFFF8F90000020C7
:1001900010010020FF3F00F0016000230371437154
:1001A000034B83600B78022213430B707047C046E9
:1001B0000901000010B5394AD36920210B43D361EE
:1001C000374B38315A5C012422435A543C22985C04
:1001D000493988439854985C06210843985459201B
:1001E000195C21431954995C4A3801409954995C2F
:1001F0006020014399542B4B2B4A5A801A005378A4
:100200005BB2002BFBDB294A137801210B431370EF
:100210009378DB07FCD4264B1B689B03DB0E1F2B5C
:1002200036D022490A8D9B012248024013430B8598
:100230001F4B1B685B02DB0E1F2B2BD01B490A8D4B
:100240001F20824313430B85194B1A689201520FEA
:10025000072A21D0154B198D1203174801400A4374
:100260001A8519787F220A401A701A7804210A43E5
:100270001A70124858621A890C218A431A811A8905
:100280000B398A431A818022002101F0ECF810BD5D
:100290001A3BC6E7023BD1E7043ADBE70004004023
:1002A00000440041000C00400640000000500041A6
:1002B000246080003FF8FFFFFF8FFFFF90010020C8
:1002C000F0B5C64600B5050016001C0098465A0158
:1002D000214B9B1810335B685B005B0F03330122DB
:1002E0009A40B2422BD862011B4B9B18586980225E
:1002F000120602435A616201174B9B181A001961DA
:100300005B69B104890C9B0B9B030B4353615369DD
:1003100012490B405361083464012C190223E37124
:100320006279823B134363714046083040012818CC
:10033000C3799B07FCD5300004BC9046F0BD270074
:100340007B1E9F41BF01064BFF183200380001F0B1
:1003500081F83900CFE7C04690010020FF3F00F050
:100360001001002070B505000E0014001B4B1B7817
:10037000002B14D11A4B1B4A1A645A6C920B92032D
:100380005A645A6C18490A405A64A2225200835C8B
:1003900040210B438354114B443AFF3A1A704823CF
:1003A000FF33EB5C0020DB0716D50D4B5B6C9B0429
:1003B0009B0CA34203D20A4B5C6CA404A40C220045
:1003C0000849300001F046F84823FF330122EA547F
:1003D000024B00221A70200070BDC046750000203C
:1003E00090010020D0000020FF3F00F0002906D13E
:1003F0000622FF32835C10210B4383547047062290
:10040000FF32835C20210B438354F7E70A4A536988
:100410009B0B9B0353610823FF330222C254062225
:10042000FF32815C883BFF3B0B4383540822FF3241
:10043000835C9B07FCD570479001002080235B42C2
:100440001943C9B28172704770B5A0235B000322C3
:10045000C254134B5A6C134C2240C02189050A43E5
:100460005A6440254622FF3285540F4A1A6490226E
:100470005200302686545A6B224011435963802122
:10048000922252008154094A1A63B02252008554C4
:100490005A6F22405A67B2235B00C15470BDC046F8
:1004A00090010020FFFFFF8FD000002050010020AE
:1004B000024A53785BB2002BFBDB7047000C004014
:1004C00002491022CB681A42FCD070470008004055
:1004D00070B52C4A53681E218B431C390B43536063
:1004E000294B2A4A9A829A8A0A439A82190002223E
:1004F000CB681A42FCD0264C0123A360FFF7D8FF3B
:10050000244B6360FFF7D4FF8223DB016380FFF796
:10051000CFFF1D4CA38C80229343A384FFF7D0FF11
:100520001D4BE362FFF7CCFFA38C1C4A1343A3844B
:10053000FFF7C6FFA38C02221343A384220080216D
:100540004020D3681942FCD0D3681842F9D0FFF795
:10055000B7FF0F4D0024AC60FFF7AAFF104B6B6094
:10056000FFF7A6FF0F4A104B53601048036A1B02A7
:100570001B0AC02109060B43036294600723136022
:1005800070BDC04600400041000800400C0600005D
:10059000000C004001050100B805FF7D040A0000C1
:1005A0000007030010E000E0E703000000ED00E0BA
:1005B0000EBEFEE70DBEFEE705BEFEE702BEFEE78D
:1005C00010B5164A164B9A4215D0164A134B9A424A
:1005D00011D01A00124B9A420DD20333124A9B1AC1
:1005E0009B0801339B0000220C480E498C58845014
:1005F00004329A42FAD10D4A0D4B9A420AD009D2DE
:10060000111D03335B1A032083435B18002102C2D0
:100610009A42FCD100F024F8FEE7C046000000201A
:100620005800002058170000040000205800002047
:100630009402002080B500AF064B1A6882F3088848
:10064000FF229343044A9360044B1B681B681847BE
:10065000BD4680BD0020000000ED00E0100200203B
:1006600070B52F4B1B68013319D02E4B2E4A1360E7
:10067000FF22043B134212D12C4A3823D35CDB0700
:1006800005D52B4B00221A60FFF7D4FF07E0284B5B
:100690001A68284B9A4224D1254B00221A60FFF792
:1006A00017FF62B6244B082288215A5010315A5045
:1006B000224B1B78002B1FD100F052F80400204A77
:1006C000204B53602048036A1B021B0AC021090605
:1006D0000B430362002393600733136001261B4D15
:1006E00010E0134B134A1A60194B013B002BFCD14D
:1006F0000F4B00221A60C7E7FFF79CFFDCE72B785F
:10070000002B07D12000A36898470028F7D00F4B93
:100710001E70F4E7002000F01FFB00F0A9FBFCE7CF
:10072000002000000420000010020020000400400F
:10073000FC7F0020358173070044004176000020D3
:1007400010E000E0E703000000ED00E0770000208B
:1007500048E8010010B5FFF797FC00F061FB10BD01
:1007600010B5054C054B2360FFF724FD21682000E0
:10077000FFF712FD200010BD1402002000500041C0
:1007800070B5C0B005000C001600080000F073FE44
:10079000400002306B46187003236A46537023787A
:1007A000002B17D07608012E16DD01226946023192
:1007B0000134881C0B8001322378002B02D0010009
:1007C000B242F5DB5200002369462800FFF778FDAE
:1007D00040B070BD0122F5E70122F3E7F0B583B028
:1007E000050004680823FF331022E254B84B1A783E
:1007F000B84802705A78B84E32709978B74A11806A
:100800001188DF783F02394311801979B44A118089
:1008100011885F793F02394311809979B14A11807B
:100820001188DB791B020B43138082235B0040227B
:10083000E254337802781B021343AB4A934200D14F
:100840001EE125DC80225200934255D012DD812228
:100850005200934200D172E100DA6CE1FF32FF32C4
:10086000934200D107E1A14A93420CD12000FFF747
:10087000CDFD3CE0812B00D1BFE0822B00D1C4E054
:10088000802B00D1B1E001212000FFF7AFFD2EE069
:1008900090221201934200D196E012DD944A9342D5
:1008A00000D1B7E125DD934A934200D1B6E1924AE7
:1008B0009342E8D1894B1B886B712000FFF7A6FD9E
:1008C00015E0D022D20093421BD08822120193421D
:1008D00000D183E0A022D2009342D4D12000FFF7C0
:1008E00095FD7E4B198889B22868FFF7A7FD03B0F4
:1008F000F0BD824A9342C6D101212000FFF776FD68
:10090000F5E7764B1B881B0A012B18D0734B1B880D
:100910001B0A022B22D0714B1B881B0A032B4ED1C2
:100920006E4B1B88FF221340012B38D0002B24D0A4
:10093000022B3CD001212000FFF758FDD7E72868A3
:10094000684B1B889BB21222122B02D8654B1A8867
:1009500092B200236A49FFF7B3FCC8E72868614BED
:100960001B889BB24322432B02D85E4B1A8892B25B
:1009700000236449FFF7A4FCB9E7634B1B680193AC
:100980002868584B1B889BB20422042B02D8554B75
:100990001A8892B2002301A9FFF792FCA7E7514BF6
:1009A0001A88D2B228685949FFF7EAFE9FE74D4BF3
:1009B0001A88D2B228685649FFF7E2FE97E701216C
:1009C0002000FFF713FD92E7444B1B882B7120009A
:1009D000FFF71CFD2000FFF737FD88E7291D286879
:1009E00000230122FFF76CFC81E74A4900230B80BA
:1009F00028680222FFF764FC79E7464900230B8050
:100A000028680222FFF75CFC71E7424B00221A8043
:100A1000334B1A8850210A403F490A701A880F2127
:100A20000A401A801B889BB2032B1FD83A4B1B78B5
:100A3000002B10D02A4B1B8808335B01E418A379E4
:100A40009B06DB0F334A13802868002302223149BA
:100A5000FFF736FC4BE7224B1B8808335B01E41899
:100A6000A379DB06DB0F2B4A1380EDE70121200081
:100A7000FFF7BCFC3BE701212000FFF7B7FC36E79E
:100A8000174B1A8880210A4023490A701A880F21BF
:100A90000A401A80114B1B889BB2002B46D1104B89
:100AA0001B889BB2002B41D00D4B1B889BB2032BA4
:100AB0003CD8194B1B78002B30D0094B1B880833CE
:100AC0005B01E31820225A712000FFF79FFC0EE71C
:100AD0009000002079000020780000208200002093
:100AE0007C0000207E0000200203000001030000C3
:100AF00021200000A121000021220000010B0000A4
:100B0000A0140000040000209C140000B414000095
:100B1000BC140000800000207A000020474B1B8896
:100B200008335B01E31810225A71CDE70121200040
:100B3000FFF75CFCDBE62000FFF768FCD7E63F4BE5
:100B40001A8880210A403E490A701A880F210A40FB
:100B50001A803C4B1B889BB2002B56D1374B1B880D
:100B60009BB2002B51D0354B1B889BB2032B4CD82A
:100B7000334B1B78002B25D0304B1B8808335B018F
:100B8000E3189B799B0619D52C4A138808335B011F
:100B9000E31811311971138808335B01E318DB790D
:100BA0005B060BD5138808335B01E3182031D9713C
:100BB000138808335B01E31802221A712000FFF743
:100BC00025FC94E61D4B1B8808335B01E3189B79D9
:100BD000DB06F3D5194A138808335B01E3181021AB
:100BE0001971138808335B01E318DB799B06E5D59F
:100BF000138808335B01E3181031D9711388083367
:100C00005B01E31801221A71D8E701212000FFF7E8
:100C1000EDFB6CE62000FFF7F9FB68E628680A4B5D
:100C20001B889BB20822082B02D8074B1A8892B265
:100C300000230649FFF744FB59E6C0467C0000202C
:100C40007A000020820000207E0000204800002062
:100C500000B583B00190054B18680123012201A95A
:100C6000FFF72EFB012003B000BDC0461402002098
:100C700010B582B06B46DC1D044B186801222100C0
:100C8000FFF770FB207802B010BDC04614020020B0
:100C900010B50748FFF738FA03000020002B06D0F4
:100CA000034B1A684823FF33D05CC007C00F10BD48
:100CB0001402002070B505000C00044B18680123D5
:100CC0000A002900FFF7FCFA200070BD1402002082
:100CD00070B504000D000848FFF716FA002300283D
:100CE00001D1180070BD044B18682A002100FFF7DD
:100CF00039FB0300F5E7C04614020020F8B50500F3
:100D00000E000B48FFF700FA00280DD0002E0CD083
:100D10003400074F220029003868FFF723FB241A0C
:100D20002D18002CF6D100E000263000F8BDC0469A
:100D30001402002010B50C00C36811002000984771
:100D4000034B802212055A61024B64221A8010BDA7
:100D5000004400418C000020002802D1014B024ACF
:100D60001A6070478402002038150000F0B585B085
:100D7000214B1B78002B37D0042908D002290FD033
:100D800004784E001CD004AB98190B3804E00468BA
:100D90004E0004AB98190B3800250F22302708E0CD
:100DA0000488F5E737330370240901380135B5426B
:100DB00006D213002340092BF4D83B430370F3E71A
:100DC00001AB30221A7048325A704A1C52000A2174
:100DD00099549E190331F1700232084908681900CC
:100DE000FFF7A8FF05B0F0BD044B1B680A00010027
:100DF0001800FFF79FFFF5E7850000208402002020
:100E000080B500AF72B6EFF30883044A136003683D
:100E100083F3088843681847BD4680BD88020020D8
:100E2000104B1B889BB2002B0AD00E4A1388013B43
:100E30009BB21380002B03D10B4B802212059A61C9
:100E40000A4B1B889BB2002B0AD0084A1388013B2F
:100E50009BB21380002B03D1034A98330821D15051
:100E60007047C0468C0000200044004186000020EE
:100E7000F0B5DE4657464E464546E0B58DB000AF6C
:100E800008230822BA18D118CF4B0A0031CB31C23F
:100E900031CB31C211CB11C2CC4883685B035B0FED
:100EA0009B005A58CA4B1A6083689BB2C9490B60B1
:100EB0005343C94A1360C94B00221A60C84B7A32A7
:100EC0001A7078E2C74B1B78002B4BD1C44B1B78B0
:100ED000532B4ED0522B00D1BEE04F2B00D1CBE094
:100EE000482B00D1CEE0572B00D1D1E06F2B00D1A1
:100EF000D4E0682B00D1D7E0772B00D1DDE0472B81
:100F000000D1E3E0542B00D1F4E04E2B00D1FBE004
:100F1000562B00D107E1582B00D191E1592B00D17C
:100F2000ABE15A2B59D1B04B1E68AC4B1B68002E5D
:100F300000D1EFE11A009E1900237B6015001078A4
:100F4000796800F07BFA78606B1C1A00B342F5D127
:100F5000A64B18680122A649FFF7ECFE7B68072222
:100F60000F26DFE1A14B18680222A249FFF7E2FE3B
:100F7000ACE7A14B1A68A14B1B689A421ED9A04846
:100F800001680131016001339C480360D31A964A1D
:100F9000126893424CD29B4A1360904B1868994E4A
:100FA000326800F057FA336894490A68D2180A6028
:100FB00093490A68D2180A60934A13708F4A1368DB
:100FC000013B13608E4A1368013B13608E4B1B7804
:100FD000854A11688B422ED3C046814B7A221A7003
:100FE000814B00221A607F4B1B78002B00D0AEE1B2
:100FF000824A13680133136081490A6801320A602A
:101000007D4A1268934200D3D5E123681B78FF2BF9
:10101000EED0232B00D155E71A00303A092A00D927
:101020009CE171490A681201303B13430B60DFE712
:10103000744B1A60B1E7C91A684B18686B4B1B6890
:101040009B6998470028C7D0704A94230821D15043
:101050006F4B64221A80BFE7634B19685F4B1868B7
:10106000624B1B685B699847684B802212055A6186
:10107000684B64221A80B0E7584B1B685A4A1268C2
:101080001A70AAE7554B1B68574A12681A80A4E7E2
:10109000524B1B68544A12681A609EE74F4B1868FF
:1010A0000121FFF763FE98E74F484C4B1B681B88F4
:1010B00003600221FFF75AFE8FE7484B1B681B684D
:1010C000494803600421FFF751FE86E7464B186844
:1010D000FFF796FE504B1B6883F3088862B64F4BB0
:1010E0001B78002B00D178E7404B1B681B6806205B
:1010F000984772E73B4B01221A703C4B186801324B
:101100003C49FFF717FE68E7364B1B78002B03D0EE
:10111000344B00221A7060E7344B186802223549BC
:10112000FFF708FEF4E7314E01223D493068FFF732
:1011300001FE03223B493068FFF7FCFD01223A49DA
:101140003068FFF7F7FD0D2238493068FFF7F2FDF0
:10115000306801223449FFF7EDFD284B00221A6068
:10116000274B334A1A602548190003685A1C02604D
:101170000B685E1C0E601B78002BF6D11B4E2D49B0
:101180003068FFF7D7FD306801222749FFF7D2FD0D
:101190001A4B00221A601A4B274A1A601748190086
:1011A00003685A1C02600B685E1C0E601B78002BE3
:1011B000F6D10E4E21493068FFF7BCFD306802229F
:1011C0000C49FFF7B7FD08E7CC14000000400041D0
:1011D0003C02002034020020300200208002002067
:1011E0002C020020850000208C02002084020020B8
:1011F0002C150000001500002402002038020020F9
:10120000280200209002002020020020004400411B
:10121000860000208C00002088020020840000202E
:1012200004150000FC14000008150000EC14000078
:101230000D1500000C150000191500001815000010
:10124000694B1968694B1B6899420FD2684A694E0D
:1012500066484B08D361684B1380137DDB07FCD5D0
:1012600033689B00C91803689942F2D3634B18682E
:1012700003226349FFF75EFDAFE65B4B1E68002E5D
:101280000AD1604B1A68604B1A605C4B18680322E5
:101290005E49FFF74FFDA0E6B6085B4B1B689C4616
:1012A000584B1B689B46524A536880218B435360BE
:1012B000002EEAD01000564B9A464E4B9946554B9D
:1012C00098460AE0002342460280027DD207FCD500
:1012D0009A0093449444F61AD7D053460380037D72
:1012E000DB07FCD54B461B68032BEBD9002E0FD038
:1012F000002100235A4665466D58555001333D4A3A
:10130000126892089342DED20431B342F2D1DAE796
:101310003300D8E700237B601AE608217918885447
:10132000013A09D3310019401B090800303009295E
:10133000F3DD37310800F0E7304E08223068FFF760
:10134000F9FC306803223449FFF7F4FC45E62B4BE7
:10135000186801323149FFF7EDFC49E61A00413ABD
:10136000052A06D820490A681201373B13430B604F
:101370003EE61A00613A052A06D81B490A6812019E
:10138000573B13430B6033E62C2B05D0244A1370D4
:10139000154B00221A602BE6134B1A4A196811608C
:1013A00000221A6024E600231E4A13601E4A1F49C9
:1013B00011601F4A1360114B1B681B6940211B48B9
:1013C00098470028EFD01B4A94230821D1501A4B8C
:1013D00064221A80134B1860134B144A1A60144B82
:1013E00000221A60104C10E68C020020300200200F
:1013F000004000413C02002002A5FFFF84020020C3
:10140000241500008002002088000020281500001C
:1014100044A5FFFF04A5FFFF3015000034150000B0
:101420002C0200202402002028020020400200207C
:101430003802002000440041860000200B0A43408F
:101440005B000902024A985A484080B27047C04681
:1014500054150000002310B59A4200D110BDCC5C99
:10146000C4540133F8E703001218934200D17047C7
:1014700019700133F9E70023C25C0133002AFBD164
:10148000581E7047F8B5C046F8BC08BC9E46704769
:10149000F8B5C046F8BC08BC9E4670470403090472
:1014A000120100020200004041231130000201023B
:1014B000000100005961656C746578005961656CC4
:1014C000746578204B696C6F6D75780008000000BA
:1014D000100000002000000040000000800000001C
:1014E0000001000000020000000400005B41726483
:1014F00075696E6F3A58595A5D000000322E3000FF
:101500000A0D000076000000200000004465632002
:10151000313320323031390031383A35343A3339C9
:1015200000000000580A0D00590A0D005A00000082
:10153000230A0D003E000000510C0000710C000059
:10154000910C0000B50C0000D10C0000B50C00009F
:10155000FD0C000000002110422063308440A550A3
:10156000C660E770088129914AA16BB18CC1ADD1E9
:10157000CEE1EFF13112100273325222B552944291
:10158000F772D662399318837BB35AA3BDD39CC339
:10159000FFF3DEE36224433420040114E664C774DD
:1015A000A44485546AA54BB528850995EEE5CFF589
:1015B000ACC58DD55336722611163006D776F66631
:1015C0009556B4465BB77AA719973887DFF7FEE7D9
:1015D0009DD7BCC7C448E5588668A77840086118FD
:1015E00002282338CCC9EDD98EE9AFF94889699929
:1015F0000AA92BB9F55AD44AB77A966A711A500AD1
:10160000333A122AFDDBDCCBBFFB9EEB799B588B78
:101610003BBB1AABA66C877CE44CC55C222C033C1C
:10162000600C411CAEED8FFDECCDCDDD2AAD0BBDC8
:10163000688D499D977EB66ED55EF44E133E322E70
:10164000511E700E9FFFBEEFDDDFFCCF1BBF3AAF18
:10165000599F788F8891A981CAB1EBA10CD12DC176
:101660004EF16FE18010A100C230E320045025400C
:1016700046706760B9839893FBA3DAB33DC31CD36C
:101680007FE35EF3B1029012F322D232354214525C
:1016900077625672EAB5CBA5A89589856EF54FE5B8
:1016A0002CD50DC5E234C324A014810466744764AC
:1016B00024540544DBA7FAB79987B8975FE77EF70C
:1016C0001DC73CD7D326F2369106B01657667676FC
:1016D000154634564CD96DC90EF92FE9C899E989D8
:1016E0008AB9ABA94458654806782768C018E1084C
:1016F0008238A3287DCB5CDB3FEB1EFBF98BD89BAC
:10170000BBAB9ABB754A545A376A167AF10AD01A9B
:10171000B32A923A2EFD0FED6CDD4DCDAABD8BADF7
:10172000E89DC98D267C076C645C454CA23C832CEB
:10173000E01CC10C1FEF3EFF5DCF7CDF9BAFBABF4B
:10174000D98FF89F176E367E554E745E932EB23E3B
:08175000D10EF01E00000000A4
:10175800011400000902430002010080320904005C
:101768000001020200000524001001042402000503
:10177800240600010524010001070583030800FF72
:1017880009040100020A0000000705810240000068
:10179800070502024000000000C201000000080026
:0817A80069000000410000008F
:04000003000005C133
:00000001FF
