:10000000FC7F00203D0900002D090000310900009F
:1000100000000000000000000000000000000000E0
:100020000000000000000000000000003509000092
:100030000000000000000000390900000D0B000066
:1000400010B5064C2378002B07D1054B002B02D0AE
:10005000044800E000BF0123237010BD70000020A1
:1000600000000000001D0000044B10B5002B03D061
:100070000349044800E000BF10BDC0460000000076
:1000800074000020001D00001B4B1B78002B0AD1C0
:100090001A4B1B781A4A11785B18DBB21370194B94
:1000A00080229202DA61144A13780133DBB21370B2
:1000B000134B1B78DBB2F02B04D8114B1B78DBB24F
:1000C000092B0BD80D4A13785BB25B425BB21370FD
:1000D00013780B4A11785B18DBB21370064B1B7850
:1000E000074A1278DBB2934200D07047054B80225A
:1000F0009202DA61F9E7C0468C000020000000207F
:100100000100002000440041F8B504000F00150074
:100110000B1C802900D980239EB2502000F086FA63
:10012000200A00F02BFBE0B200F028FB002F07D0E4
:100130002C00AD19207800F021FB0134AC42F9D13C
:10014000012000F07DFAF8BD70B5040016000D1C0A
:10015000802900D98025ADB2502000F067FA200A2E
:1001600000F00CFBE0B200F009FB012000F068FA9F
:10017000E9B20122502000F0B7F9002D07DD00247C
:10018000E0B200F007FB30550134AC42F8DB002050
:1001900070BD0000F8B504000F001E00042831D81F
:1001A00052B21C4B1A54002A04DB012393401A4A12
:1001B000936053617D007D19ADB26300174A9D5273
:1001C000280001F0B1FBA300154A985000281AD06E
:1001D0002A00002101F0BBFB6300124A9F52320942
:1001E00003231A4010490A55B2081A400F490A550C
:1001F00033400F4A13550F4B01221A550E4A1378FC
:1002000001331370F8BD6300002204495A520549B6
:100210005A52E4E71401002000440041E8000020A5
:10022000D0000020240100201C010020F400002048
:100230000C010020FC000020F2000020F0B5042892
:1002400000D965E08300334A9B58002B00D15FE062
:10025000314B1B5C002B00D15AE072B62F4B1B5662
:1002600001229A4081002B4BCB5840002C49465A22
:100270009E19591C187880232A4D2B4C80271AE090
:100280002260C046C046C046C046C046C046C046C2
:10029000C046C046C046C046C046C046C046C0462E
:1002A000C046C046C046C046C04624E0B1422ED239
:1002B000087801313B002A60C046C046C046C046AF
:1002C000C046C046C046C0460342D9D0C046C0461C
:1002D000C046C046C046C046C046C046C046C046EE
:1002E000C046C046C046C046C046C046C046C046DE
:1002F000C046C04622605B08D8D0C046C046C04653
:10030000C046C046C046C046C046C046D3E762B6F7
:10031000F0BDC046D0000020FC00002014010020E9
:10032000E8000020184400411444004170B504ACBA
:100330002478042821D8114D2D5C002D1DD04500B6
:100340000F4EAD5B8D4218D90E4D2D5C002D05D0A2
:100350006A43120A6B431B0A6C43240A86004D0051
:100360006D18094971584919084D2D5C4A55084ABC
:10037000125C8B54074B1B5CCC5470BDFC000020FE
:100380002401002004010020D00000201C010020D6
:10039000F40000200C010020F8B5040004282FD838
:1003A00005001B4B1B5C002B2AD04E1CF6B2194BD0
:1003B0001B5CB34224D0820017481758013BDBB2C4
:1003C0000020002B07D0FF291BD030020138190074
:1003D00001F0BEF980B26300104A9B5A002B0DD089
:1003E000390000220D4F6D000B7843431B120B7038
:1003F000013292B20131EB5B9342F5D8054B1E55A9
:10040000F8BD1900064801F0A3F980B2E3E7C04641
:10041000FC00002004010020D0000020E8000020A3
:10042000FFFF000010B52A4B2A4A5A801A00537861
:100430005BB2002BFBDB284A136A20210B431362BB
:10044000264A13681F390B4313601368DB07FCD47B
:10045000D369DB07F9D4214C1423236041002048E1
:1004600001F0ECF8431EE068FF221340904318436C
:10047000E0602368FD3A134323602200D3699B07A1
:10048000FCD4164A538B30218B4310210B435383EA
:10049000D3695B07FCD4134B56215A5C01242243D9
:1004A0005A543B22985C473988439854985C0221FF
:1004B000084398545720195C21431954995C4838D3
:1004C00001409954995C20200143995410BDC046C5
:1004D000000C0040174000000004004000140042DF
:1004E000006CDC0200440041F0B5CE46474680B5C2
:1004F000002904D108000CBC90469946F0BD444B3D
:1005000000241C70400001231843C5B2414C4248EE
:10051000438B9B069B0F012B08D0438B9B069B0FA5
:10052000022B03D0013CA31CF2D114E03A4B586AD1
:10053000C00AC00228435862187E80070DD4002CE0
:1005400009DB187E013CC007F6D5334A5168C02349
:100550009B020B4353600021CCE72F4B5B8B5B0767
:1005600053D42B4B012018702B48037E9B07FCD5DE
:1005700029482823C05C294B1870012943D9012040
:10058000254D274B9946274B984680239B029C4636
:100590002827224E09E0441CE4B22B7E9B07FCD5A1
:1005A000EB5D335420008C4211D06B684C462340E5
:1005B0006B606B6844462340644623436B601A4B70
:1005C000EC696407E7D5013B002BF9D1E3E7104B59
:1005D00019702100104844688023DB0223434360E4
:1005E000002A00D186E702004068C0239B02034333
:1005F00053600D4B1000C269520700D47AE7013BEB
:10060000002BF8D176E70121E4E7002172E7C0462C
:10061000A000002050C30000001400429000002001
:10062000FFFFFBFFFFFFFCFF52C30000024B1870EF
:10063000024B00221A707047A1000020B400002075
:10064000F0B583B00190474B1B785B00DCB2464AA3
:100650004648438B9B069B0F012B08D0438B9B0680
:100660009B0F022B03D0013A931CF2D10BE03F48C1
:10067000436ADB0ADB0223434362037EDB0712D4B7
:10068000013A531CF9D5394A5168C0239B020B43E8
:100690005360374B1100CA6952072FD5013B002B1D
:1006A000F9D102202BE0314B5B8B5B07EBD4314B54
:1006B0001C78002C39D0304D00272C4A28210126E7
:1006C0002B7853542A4B107EC00722D4013B002BB9
:1006D00017D0508BC007F6D5002F17D1234A516889
:1006E000C0239B020B435360214B1100CA69520780
:1006F00034D5013B002BF9D1032000E0022003B0E8
:10070000F0BD002FEAD01B4B1C70E7E7194B1C70A3
:10071000E4E7538B5B071CD4013CE4B2013537009E
:10072000002CCDD1134B00221A700020019B002B0E
:10073000E5D00E4A5168C0239B020B4353600C4B1B
:100740001100CA6952070BD5013B002BF9D10020DB
:10075000D5E7002FC2D0074B1C70BFE70320CEE7C0
:100760000020CCE7A100002050C30000001400428C
:1007700052C30000B4000020A4000020034A1378F4
:10078000591C1170024AD05401207047B400002057
:10079000A4000020014B185C7047C0469000002068
:1007A00010B5C3699B07FCD403680224A34303600C
:1007B000C369DB07FCD40368012423430360036897
:1007C000DB07FCD4C369DB07FCD4C3699B07F9D4FE
:1007D000084B1A430260C3695B07FCD4C0239B0229
:1007E00043608181C3699B07FCD4036802221343E1
:1007F000036010BD04000040037EDB07FCD589B216
:1008000001857047037E5B07FCD5438BDB0705D46E
:10081000438B9B0702D4438B5B0702D5024B01221B
:100820001A70008DC0B27047B5000020024A53789C
:100830005BB2002BFBDB7047000C0040024910222A
:10084000CB681A42FCD070470008004070B52C4AB3
:1008500053681E218B431C390B435360294B2A4A92
:100860009A829A8A0A439A8219000222CB681A4213
:10087000FCD0264C0123A360FFF7D8FF244B636014
:10088000FFF7D4FF8223DB016380FFF7CFFF1D4C0E
:10089000A38C80229343A384FFF7D0FF1D4BE36218
:1008A000FFF7CCFFA38C1C4A1343A384FFF7C6FFBA
:1008B000A38C02221343A384220080214020D3680A
:1008C0001942FCD0D3681842F9D0FFF7B7FF0F4D9B
:1008D0000024AC60FFF7AAFF104B6B60FFF7A6FF88
:1008E0000F4A104B53601048036A1B021B0AC021B9
:1008F00009060B43036294600723136070BDC04672
:1009000000400041000800400C060000000C0040C0
:1009100001050100B805FF7D040A0000000703007F
:1009200010E000E0E703000000ED00E00EBEFEE78F
:100930000DBEFEE705BEFEE702BEFEE710B5164A95
:10094000164B9A4215D0164A134B9A4211D01A00F0
:10095000124B9A420DD20333124A9B1A9B08013361
:100960009B0000220C480E498C58845004329A4255
:10097000FAD10D4A0D4B9A420AD009D2111D033308
:100980005B1A032083435B18002102C29A42FCD108
:1009900000F00EF8FEE7C0460000002070000020C6
:1009A000041D00000400002070000020B802002098
:1009B00090B585B002AF484B1B6801331AD0474B46
:1009C000474A1360FF22043B134213D1454A3823A0
:1009D000D35CDB0706D5444B00221A60434B01224F
:1009E0001A7007E0404B1A68414B9A4248D13E4B7F
:1009F00000221A60FFF72AFF62B63E4B08228821C8
:100A00005A5010315A503C48FFF70CFD52231B221C
:100A100001210020FFF7BEFB40210020FFF7BCFCB6
:100A2000002300932A2200210020FFF77FFC0020F2
:100A3000FFF704FCFC1D4E23FB71220001211F2047
:100A4000FFF782FBFB79592B25D0284B1B78002B15
:100A500034D100F0EBFB294A294B53602948036A43
:100A60001B021B0AC02109060B430362002393608B
:100A700007331360012000F061F800F0F1F8FCE7A3
:100A8000194B1B4A1A60204B013B002BFCD1164B23
:100A900000221A60A2E7002400942F3B22002100CC
:100AA0002000FFF743FC2000FFF7C8FBFA1D4E2390
:100AB000137001211F20FFF727FBCAE7064B1A68B6
:100AC00082F30888FF2293430E4A9360044B1B680D
:100AD0001B681847BDE7C046004000000440000006
:100AE0003001002000040040FC7F0020B600002000
:100AF0003581730700440041801A060010E000E0D1
:100B0000E703000000ED00E048E8010010B5FFF742
:100B1000BBFA00F07DF810BD10B50C00C3681100E1
:100B200020009847034B802212055A61024B642231
:100B30001A8010BD00440041C0000020012800D0F0
:100B40007047034B034A1A60034B01221A70F7E700
:100B500098010020E41A0000B7000020F0B585B02D
:100B6000214B1B78002B37D0042908D002290FD045
:100B700004784E001CD004AB98190B3804E00468CC
:100B80004E0004AB98190B3800250F22302708E0DF
:100B90000488F5E737330370240901380135B5427D
:100BA00006D213002340092BF4D83B430370F3E72C
:100BB00001AB30221A7048325A704A1C52000A2186
:100BC00099549E190331F1700232084908681900DE
:100BD000FFF7A2FF05B0F0BD044B1B680A0001003F
:100BE0001800FFF799FFF5E7B800002098010020F2
:100BF00080B500AF72B6EFF30883044A1360036850
:100C000083F3088843681847BD4680BD9C010020D7
:100C1000104B1B889BB2002B0AD00E4A1388013B55
:100C20009BB21380002B03D10B4B802212059A61DB
:100C30000A4B1B889BB2002B0AD0084A1388013B41
:100C40009BB21380002B03D1034A98330821D15063
:100C50007047C046C000002000440041BA00002098
:100C6000F0B5DE4657464E464546E0B58DB000AF7E
:100C700008230822BA18D118CF4B0A0031CB31C251
:100C800031CB31C211CB11C2CC4883685B035B0FFF
:100C90009B005A58CA4B1A6083689BB2C9490B60C3
:100CA0005343C94A1360C94B00221A60C84B7A32B9
:100CB0001A7078E2C74B1B78002B4BD1C44B1B78C2
:100CC000532B4ED0522B00D1BEE04F2B00D1CBE0A6
:100CD000482B00D1CEE0572B00D1D1E06F2B00D1B3
:100CE000D4E0682B00D1D7E0772B00D1DDE0472B93
:100CF00000D1E3E0542B00D1F4E04E2B00D1FBE017
:100D0000562B00D107E1582B00D191E1592B00D18E
:100D1000ABE15A2B59D1B04B1E68AC4B1B68002E6F
:100D200000D1EFE11A009E1900237B6015001078B6
:100D3000796800F003FB78606B1C1A00B342F5D1B0
:100D4000A64B18680122A649FFF7E6FE7B6807223A
:100D50000F26DFE1A14B18680222A249FFF7DCFE53
:100D6000ACE7A14B1A68A14B1B689A421ED9A04858
:100D700001680131016001339C480360D31A964A2F
:100D8000126893424CD29B4A1360904B1868994E5C
:100D9000326800F0D3FD336894490A68D2180A60BB
:100DA00093490A68D2180A60934A13708F4A1368ED
:100DB000013B13608E4A1368013B13608E4B1B7816
:100DC000854A11688B422ED3C046814B7A221A7015
:100DD000814B00221A607F4B1B78002B00D0AEE1C4
:100DE000824A13680133136081490A6801320A603C
:100DF0007D4A1268934200D3D5E123681B78FF2B0C
:100E0000EED0232B00D155E71A00303A092A00D939
:100E10009CE171490A681201303B13430B60DFE724
:100E2000744B1A60B1E7C91A684B18686B4B1B68A2
:100E30009B6998470028C7D0704A94230821D15055
:100E40006F4B64221A80BFE7634B19685F4B1868C9
:100E5000624B1B685B699847684B802212055A6198
:100E6000684B64221A80B0E7584B1B685A4A1268D4
:100E70001A70AAE7554B1B68574A12681A80A4E7F4
:100E8000524B1B68544A12681A609EE74F4B186811
:100E90000121FFF763FE98E74F484C4B1B681B8806
:100EA00003600221FFF75AFE8FE7484B1B681B685F
:100EB000494803600421FFF751FE86E7464B186856
:100EC000FFF796FE504B1B6883F3088862B64F4BC2
:100ED0001B78002B00D178E7404B1B681B6806206D
:100EE000984772E73B4B01221A703C4B186801325D
:100EF0003C49FFF711FE68E7364B1B78002B03D007
:100F0000344B00221A7060E7344B186802223549CE
:100F1000FFF702FEF4E7314E01223D493068FFF74A
:100F2000FBFD03223B493068FFF7F6FD01223A49F9
:100F30003068FFF7F1FD0D2238493068FFF7ECFD0E
:100F4000306801223449FFF7E7FD284B00221A6080
:100F5000274B334A1A602548190003685A1C02605F
:100F60000B685E1C0E601B78002BF6D11B4E2D49C2
:100F70003068FFF7D1FD306801222749FFF7CCFD2B
:100F80001A4B00221A601A4B274A1A601748190098
:100F900003685A1C02600B685E1C0E601B78002BF5
:100FA000F6D10E4E21493068FFF7B6FD30680222B7
:100FB0000C49FFF7B1FD08E7781A00000040004136
:100FC000500100204801002044010020940100202D
:100FD00040010020B8000020A0010020980100205E
:100FE000D81A0000AC1A0000380100204C01002083
:100FF0003C010020A40100203401002000440041F5
:10100000BA000020C00000209C010020B700002092
:10101000B01A0000A81A0000B41A0000981A0000C4
:10102000B91A0000B81A0000C51A0000C41A00005E
:10103000694B1968694B1B6899420FD2684A694E1F
:1010400066484B08D361684B1380137DDB07FCD5E2
:1010500033689B00C91803689942F2D3634B186840
:1010600003226349FFF758FDAFE65B4B1E68002E75
:101070000AD1604B1A68604B1A605C4B18680322F7
:101080005E49FFF749FDA0E6B6085B4B1B689C462E
:10109000584B1B689B46524A536880218B435360D0
:1010A000002EEAD01000564B9A464E4B9946554BAF
:1010B00098460AE0002342460280027DD207FCD512
:1010C0009A0093449444F61AD7D053460380037D84
:1010D000DB07FCD54B461B68032BEBD9002E0FD04A
:1010E000002100235A4665466D58555001333D4A4C
:1010F000126892089342DED20431B342F2D1DAE7A9
:101100003300D8E700237B601AE608217918885459
:10111000013A09D3310019401B0908003030092970
:10112000F3DD37310800F0E7304E08223068FFF772
:10113000F3FC306803223449FFF7EEFC45E62B4B05
:10114000186801323149FFF7E7FC49E61A00413AD5
:10115000052A06D820490A681201373B13430B6061
:101160003EE61A00613A052A06D81B490A681201B0
:10117000573B13430B6033E62C2B05D0244A1370E6
:10118000154B00221A602BE6134B1A4A196811609E
:1011900000221A6024E600231E4A13601E4A1F49DB
:1011A00011601F4A1360114B1B681B6940211B48CB
:1011B00098470028EFD01B4A94230821D1501A4B9E
:1011C00064221A80134B1860134B144A1A60144B94
:1011D00000221A60104C10E6A001002044010020FB
:1011E000004000415001002002A5FFFF98010020AF
:1011F000D01A000094010020BC000020D41A000086
:1012000044A5FFFF04A5FFFFDC1A0000E01A000060
:1012100040010020380100203C0100205401002042
:101220004C01002000440041BA00002010B51E4BC4
:101230004A215A5C012422435A543522985C3B3996
:1012400088439854985C0221084398544B20195CB9
:1012500021431954995C3C3801409954995C2020F1
:1012600001439954114A136A04210B431362104B32
:10127000104A5A801A0053785BB2002BFBDBC42261
:1012800092030D490D48FFF78BFA00230C4A1370A7
:101290000C4A13700C4A13700C4A13700C4A1370EA
:1012A0000C4A137010BDC0460044004100040040C9
:1012B000000C00401440000055FD000000080042F2
:1012C000A801002032020020A9010020AC0100206A
:1012D000330200203002002010B5C1B20248FFF7EF
:1012E0008BFA012010BDC04600080042024B187E58
:1012F0004007C00F7047C0460008004210B5FFF716
:10130000F5FF0028FBD00248FFF77CFA10BDC0466D
:101310000008004270B504000E1E06D04518207863
:10132000FFF7DAFF0134A542F9D1300070BD10B5E6
:101330000400FFF7E3FF2070012010BD0B0A4340BB
:101340005B000902024A985A484080B27047C04682
:10135000001B0000F0B5DE4657464E464546E0B558
:1013600083B001908B464C4B00221A70002918D193
:101370004A4B01321A70484C0025FFF7BFFF237813
:10138000002B1CD1C0B2432803D071287CD0152873
:10139000F3D101239946424B98461C003F4B9A4695
:1013A00062E03F4B19803D4B00221A700B005B0638
:1013B000E1D00B0080337F3293439B46DBE7364B13
:1013C0001D70FFF79BFFC0B2334B1B78002BDAD0A8
:1013D000314B00221A70002057E02F4B00221A7068
:1013E000002052E00420FFF777FFFFF787FF2B4B29
:1013F00000221A70012048E03D78013B238001372C
:101400002800FFF769FF00992800FFF797FF009079
:10141000013E002E08D043461B88002BECD15246DB
:101420001578002DECD0E7E70500000AC0B2FFF701
:1014300053FFE8B2FFF750FFFFF760FF164B1B7832
:10144000002BCAD1FF23184006280AD14B4601338E
:10145000DBB2994680235B429C46E344019B803388
:1014600001935B46002BBDD00120FFF735FF4846B6
:10147000FFF732FF4B46D843C0B2FFF72DFF019F65
:10148000802600230093C6E7002003B03CBC9046B2
:101490009946A246AB46F0BD300200203102002042
:1014A000AA010020F0B5D646474680B583B00600B5
:1014B0000F1E2BD0002400230193194B9A46194B81
:1014C000984608E0731C35701E00802F18D0013438
:1014D000A4B2A7421ED0FFF711FFC5B253461B7836
:1014E000002B15D101992800FFF728FF01904346F2
:1014F0001B88002BE6D10C4B1B78002BE7D0E1E7D3
:10150000084A1288013A07490A80E0E7019101E0A0
:1015100001230193019803B00CBC90469A46F0BD9C
:1015200030020020AA01002031020020F0B585B071
:1015300005003E4B00221A70002904D13C4B0132B9
:101540001A7064260AE03B4B1980394B00221A704E
:10155000F7E7002C0ED1013E002E65D04320FFF7A7
:10156000BBFE354CFFF7C2FE0028F2D1002CF2D0B2
:10157000013CF7E701242D4E41E02C4B00221A706C
:1015800000204BE0022103A8FFF78CFF80212800F8
:10159000FFF788FF0190254B1B78002B08D0234BC9
:1015A0001B78002B36D0214B00221A70002035E02A
:1015B000FFF7A4FE0700FFF7A1FE1C4B1A78012AD3
:1015C000EDD03F02381880B2019B834203D103ABB8
:1015D0001B78A34203D01820FFF77EFEDFE7E3432A
:1015E00003AA5278DBB29A42F5D10620FFF774FEC7
:1015F0000E4B1B78002BD6D10134E4B28035FFF7B7
:101600007DFE3378002BB8D1FF2318400128B9D0D4
:10161000042805D0064B00221A70012005B0F0BD49
:101620000620FFF759FEF5E70020F7E7300200201B
:1016300031020020AA01002000350C0000224308DE
:101640008B4274D303098B425FD3030A8B4244D38A
:10165000030B8B4228D3030C8B420DD3FF220902CC
:1016600012BA030C8B4202D31212090265D0030B8B
:101670008B4219D300E0090AC30B8B4201D3CB0381
:10168000C01A5241830B8B4201D38B03C01A5241C3
:10169000430B8B4201D34B03C01A5241030B8B42C5
:1016A00001D30B03C01A5241C30A8B4201D3CB02B0
:1016B000C01A5241830A8B4201D38B02C01A524195
:1016C000430A8B4201D34B02C01A5241030A8B4298
:1016D00001D30B02C01A5241CDD2C3098B4201D3B0
:1016E000CB01C01A524183098B4201D38B01C01A2E
:1016F000524143098B4201D34B01C01A52410309A5
:101700008B4201D30B01C01A5241C3088B4201D353
:10171000CB00C01A524183088B4201D38B00C01A00
:10172000524143088B4201D34B00C01A5241411A27
:1017300000D20146524110467047FFE701B5002034
:1017400000F0F0F802BDC0460029F7D076E77047F8
:1017500003460B437FD4002243088B4274D3030912
:101760008B425FD3030A8B4244D3030B8B4228D3B3
:10177000030C8B420DD3FF22090212BA030C8B42D9
:1017800002D31212090265D0030B8B4219D300E079
:10179000090AC30B8B4201D3CB03C01A5241830BFE
:1017A0008B4201D38B03C01A5241430B8B4201D3AE
:1017B0004B03C01A5241030B8B4201D30B03C01AD7
:1017C0005241C30A8B4201D3CB02C01A5241830A51
:1017D0008B4201D38B02C01A5241430A8B4201D380
:1017E0004B02C01A5241030A8B4201D30B02C01AAA
:1017F0005241CDD2C3098B4201D3CB01C01A524111
:1018000083098B4201D38B01C01A524143098B4299
:1018100001D34B01C01A524103098B4201D30B0182
:10182000C01A5241C3088B4201D3CB00C01A5241A7
:1018300083088B4201D38B00C01A524143088B426C
:1018400001D34B00C01A5241411A00D20146524105
:10185000104670475DE0CA0F00D04942031000D324
:101860004042534000229C4603098B422DD3030A79
:101870008B4212D3FC22890112BA030A8B420CD389
:10188000890192118B4208D3890192118B4204D3B2
:1018900089013AD0921100E08909C3098B4201D332
:1018A000CB01C01A524183098B4201D38B01C01A6C
:1018B000524143098B4201D34B01C01A52410309E3
:1018C0008B4201D30B01C01A5241C3088B4201D392
:1018D000CB00C01A524183088B4201D38B00C01A3F
:1018E0005241D9D243088B4201D34B00C01A524116
:1018F000411A00D20146634652415B10104601D3A3
:101900004042002B00D54942704763465B1000D32C
:10191000404201B5002000F005F802BD0029F8D0D2
:1019200016E770477047C04610B5034B01001868B2
:1019300000F016F810BDC04604000020002310B5CA
:101940009A4200D110BDCC5CC4540133F8E70300C7
:101950001218934200D1704719700133F9E7000063
:10196000032370B5CD1C9D43083506000C2D1ED2F7
:101970000C25A9421DD8300000F062F8254A1468F1
:101980002100002919D1244C2368002B03D13000F9
:1019900000F044F820602900300000F03FF8431CBC
:1019A0002BD10C233000336000F04BF803E0002D06
:1019B000DFDA0C233360002070BD0B685B1B19D489
:1019C0000B2B03D90B60CC18256003E04B688C42CD
:1019D0000DD11360300000F034F8200007220B30E6
:1019E000231D9043C31AE7D05A42E250E4E76360F4
:1019F0000C00EFE70C004968C3E70323C41C9C43B9
:101A0000A042E1D0211A300000F008F8431CDBD1DD
:101A1000C7E7C046C4000020C8000020002370B5FE
:101A2000064C05000800236000F00CF8431C03D1AD
:101A30002368002B00D02B6070BDC046B40200208C
:101A400070477047044A1368002B00D1034B1818E5
:101A5000106018007047C046CC000020B80200207B
:101A6000F8B5C046F8BC08BC9E467047F8B5C046FD
:101A7000F8BC08BC9E46704708000000100000003B
:101A80002000000040000000800000000001000075
:101A900000020000000400005B41726475696E6F13
:101AA0003A58595A5D000000322E30000A0D0000ED
:101AB00076000000200000004A616E20323420329F
:101AC0003032300031343A34303A333200000000E2
:101AD000580A0D00590A0D005A000000230A0D0093
:101AE0003E000000D9120000FD120000ED120000BF
:101AF000151300002F130000551300002D150000D2
:101B000000002110422063308440A550C660E77079
:101B1000088129914AA16BB18CC1ADD1CEE1EFF121
:101B20003112100273325222B5529442F772D662C9
:101B3000399318837BB35AA3BDD39CC3FFF3DEE371
:101B40006224433420040114E664C774A444855419
:101B50006AA54BB528850995EEE5CFF5ACC58DD5C1
:101B60005336722611163006D776F6669556B44669
:101B70005BB77AA719973887DFF7FEE79DD7BCC711
:101B8000C448E5588668A7784008611802282338B9
:101B9000CCC9EDD98EE9AFF9488969990AA92BB961
:101BA000F55AD44AB77A966A711A500A333A122A09
:101BB000FDDBDCCBBFFB9EEB799B588B3BBB1AABB1
:101BC000A66C877CE44CC55C222C033C600C411C59
:101BD000AEED8FFDECCDCDDD2AAD0BBD688D499D01
:101BE000977EB66ED55EF44E133E322E511E700EA9
:101BF0009FFFBEEFDDDFFCCF1BBF3AAF599F788F51
:101C00008891A981CAB1EBA10CD12DC14EF16FE130
:101C10008010A100C230E320045025404670676068
:101C2000B9839893FBA3DAB33DC31CD37FE35EF380
:101C3000B1029012F322D2323542145277625672B8
:101C4000EAB5CBA5A89589856EF54FE52CD50DC5D0
:101C5000E234C324A0148104667447642454054408
:101C6000DBA7FAB79987B8975FE77EF71DC73CD720
:101C7000D326F2369106B016576676761546345658
:101C80004CD96DC90EF92FE9C899E9898AB9ABA970
:101C90004458654806782768C018E1088238A328A8
:101CA0007DCB5CDB3FEB1EFBF98BD89BBBAB9ABBC0
:101CB000754A545A376A167AF10AD01AB32A923AF8
:101CC0002EFD0FED6CDD4DCDAABD8BADE89DC98D10
:101CD000267C076C645C454CA23C832CE01CC10C48
:101CE0001FEF3EFF5DCF7CDF9BAFBABFD98FF89F60
:101CF000176E367E554E745E932EB23ED10EF01E98
:041D000000000000DF
:101D04000114000008000020000000000000000092
:101D140000000000000000000000000000000000BF
:101D240000000000000000000000000000000000AF
:101D3400000000000000000000000000000000009F
:101D4400000000000000000000000000000000008F
:101D5400000000000000000000000000000000007F
:101D640000000000000000006900000041000000C5
:040000030000093DB3
:00000001FF
