:10000000FC7F0020E50C0000D50C0000D90C00009E
:1000100000000000000000000000000000000000E0
:10002000000000000000000000000000DD0C0000E7
:100030000000000000000000E10C0000F90E0000CC
:1000400010B5064C2378002B07D1054B002B02D0AE
:10005000044800E000BF0123237010BDBC00002055
:10006000000000004C270000044B10B5002B03D00B
:100070000349044800E000BF10BDC0460000000076
:10008000C00000204C2700001B4B1B78002B0AD11E
:100090001A4B1B781A4A11785B18DBB21370194B94
:1000A00080229202DA61144A13780133DBB21370B2
:1000B000134B1B78DBB2F02B04D8114B1B78DBB24F
:1000C000092B0BD80D4A13785BB25B425BB21370FD
:1000D00013780B4A11785B18DBB21370064B1B7850
:1000E000074A1278DBB2934200D07047054B80225A
:1000F0009202DA61F9E7C046D80000200000002033
:100100000100002000440041F8B504000F00150074
:100110000B1C802900D980239EB2502000F086FA63
:10012000200A00F02BFBE0B200F028FB002F07D0E4
:100130002C00AD19207800F021FB0134AC42F9D13C
:10014000012000F07DFAF8BD70B5040016000D1C0A
:10015000802900D98025ADB2502000F067FA200A2E
:1001600000F00CFBE0B200F009FB012000F068FA9F
:10017000E9B20122502000F0B7F9002D07DD00247C
:10018000E0B200F007FB30550134AC42F8DB002050
:1001900070BD0000F8B504000F001E00042831D81F
:1001A00052B21C4B1A54002A04DB012393401A4A12
:1001B000936053617D007D19ADB26300174A9D5273
:1001C000280002F0A7F8A300154A985000281AD07A
:1001D0002A00002102F0B1F86300124A9F5232094E
:1001E00003231A4010490A55B2081A400F490A550C
:1001F00033400F4A13550F4B01221A550E4A1378FC
:1002000001331370F8BD6300002204495A520549B6
:100210005A52E4E76C0100200044004140010020F4
:10022000280100207C010020740100204C010020E6
:1002300064010020540100204A010020F0B5042888
:1002400000D965E08300334A9B58002B00D15FE062
:10025000314B1B5C002B00D15AE072B62F4B1B5662
:1002600001229A4081002B4BCB5840002C49465A22
:100270009E19591C187880232A4D2B4C80271AE090
:100280002260C046C046C046C046C046C046C046C2
:10029000C046C046C046C046C046C046C046C0462E
:1002A000C046C046C046C046C04624E0B1422ED239
:1002B000087801313B002A60C046C046C046C046AF
:1002C000C046C046C046C0460342D9D0C046C0461C
:1002D000C046C046C046C046C046C046C046C046EE
:1002E000C046C046C046C046C046C046C046C046DE
:1002F000C046C04622605B08D8D0C046C046C04653
:10030000C046C046C046C046C046C046D3E762B6F7
:10031000F0BDC04628010020540100206C010020DF
:1003200040010020184400411444004170B504AC61
:100330002478042821D8114D2D5C002D1DD04500B6
:100340000F4EAD5B8D4218D90E4D2D5C002D05D0A2
:100350006A43120A6B431B0A6C43240A86004D0051
:100360006D18094971584919084D2D5C4A55084ABC
:10037000125C8B54074B1B5CCC5470BD54010020A5
:100380007C0100205C010020280100207401002075
:100390004C01002064010020F8B5040004282FD887
:1003A00005001B4B1B5C002B2AD04E1CF6B2194BD0
:1003B0001B5CB34224D0820017481758013BDBB2C4
:1003C0000020002B07D0FF291BD030020138190074
:1003D00001F0B4FE80B26300104A9B5A002B0DD08E
:1003E000390000220D4F6D000B7843431B120B7038
:1003F000013292B20131EB5B9342F5D8054B1E55A9
:10040000F8BD1900064801F099FE80B2E3E7C04646
:10041000540100205C010020280100204001002040
:10042000FFFF000010B52A4B2A4A5A801A00537861
:100430005BB2002BFBDB284A136A20210B431362BB
:10044000264A13681F390B4313601368DB07FCD47B
:10045000D369DB07F9D4214C1423236041002048E1
:1004600001F0E2FD431EE068FF2213409043184371
:10047000E0602368FD3A134323602200D3699B07A1
:10048000FCD4164A538B30218B4310210B435383EA
:10049000D3695B07FCD4134B56215A5C01242243D9
:1004A0005A543B22985C473988439854985C0221FF
:1004B000084398545720195C21431954995C4838D3
:1004C00001409954995C20200143995410BDC046C5
:1004D000000C0040174000000004004000140042DF
:1004E000006CDC0200440041F0B5CE46474680B5C2
:1004F000002904D108000CBC90469946F0BD444B3D
:1005000000241C70400001231843C5B2414C4248EE
:10051000438B9B069B0F012B08D0438B9B069B0FA5
:10052000022B03D0013CA31CF2D114E03A4B586AD1
:10053000C00AC00228435862187E80070DD4002CE0
:1005400009DB187E013CC007F6D5334A5168C02349
:100550009B020B4353600021CCE72F4B5B8B5B0767
:1005600053D42B4B012018702B48037E9B07FCD5DE
:1005700029482823C05C294B1870012943D9012040
:10058000254D274B9946274B984680239B029C4636
:100590002827224E09E0441CE4B22B7E9B07FCD5A1
:1005A000EB5D335420008C4211D06B684C462340E5
:1005B0006B606B6844462340644623436B601A4B70
:1005C000EC696407E7D5013B002BF9D1E3E7104B59
:1005D00019702100104844688023DB0223434360E4
:1005E000002A00D186E702004068C0239B02034333
:1005F00053600D4B1000C269520700D47AE7013BEB
:10060000002BF8D176E70121E4E7002172E7C0462C
:10061000EC00002050C3000000140042DC00002069
:10062000FFFFFBFFFFFFFCFF52C30000024B1870EF
:10063000024B00221A707047ED00002000010020DC
:10064000F0B583B00190474B1B785B00DCB2464AA3
:100650004648438B9B069B0F012B08D0438B9B0680
:100660009B0F022B03D0013A931CF2D10BE03F48C1
:10067000436ADB0ADB0223434362037EDB0712D4B7
:10068000013A531CF9D5394A5168C0239B020B43E8
:100690005360374B1100CA6952072FD5013B002B1D
:1006A000F9D102202BE0314B5B8B5B07EBD4314B54
:1006B0001C78002C39D0304D00272C4A28210126E7
:1006C0002B7853542A4B107EC00722D4013B002BB9
:1006D00017D0508BC007F6D5002F17D1234A516889
:1006E000C0239B020B435360214B1100CA69520780
:1006F00034D5013B002BF9D1032000E0022003B0E8
:10070000F0BD002FEAD01B4B1C70E7E7194B1C70A3
:10071000E4E7538B5B071CD4013CE4B2013537009E
:10072000002CCDD1134B00221A700020019B002B0E
:10073000E5D00E4A5168C0239B020B4353600C4B1B
:100740001100CA6952070BD5013B002BF9D10020DB
:10075000D5E7002FC2D0074B1C70BFE70320CEE7C0
:100760000020CCE7ED00002050C300000014004240
:1007700052C3000000010020F0000020034A13785B
:10078000591C1170024AD05401207047000100200A
:10079000F0000020014B185C7047C046DC000020D0
:1007A00010B5C3699B07FCD403680224A34303600C
:1007B000C369DB07FCD40368012423430360036897
:1007C000DB07FCD4C369DB07FCD4C3699B07F9D4FE
:1007D000084B1A430260C3695B07FCD4C0239B0229
:1007E00043608181C3699B07FCD4036802221343E1
:1007F000036010BD04000040037EDB07FCD589B216
:1008000001857047037E5B07FCD5438BDB0705D46E
:10081000438B9B0702D4438B5B0702D5024B01221B
:100820001A70008DC0B2704701010020F8B50400B5
:1008300003689A8B120707D40822FF329B5CDB0601
:100840002FD500F09DFB2CE008229A8378329A7213
:10085000802149001120585440260621FF315E5462
:1008600082256D005A55104A5168104F3940C020FA
:1008700080050143516051693940084350610C497A
:1008800011600C49116151680B48084080218902B0
:10089000014351605168890B890351605E55002303
:1008A00023712079F8BDC04688020020FFFFFF8F2A
:1008B0008801002008020020FF3F00F001600023B3
:1008C00003714371034B83600B78022213430B7057
:1008D0007047C0462D08000010B5394AD369202161
:1008E0000B43D361374B38315A5C012422435A54AD
:1008F0003C22985C493988439854985C0621084307
:1009000098545920195C21431954995C4A38014084
:100910009954995C6020014399542B4B2B4A5A807F
:100920001A0053785BB2002BFBDB294A13780121B4
:100930000B4313709378DB07FCD4264B1B689B0397
:10094000DB0E1F2B36D022490A8D9B012248024024
:1009500013430B851F4B1B685B02DB0E1F2B2BD039
:100960001B490A8D1F20824313430B85194B1A68BC
:100970009201520F072A21D0154B198D12031748E7
:1009800001400A431A8519787F220A401A701A78A2
:1009900004210A431A70124858621A890C218A43AA
:1009A0001A811A890B398A431A818022002101F0A9
:1009B000C4FC10BD1A3BC6E7023BD1E7043ADBE7B3
:1009C0000004004000440041000C004006400000CC
:1009D00000500041246080003FF8FFFFFF8FFFFFC1
:1009E00088020020F0B5C64600B5050016001C00C0
:1009F00098465A01214B9B1810335B685B005B0FD4
:100A0000033301229A40B2422BD862011B4B9B1840
:100A100058698022120602435A616201174B9B18E3
:100A20001A0019615B69B104890C9B0B9B030B4392
:100A30005361536912490B405361083464012C1906
:100A40000223E3716279823B1343637140460830AD
:100A500040012818C3799B07FCD5300004BC9046A0
:100A6000F0BD27007B1E9F41BF01064BFF183200DF
:100A7000380001F059FC3900CFE7C0468802002059
:100A8000FF3F00F00802002070B505000E001400C2
:100A90001B4B1B78002B14D11A4B1B4A1A645A6C3F
:100AA000920B92035A645A6C18490A405A64A22263
:100AB0005200835C40210B438354114B443AFF3A6C
:100AC0001A704823FF33EB5C0020DB0716D50D4B73
:100AD0005B6C9B049B0CA34203D20A4B5C6CA4048A
:100AE000A40C22000849300001F01EFC4823FF330B
:100AF0000122EA54024B00221A70200070BDC04649
:100B00000201002088020020C8010020FF3F00F001
:100B1000002906D10622FF32835C10210B43835447
:100B200070470622FF32835C20210B438354F7E792
:100B30000A4A53699B0B9B0353610823FF3302222C
:100B4000C2540622FF32815C883BFF3B0B43835437
:100B50000822FF32835C9B07FCD570478802002087
:100B600080235B421943C9B28172704770B5A023DC
:100B70005B000322C254134B5A6C134C2240C02119
:100B800089050A435A6440254622FF3285540F4A9C
:100B90001A6490225200302686545A6B2240114328
:100BA00059638021922252008154094A1A63B0226B
:100BB000520085545A6F22405A67B2235B00C154D9
:100BC00070BDC04688020020FFFFFF8FC8010020D3
:100BD00048020020024A53785BB2002BFBDB7047CF
:100BE000000C004002491022CB681A42FCD070472A
:100BF0000008004070B52C4A53681E218B431C39F5
:100C00000B435360294B2A4A9A829A8A0A439A8252
:100C100019000222CB681A42FCD0264C0123A360A3
:100C2000FFF7D8FF244B6360FFF7D4FF8223DB017B
:100C30006380FFF7CFFF1D4CA38C80229343A384D6
:100C4000FFF7D0FF1D4BE362FFF7CCFFA38C1C4ADC
:100C50001343A384FFF7C6FFA38C02221343A3848C
:100C6000220080214020D3681942FCD0D36818426A
:100C7000F9D0FFF7B7FF0F4D0024AC60FFF7AAFFD4
:100C8000104B6B60FFF7A6FF0F4A104B53601048E4
:100C9000036A1B021B0AC02109060B43036294600E
:100CA0000723136070BDC0460040004100080040AB
:100CB0000C060000000C004001050100B805FF7D96
:100CC000040A00000007030010E000E0E703000052
:100CD00000ED00E00EBEFEE70DBEFEE705BEFEE73E
:100CE00002BEFEE710B5164A164B9A4215D0164AB8
:100CF000134B9A4211D01A00124B9A420DD2033371
:100D0000124A9B1A9B0801339B0000220C480E4993
:100D10008C58845004329A42FAD10D4A0D4B9A42B3
:100D20000AD009D2111D03335B1A032083435B18D9
:100D3000002102C29A42FCD100F00EF8FEE7C04644
:100D400000000020BC00002050270000040000200C
:100D5000BC0000209C040020F0B585B002AF584BC9
:100D60001B6801331CD0574B574A1360FF22043BCA
:100D7000134215D1554A3823D35CDB0706D5544BB3
:100D800000221A60534B01221A7009E0504B1A6876
:100D9000514B9A424AD100234D4A13604D4A137079
:100DA000FFF728FF62B64D4B082288215A501031B8
:100DB0005A504B48FFF736FB52231B2201210020DB
:100DC000FFF7E8F940210020FFF7E6FA002300933F
:100DD0002A2200210020FFF7A9FA0020FFF72EFAAF
:100DE000FC1D4E23FB71220001211F20FFF7ACF9EF
:100DF000FB79592B25D0374B1B78002B34D100F0D1
:100E0000FDFE00F07FF80400364A374B5360374848
:100E1000036A1B021B0AC02109060B43036200235D
:100E2000936007331360324E012531E0284B2A4A84
:100E30001A60304B013B002BFCD1254B00221A607D
:100E4000A0E7002400942F3B220021002000FFF7A0
:100E50006DFA2000FFF7F2F9FA1D4E2313700121FD
:100E60001F20FFF751F9CAE7154B1A6882F308886B
:100E7000FF2293431D4A9360134B1B681B6818475E
:100E8000BDE73378002B0BD1194B1B78002B0DD00D
:100E90002000A36898470028F3D0154B1D70F0E799
:100EA000002000F02BFB00F0C3FBFCE700F01AFF72
:100EB0000028EDD0012000F021FB00F0B9FBFCE799
:100EC000004000000440000008030020000400402F
:100ED000FC7F00200301002035817307004400419E
:100EE000801A060010E000E0E703000000ED00E0DB
:100EF0000401002048E8010010B5FFF7C5F800F034
:100F00006FFB10BD10B5054C054B2360FFF7E4FCEB
:100F100021682000FFF7D2FC200010BD0C03002048
:100F20000050004170B5C0B005000C00160008006C
:100F300001F07CFA400002306B46187003236A46C9
:100F400053702378002B17D07608012E16DD01226E
:100F5000694602310134881C0B8001322378002B52
:100F600002D00100B242F5DB52000023694628009E
:100F7000FFF738FD40B070BD0122F5E70122F3E72D
:100F8000F0B583B0050004680823FF331022E25453
:100F9000B84B1A78B84802705A78B84E32709978BF
:100FA000B74A11801188DF783F02394311801979DF
:100FB000B44A118011885F793F02394311809979D1
:100FC000B14A11801188DB791B020B431380822305
:100FD0005B004022E254337802781B021343AB4A91
:100FE000934200D11EE125DC80225200934255D06D
:100FF00012DD81225200934200D172E100DA6CE1ED
:10100000FF32FF32934200D107E1A14A93420CD153
:101010002000FFF78DFD3CE0812B00D1BFE0822B4B
:1010200000D1C4E0802B00D1B1E001212000FFF706
:101030006FFD2EE090221201934200D196E012DD66
:10104000944A934200D1B7E125DD934A934200D1FF
:10105000B6E1924A9342E8D1894B1B886B7120001C
:10106000FFF766FD15E0D022D20093421BD0882204
:101070001201934200D183E0A022D2009342D4D146
:101080002000FFF755FD7E4B198889B22868FFF7CD
:1010900067FD03B0F0BD824A9342C6D10121200012
:1010A000FFF736FDF5E7764B1B881B0A012B18D09E
:1010B000734B1B881B0A022B22D0714B1B881B0A07
:1010C000032B4ED16E4B1B88FF221340012B38D0CF
:1010D000002B24D0022B3CD001212000FFF718FD6B
:1010E000D7E72868684B1B889BB21222122B02D8C4
:1010F000654B1A8892B200236A49FFF773FCC8E770
:101100002868614B1B889BB24322432B02D85E4B5D
:101110001A8892B200236449FFF764FCB9E7634B75
:101120001B6801932868584B1B889BB20422042B30
:1011300002D8554B1A8892B2002301A9FFF752FC3E
:10114000A7E7514B1A88D2B228685949FFF7EAFE3F
:101150009FE74D4B1A88D2B228685649FFF7E2FE46
:1011600097E701212000FFF7D3FC92E7444B1B884F
:101170002B712000FFF7DCFC2000FFF7F7FC88E76D
:10118000291D286800230122FFF72CFC81E74A492A
:1011900000230B8028680222FFF724FC79E74649E8
:1011A00000230B8028680222FFF71CFC71E7424BEA
:1011B00000221A80334B1A8850210A403F490A7096
:1011C0001A880F210A401A801B889BB2032B1FD854
:1011D0003A4B1B78002B10D02A4B1B8808335B013D
:1011E000E418A3799B06DB0F334A13802868002399
:1011F00002223149FFF7F6FB4BE7224B1B880833ED
:101200005B01E418A379DB06DB0F2B4A1380EDE7C3
:1012100001212000FFF77CFC3BE701212000FFF7C4
:1012200077FC36E7174B1A8880210A4023490A7059
:101230001A880F210A401A80114B1B889BB2002B81
:1012400046D1104B1B889BB2002B41D00D4B1B8805
:101250009BB2032B3CD8194B1B78002B30D0094B89
:101260001B8808335B01E31820225A712000FFF726
:101270005FFC0EE788010020060100200501002028
:101280000E010020080100200A01002002030000D6
:101290000103000021200000A12100002122000004
:1012A000010B0000782400000400002074240000DA
:1012B0008C240000982400000C010020070100206D
:1012C000474B1B8808335B01E31810225A71CDE7A6
:1012D00001212000FFF71CFCDBE62000FFF728FCC3
:1012E000D7E63F4B1A8880210A403E490A701A8887
:1012F0000F210A401A803C4B1B889BB2002B56D111
:10130000374B1B889BB2002B51D0354B1B889BB2AF
:10131000032B4CD8334B1B78002B25D0304B1B882C
:1013200008335B01E3189B799B0619D52C4A138877
:1013300008335B01E31811311971138808335B011D
:10134000E318DB795B060BD5138808335B01E318E0
:101350002031D971138808335B01E31802221A7116
:101360002000FFF7E5FB94E61D4B1B8808335B016B
:10137000E3189B79DB06F3D5194A138808335B0120
:10138000E31810211971138808335B01E318DB7926
:101390009B06E5D5138808335B01E3181031D9713A
:1013A000138808335B01E31801221A71D8E7012181
:1013B0002000FFF7ADFB6CE62000FFF7B9FB68E605
:1013C00028680A4B1B889BB20822082B02D8074BBF
:1013D0001A8892B200230649FFF704FB59E6C0467B
:1013E00008010020070100200E0100200A01002052
:1013F0004800002000B583B00190054B1868012318
:10140000012201A9FFF7EEFA012003B000BDC0469A
:101410000C03002010B582B06B46DC1D044B18682D
:1014200001222100FFF730FB207802B010BDC0463A
:101430000C03002010B50748FFF7F8F9030000205F
:10144000002B06D0034B1A684823FF33D05CC0073B
:10145000C00F10BD0C03002070B505000C00044B3C
:10146000186801230A002900FFF7BCFA200070BDAC
:101470000C03002070B504000D000848FFF7D6F9F2
:101480000023002801D1180070BD044B18682A0001
:101490002100FFF7F9FA0300F5E7C0460C0300202E
:1014A000F8B505000E000B48FFF7C0F900280DD075
:1014B000002E0CD03400074F220029003868FFF7B7
:1014C000E3FA241A2D18002CF6D100E00026300093
:1014D000F8BDC0460C03002010B50C00C368110015
:1014E00020009847034B802212055A61024B642268
:1014F0001A8010BD0044004118010020012805D0C9
:10150000002802D1054B064A1A607047034B054A72
:101510001A60054B01221A70F7E7C0467C030020D1
:10152000302500001425000010010020F0B585B022
:10153000214B1B78002B37D0042908D002290FD06B
:1015400004784E001CD004AB98190B3804E00468F2
:101550004E0004AB98190B3800250F22302708E005
:101560000488F5E737330370240901380135B542A3
:1015700006D213002340092BF4D83B430370F3E752
:1015800001AB30221A7048325A704A1C52000A21AC
:1015900099549E190331F170023208490868190004
:1015A000FFF79AFF05B0F0BD044B1B680A0001006D
:1015B0001800FFF791FFF5E7110100207C030020E0
:1015C00080B500AF72B6EFF30883044A1360036876
:1015D00083F3088843681847BD4680BD8003002018
:1015E000104B1B889BB2002B0AD00E4A1388013B7C
:1015F0009BB21380002B03D10B4B802212059A6102
:101600000A4B1B889BB2002B0AD0084A1388013B67
:101610009BB21380002B03D1034A98330821D15089
:101620007047C0461801002000440041120100200C
:10163000F0B5DE4657464E464546E0B58DB000AFA4
:1016400008230822BA18D118CF4B0A0031CB31C277
:1016500031CB31C211CB11C2CC4883685B035B0F25
:101660009B005A58CA4B1A6083689BB2C9490B60E9
:101670005343C94A1360C94B00221A60C84B7A32DF
:101680001A7078E2C74B1B78002B4BD1C44B1B78E8
:10169000532B4ED0522B00D1BEE04F2B00D1CBE0CC
:1016A000482B00D1CEE0572B00D1D1E06F2B00D1D9
:1016B000D4E0682B00D1D7E0772B00D1DDE0472BB9
:1016C00000D1E3E0542B00D1F4E04E2B00D1FBE03D
:1016D000562B00D107E1582B00D191E1592B00D1B5
:1016E000ABE15A2B59D1B04B1E68AC4B1B68002E96
:1016F00000D1EFE11A009E1900237B6015001078DD
:10170000796800F011FB78606B1C1A00B342F5D1C8
:10171000A64B18680122A649FFF7DEFE7B68072268
:101720000F26DFE1A14B18680222A249FFF7D4FE81
:10173000ACE7A14B1A68A14B1B689A421ED9A0487E
:1017400001680131016001339C480360D31A964A55
:10175000126893424CD29B4A1360904B1868994E82
:10176000326800F0E1FD336894490A68D2180A60D3
:1017700093490A68D2180A60934A13708F4A136813
:10178000013B13608E4A1368013B13608E4B1B783C
:10179000854A11688B422ED3C046814B7A221A703B
:1017A000814B00221A607F4B1B78002B00D0AEE1EA
:1017B000824A13680133136081490A6801320A6062
:1017C0007D4A1268934200D3D5E123681B78FF2B32
:1017D000EED0232B00D155E71A00303A092A00D960
:1017E0009CE171490A681201303B13430B60DFE74B
:1017F000744B1A60B1E7C91A684B18686B4B1B68C9
:101800009B6998470028C7D0704A94230821D1507B
:101810006F4B64221A80BFE7634B19685F4B1868EF
:10182000624B1B685B699847684B802212055A61BE
:10183000684B64221A80B0E7584B1B685A4A1268FA
:101840001A70AAE7554B1B68574A12681A80A4E71A
:10185000524B1B68544A12681A609EE74F4B186837
:101860000121FFF763FE98E74F484C4B1B681B882C
:1018700003600221FFF75AFE8FE7484B1B681B6885
:10188000494803600421FFF751FE86E7464B18687C
:10189000FFF796FE504B1B6883F3088862B64F4BE8
:1018A0001B78002B00D178E7404B1B681B68062093
:1018B000984772E73B4B01221A703C4B1868013283
:1018C0003C49FFF709FE68E7364B1B78002B03D035
:1018D000344B00221A7060E7344B186802223549F5
:1018E000FFF7FAFDF4E7314E01223D493068FFF77A
:1018F000F3FD03223B493068FFF7EEFD01223A4930
:101900003068FFF7E9FD0D2238493068FFF7E4FD44
:10191000306801223449FFF7DFFD284B00221A60AE
:10192000274B334A1A602548190003685A1C026085
:101930000B685E1C0E601B78002BF6D11B4E2D49E8
:101940003068FFF7C9FD306801222749FFF7C4FD61
:101950001A4B00221A601A4B274A1A6017481900BE
:1019600003685A1C02600B685E1C0E601B78002B1B
:10197000F6D10E4E21493068FFF7AEFD30680222E5
:101980000C49FFF7A9FD08E7A8240000004000412A
:10199000340300202C0300202803002078030020BB
:1019A0002403002011010020840300207C03002078
:1019B00008250000DC2400001C0300203003002068
:1019C0002003002088030020180300200044004169
:1019D00012010020180100208003002010010020C7
:1019E000E0240000D8240000E4240000C824000003
:1019F000E9240000E8240000F5240000F42400009D
:101A0000694B1968694B1B6899420FD2684A694E45
:101A100066484B08D361684B1380137DDB07FCD508
:101A200033689B00C91803689942F2D3634B186866
:101A300003226349FFF750FDAFE65B4B1E68002EA3
:101A40000AD1604B1A68604B1A605C4B186803221D
:101A50005E49FFF741FDA0E6B6085B4B1B689C465C
:101A6000584B1B689B46524A536880218B435360F6
:101A7000002EEAD01000564B9A464E4B9946554BD5
:101A800098460AE0002342460280027DD207FCD538
:101A90009A0093449444F61AD7D053460380037DAA
:101AA000DB07FCD54B461B68032BEBD9002E0FD070
:101AB000002100235A4665466D58555001333D4A72
:101AC000126892089342DED20431B342F2D1DAE7CF
:101AD0003300D8E700237B601AE608217918885480
:101AE000013A09D3310019401B0908003030092997
:101AF000F3DD37310800F0E7304E08223068FFF799
:101B0000EBFC306803223449FFF7E6FC45E62B4B3B
:101B1000186801323149FFF7DFFC49E61A00413A03
:101B2000052A06D820490A681201373B13430B6087
:101B30003EE61A00613A052A06D81B490A681201D6
:101B4000573B13430B6033E62C2B05D0244A13700C
:101B5000154B00221A602BE6134B1A4A19681160C4
:101B600000221A6024E600231E4A13601E4A1F4901
:101B700011601F4A1360114B1B681B6940211B48F1
:101B800098470028EFD01B4A94230821D1501A4BC4
:101B900064221A80134B1860134B144A1A60144BBA
:101BA00000221A60104C10E6840300202803002055
:101BB000004000413403002002A5FFFF7C03002009
:101BC00000250000780300201401002004250000F7
:101BD00044A5FFFF04A5FFFF0C2500001025000011
:101BE000240300201C0300202003002038030020D1
:101BF00030030020004400411201002010B51E4BAC
:101C00004A215A5C012422435A543522985C3B39BC
:101C100088439854985C0221084398544B20195CDF
:101C200021431954995C3C3801409954995C202017
:101C300001439954114A136A04210B431362104B58
:101C4000104A5A801A0053785BB2002BFBDBC42287
:101C500092030D490D48FEF7A3FD00230C4A1370B3
:101C60000C4A13700C4A13700C4A13700C4A137010
:101C70000C4A137010BDC0460044004100040040EF
:101C8000000C0040144000002AF60000000800424A
:101C90008C030020160400208D03002090030020F8
:101CA000170400201404002010B5C1B20248FEF74A
:101CB000A3FD012010BDC04600080042024B187E63
:101CC0004007C00F7047C0460008004210B5FFF73C
:101CD000F5FF0028FBD00248FEF794FD10BDC0467A
:101CE0000008004210B5FFF7E9FF0023002801D1EA
:101CF000180010BDFFF7EAFF233843424341F7E7DE
:101D000070B504000E1E06D045182078FFF7CCFFF2
:101D10000134A542F9D1300070BD10B50400FFF7C1
:101D2000D5FF2070012010BD0B0A43405B00090263
:101D3000024A985A484080B27047C0464C2500007D
:101D4000F0B5DE4657464E464546E0B583B00190B5
:101D50008B464C4B00221A70002918D14A4B013295
:101D60001A70484C0025FFF7B1FF2378002B1CD1D7
:101D7000C0B2432803D071287CD01528F3D10123A9
:101D80009946424B98461C003F4B9A4662E03F4BB7
:101D900019803D4B00221A700B005B06E1D00B004E
:101DA00080337F3293439B46DBE7364B1D70FFF752
:101DB0008DFFC0B2334B1B78002BDAD0314B0022A1
:101DC0001A70002057E02F4B00221A70002052E0BA
:101DD0000420FFF769FFFFF779FF2B4B00221A70F1
:101DE000012048E03D78013B238001372800FFF7C0
:101DF0005BFF00992800FFF797FF0090013E002E3F
:101E000008D043461B88002BECD152461578002D94
:101E1000ECD0E7E70500000AC0B2FFF745FFE8B2E3
:101E2000FFF742FFFFF752FF164B1B78002BCAD17A
:101E3000FF23184006280AD14B460133DBB29946EE
:101E400080235B429C46E344019B803301935B46C5
:101E5000002BBDD00120FFF727FF4846FFF724FFE6
:101E60004B46D843C0B2FFF71FFF019F80260023D7
:101E70000093C6E7002003B03CBC90469946A246BA
:101E8000AB46F0BD14040020150400208E03002092
:101E9000F0B5D646474680B583B006000F1E2BD05E
:101EA000002400230193194B9A46194B984608E0E9
:101EB000731C35701E00802F18D00134A4B2A742C5
:101EC0001ED0FFF703FFC5B253461B78002B15D178
:101ED00001992800FFF728FF019043461B88002B3B
:101EE000E6D10C4B1B78002BE7D0E1E7084A1288BB
:101EF000013A07490A80E0E7019101E001230193DB
:101F0000019803B00CBC90469A46F0BD1404002022
:101F10008E03002015040020F0B585B005003E4B6F
:101F200000221A70002904D13C4B01321A70642639
:101F30000AE03B4B1980394B00221A70F7E7002C5E
:101F40000ED1013E002E65D04320FFF7ADFE354C8B
:101F5000FFF7B4FE0028F2D1002CF2D0013CF7E7E5
:101F600001242D4E41E02C4B00221A7000204BE042
:101F7000022103A8FFF78CFF80212800FFF788FFCC
:101F80000190254B1B78002B08D0234B1B78002B8E
:101F900036D0214B00221A70002035E0FFF796FE64
:101FA0000700FFF793FE1C4B1A78012AEDD03F0281
:101FB000381880B2019B834203D103AB1B78A34244
:101FC00003D01820FFF770FEDFE7E34303AA52783F
:101FD000DBB29A42F5D10620FFF766FE0E4B1B7866
:101FE000002BD6D10134E4B28035FFF76FFE337891
:101FF000002BB8D1FF2318400128B9D0042805D000
:10200000064B00221A70012005B0F0BD0620FFF734
:102010004BFEF5E70020F7E714040020150400202C
:102020008E03002000350C00002243088B4274D33D
:1020300003098B425FD3030A8B4244D3030B8B42C9
:1020400028D3030C8B420DD3FF22090212BA030CD2
:102050008B4202D31212090265D0030B8B4219D3B3
:1020600000E0090AC30B8B4201D3CB03C01A5241D3
:10207000830B8B4201D38B03C01A5241430B8B421B
:1020800001D34B03C01A5241030B8B4201D30B0304
:10209000C01A5241C30A8B4201D3CB02C01A52412B
:1020A000830A8B4201D38B02C01A5241430A8B42EE
:1020B00001D34B02C01A5241030A8B4201D30B02D7
:1020C000C01A5241CDD2C3098B4201D3CB01C01AF1
:1020D000524183098B4201D38B01C01A52414309FB
:1020E0008B4201D34B01C01A524103098B4201D3E9
:1020F0000B01C01A5241C3088B4201D3CB00C01A56
:10210000524183088B4201D38B00C01A52414308CD
:102110008B4201D34B00C01A5241411A00D20146F2
:10212000524110467047FFE701B5002000F0F0F87B
:1021300002BDC0460029F7D076E7704703460B433F
:102140007FD4002243088B4274D303098B425FD3B0
:10215000030A8B4244D3030B8B4228D3030C8B42DC
:102160000DD3FF22090212BA030C8B4202D31212C2
:10217000090265D0030B8B4219D300E0090AC30B97
:102180008B4201D3CB03C01A5241830B8B4201D344
:102190008B03C01A5241430B8B4201D34B03C01A2D
:1021A0005241030B8B4201D30B03C01A5241C30AA5
:1021B0008B4201D3CB02C01A5241830A8B4201D316
:1021C0008B02C01A5241430A8B4201D34B02C01A00
:1021D0005241030A8B4201D30B02C01A5241CDD2A5
:1021E000C3098B4201D3CB01C01A524183098B42F0
:1021F00001D38B01C01A524143098B4201D34B01D9
:10220000C01A524103098B4201D30B01C01A52413B
:10221000C3088B4201D3CB00C01A524183088B42C2
:1022200001D38B00C01A524143088B4201D34B00AB
:10223000C01A5241411A00D201465241104670471D
:102240005DE0CA0F00D04942031000D34042534022
:1022500000229C4603098B422DD3030A8B4212D3E2
:10226000FC22890112BA030A8B420CD38901921114
:102270008B4208D3890192118B4204D389013AD051
:10228000921100E08909C3098B4201D3CB01C01A26
:10229000524183098B4201D38B01C01A5241430939
:1022A0008B4201D34B01C01A524103098B4201D327
:1022B0000B01C01A5241C3088B4201D3CB00C01A94
:1022C000524183088B4201D38B00C01A5241D9D2AC
:1022D00043088B4201D34B00C01A5241411A00D22D
:1022E0000146634652415B10104601D34042002B29
:1022F00000D54942704763465B1000D3404201B5A8
:10230000002000F005F802BD0029F8D016E770475C
:102310007047C04610B5034B0100186800F016F86E
:1023200010BDC04650000020002310B59A4200D1D5
:1023300010BDCC5CC4540133F8E70300121893427B
:1023400000D1704719700133F9E70000032370B51D
:10235000CD1C9D43083506000C2D1ED20C25A9422C
:102360001DD8300000F069F8254A146821000029C2
:1023700019D1244C2368002B03D1300000F044F81D
:1023800020602900300000F03FF8431C2BD10C23C3
:102390003000336000F052F803E0002DDFDA0C2348
:1023A0003360002070BD0B685B1B19D40B2B03D965
:1023B0000B60CC18256003E04B688C420DD1136094
:1023C000300000F03BF8200007220B30231D904323
:1023D000C31AE7D05A42E250E4E763600C00EFE72B
:1023E0000C004968C3E70323C41C9C43A042E1D00E
:1023F000211A300000F008F8431CDBD1C7E7C046C3
:102400001C01002020010020002370B5064C0500AF
:102410000800236000F014F8431C03D12368002B4C
:1024200000D02B6070BDC046980400200023C25C21
:102430000133002AFBD1581E7047704770470000D7
:10244000044A1368002B00D1034B181810601800C1
:102450007047C046240100209C040020F8B5C04607
:10246000F8BC08BC9E467047F8B5C046F8BC08BC2E
:102470009E46704704030904120100020200004056
:102480004123103000020102000100004172647516
:10249000696E6F204C4C43005961656C74657820FF
:1024A0004B696C6F6D75780008000000100000002B
:1024B000200000004000000080000000000100003B
:1024C00000020000000400005B41726475696E6FD9
:1024D0003A58595A5D000000322E30000A0D0000B3
:1024E0007600000020000000446563203136203271
:1024F0003031390031363A35303A32370000000099
:10250000580A0D00590A0D005A000000230A0D0058
:102510003E000000A91C0000CD1C0000BD1C0000F6
:10252000011D00001B1D0000411D0000191F0000BF
:10253000F5130000151400003514000059140000B4
:102540007514000059140000A114000000002110AF
:10255000422063308440A550C660E770088129910D
:102560004AA16BB18CC1ADD1CEE1EFF131121002B5
:1025700073325222B5529442F772D662399318835D
:102580007BB35AA3BDD39CC3FFF3DEE36224433481
:1025900020040114E664C774A44485546AA54BB5AD
:1025A00028850995EEE5CFF5ACC58DD55336722655
:1025B00011163006D776F6669556B4465BB77AA7FD
:1025C00019973887DFF7FEE79DD7BCC7C448E558A1
:1025D0008668A7784008611802282338CCC9EDD94D
:1025E0008EE9AFF9488969990AA92BB9F55AD44AF5
:1025F000B77A966A711A500A333A122AFDDBDCCB9D
:10260000BFFB9EEB799B588B3BBB1AABA66C877CC0
:10261000E44CC55C222C033C600C411CAEED8FFDEC
:10262000ECCDCDDD2AAD0BBD688D499D977EB66E94
:10263000D55EF44E133E322E511E700E9FFFBEEF3C
:10264000DDDFFCCF1BBF3AAF599F788F8891A981FE
:10265000CAB1EBA10CD12DC14EF16FE18010A100E8
:10266000C230E3200450254046706760B9839893D8
:10267000FBA3DAB33DC31CD37FE35EF3B102901238
:10268000F322D2323542145277625672EAB5CBA5A4
:10269000A89589856EF54FE52CD50DC5E234C32488
:1026A000A01481046674476424540544DBA7FAB778
:1026B0009987B8975FE77EF71DC73CD7D326F236D8
:1026C0009106B01657667676154634564CD96DC9C4
:1026D0000EF92FE9C899E9898AB9ABA94458654828
:1026E00006782768C018E1088238A3287DCB5CDB18
:1026F0003FEB1EFBF98BD89BBBAB9ABB754A545A78
:10270000376A167AF10AD01AB32A923A2EFD0FEDE3
:102710006CDD4DCDAABD8BADE89DC98D267C076CC7
:10272000645C454CA23C832CE01CC10C1FEF3EFFB7
:102730005DCF7CDF9BAFBABFD98FF89F176E367E17
:10274000554E745E932EB23ED10EF01E0000000076
:102750000114000009024300020100803209040054
:1027600000010202000005240010010424020005FB
:10277000240600010524010001070583030800FF6A
:1027800009040100020A0000000705810240000060
:10279000070502024000000000C20100000008001E
:1027A00054000020000000000000000000000000B5
:1027B0000000000000000000000000000000000019
:1027C0000000000000000000000000000000000009
:1027D00000000000000000000000000000000000F9
:1027E00000000000000000000000000000000000E9
:1027F00000000000000000000000000000000000D9
:0C28000000000000690000004100000022
:0400000300000CE508
:00000001FF
