:100000004005002065160000611600006116000022
:1000100000000000000000000000000000000000E0
:100020000000000000000000000000006116000059
:10003000000000000000000061160000011900002F
:1000400061160000611600006116000061160000D4
:1000500061160000611600006116000061160000C4
:100060006116000099080000A9080000B908000006
:10007000611600001D0E00002D0E0000611600002C
:1000800061160000611600006116000010B5064CF4
:100090002378002B07D1054B002B02D0044800E049
:1000A00000BF0123237010BD740000200000000079
:1000B0001C1F0000084B10B5002B03D0074908484F
:1000C00000E000BF07480368002B00D110BD064BBD
:1000D000002BFBD09847F9E70000000078000020D3
:1000E0001C1F00001C1F00000000000070B582B043
:1000F0000600080015004BB2224A1370002B17DBD4
:1001000001A901234B7000228A700B701E4B984787
:100110001C4B1A78D1090023002904D15309DB01B3
:100120001A498C4663441F21114001228A405A61BA
:1001300074003419A4B2164B1C802000154B98474C
:10014000154B1860002816D022000021134B984749
:10015000134B1E802B090322134012490B70AB086E
:10016000134011490B702A40104B1A700122104B9A
:100170001A7002B070BD0023054A1380084A13802C
:10018000E8E7C046DE000020E50E00000044004124
:10019000D8000020A11D0000D0000020B51D0000E7
:1001A000E0000020DF000020DA000020DD00002059
:1001B000DB000020F0B5304B1B68002B00D159E06C
:1001C00072B62E4B1B785BB201229A402A4B1B68F9
:1001D0002B490E889E19591C18788023294D2A4CCA
:1001E00080271AE02260C046C046C046C046C046CE
:1001F000C046C046C046C046C046C046C046C046CF
:10020000C046C046C046C046C046C046C04624E0C0
:10021000B1422ED2087801313B002A60C046C04668
:10022000C046C046C046C046C046C0460342D9D0BC
:10023000C046C046C046C046C046C046C046C0468E
:10024000C046C046C046C046C046C046C046C0467E
:10025000C046C046C046C04622605B08D8D0C046F3
:10026000C046C046C046C046C046C046C046C0465E
:10027000D3E762B6F0BDC046D0000020DE0000200B
:10028000D8000020184400411444004130B50E4C01
:100290002488844217D90D4C2478002C05D0614362
:1002A000090A6243120A63431B0A45002D180848D5
:1002B00000684019074C24780155074909784254D1
:1002C000064A1278835430BDE0000020DC00002094
:1002D000D0000020DF000020DA000020DD00002038
:1002E00030B5134B1B88834216D90C0C0A0A114BEC
:1002F0001B78002B11D1E4B2D2B2CBB24100091865
:100300000D48006840180D49097844540C49097893
:1003100042540C4A1278835430BDFF252C405C4374
:10032000240A2A405A43120A29404B431B0AE5E794
:10033000E0000020DC000020D0000020DF000020D2
:10034000DA000020DD00002070B5451CEDB2154B31
:1003500019788D421FD0144B1C680139C9B2002690
:10036000002906D0FF2817D0280201380F4B9847E4
:1003700086B20F4B1B88002B0BD000220C48237831
:1003800073431B122370013292B2013403889342EB
:10039000F5D8044B1D7070BD0648044B984786B2D3
:1003A000E7E7C046DC000020D00000202D1B000045
:1003B000D8000020FFFF0000F0B583B0009001914D
:1003C000094B1B88002B0DDD0024D5B2074F064ECC
:1003D0006B461A791978A0B22B00B84701343388DC
:1003E000A342F5DC03B0F0BDE00000208D02000068
:1003F00054280DD9A92816D95630C3B25800181858
:10040000C2B2120298001B1A013BD8B2104309E095
:100410008200821A013AD2B212024300C018C0B25E
:100420000004104370475538C2B29000101A0138CA
:10043000C3B21B0450001018C0B21843F2E700000A
:1004400010B5002803D10120024B984710BD024B84
:100450009847FBE72505000051050000F0B5DE4692
:1004600057464E46C0B582B0019000239A46184BBD
:100470009B46184B9946184F18E02800C8470100C2
:100480002000B8470134A4B20135EDB23388A3424D
:10049000F3D8124B98470198114B984753460133B4
:1004A0009BB29A4680235B009A450AD05B461B8824
:1004B000002BEED053466A46D370D5780024044E04
:1004C000DBE702B01CBC91469A46A346F0BDC0468D
:1004D000E0000020F1030000E1020000B50100008F
:1004E0004104000070B50020084B98470500084CF7
:1004F000FA218900A047074B186007492800A04748
:10050000064B18600522064B1A6070BDF1130000FF
:10051000191A00000000002040420F0004000020D3
:1005200010E000E030B5084B1C68084A0025802127
:100530004902013807D3002CFBD054609560136842
:100540000B42FCD0F5E730BD0400002010E000E0D5
:1005500030B5084B1C68084A002580214902013843
:1005600007D3002CFBD05460956013680B42FCD07D
:10057000F5E730BD0000002010E000E0F0B5DE46F9
:1005800057464E464546E0B587B080460491160072
:100590001F000022002300218B463F240120210060
:1005A000009601975C4603944446059413E020248A
:1005B000641A0500E540A84614E0009C019D121B4A
:1005C000AB415C464D462C43A346039C45462C4319
:1005D0000394013925D3202464420C19E7D4050083
:1005E000A540A84604008C40A14692185B41140027
:1005F0001D00059E4F463E40B446049E47463E4081
:10060000B246664657463E4303D0060026433200B4
:100610002B00009C019D9D42DBD8CED19442D8D8BE
:10062000CBE7039B5846190007B03CBC904699465F
:10063000A246AB46F0BD10B54908402300248142D4
:1006400002D2180010BD1C00091A631C9BB288421C
:10065000F9D94023FF2CF4D814800023F1E70000DF
:10066000F0B583B00F00160008AA117804004C43BF
:100670004022BC4202D9100003B0F0BD002B14D1BF
:10068000020008000021194CA04701003A00002395
:100690000020174CA04700220123121A8B41120C94
:1006A0001B041A4332800022E5E70022012BF9D116
:1006B0000A00002300210D4CA04702000B0000920D
:1006C0000193380000210A4CA047050080239B01BC
:1006D00040229842CFD8790FF800009A019BA0479A
:1006E000EA00821AD2B252032A43DBE7051D00005A
:1006F0007D05000010B582B004000E4B1B78002B66
:1007000007D0002905D10B4B5B78834210D01D2008
:100710000CE001A90C700D20074B98470D20074BEA
:100720009847044B5C7001221A70002002B010BD83
:100730000020FBE790000020091500007D14000058
:10074000204B984217D0204B984224D01F4B984200
:1007500001D000207047012907D000292BD00229A1
:1007600005D0032905D00020F4E71948F2E719481D
:10077000F0E71948EEE7012907D000291DD002292A
:1007800005D0032905D00020E4E71448E2E7144827
:10079000E0E71448DEE7012907D000290FD002293D
:1007A00005D0032905D00020D4E70F48D2E70F4831
:1007B000D0E70F48CEE70F48CCE70F48CAE70F480D
:1007C000C8E7C046000C004200100042000800428A
:1007D00003000500030006000300070002001700E5
:1007E00003001E0003001F00030017000300100099
:1007F00003001900030004000200160003001600A5
:1008000030B585B001AA0B4B32CB32C20300019A3E
:1008100082420CD0029A824207D00020039A9A4268
:1008200001D005B030BD023002E0012000E0002020
:10083000C0B2F6E7A81E00007047000030B50A4BB2
:100840001B78002B0CD1094C094D2560094B002267
:100850001A6065605A60A5609A600132024B1A7096
:100860008000024BC15030BD920000209400002057
:1008700039080000E400002010B582B001AC092363
:100880002370013363700133A370024B98472056E5
:1008900002B010BD0108000010B5024B1B6800201B
:1008A000984710BD9400002010B5024B5B680120F2
:1008B000984710BD9400002010B5024B9B680220A1
:1008C000984710BD94000020F0B5DE4657464E46CE
:1008D0004546E0B591B005000C00160029600800FF
:1008E000BC4B9847020023680520DB0706D511B0F2
:1008F0003CBC90469946A246AB46F0BD23681730F3
:100900009B07F4D4B449086A971C0123BB400343F6
:100910000B620FA92D27F35D0B700E32D3B2029339
:100920001800AE4B98470298AD4B9847F05D0021F8
:10093000AC4B9847F37A6B712423F35CAB7125239E
:10094000F35CEB71F37E2B72337F6B722B689846EE
:100950001800A04B98470E3000220E2306A98C46A3
:1009600063441A80328A02928023DB019A4200D1CA
:100970009EE00FD9C023DB01029A9A4200D192E097
:1009800080231B029A4200D01FE103230693002319
:10099000079308E080239B019A4200D015E11023C1
:1009A00006930F3B079333680593F36803937369CA
:1009B0000493337E9B462623F35C9A4673689946DC
:1009C000002B00D1A0E080235B05994500D184E095
:1009D000737E002B02D0B37E424693732A68029F37
:1009E000D369002BFCD10E3306AA944663441B88BE
:1009F00042469381059B039A1343049A13434A4644
:100A000013431F435B461B021F4353465B071F43B1
:100A10002723F35C002B01D104331F43737E9B0219
:100A2000327F52021343727F120213432422B25CBC
:100A3000520413432522B25C12041343B17AF27AB2
:100A4000114319433389FF2B00D181E080225204E6
:100A5000174319432C23F35C002B03D1624B9B7883
:100A60009B0701D580231F432A68D369002BFCD143
:100A7000434659602A68D369002BFCD143461F6066
:100A80000EAB80221A7000225A70DA709A70336BA3
:100A90000A93736B0B93B36B0C93F36B02930D93ED
:100AA00000270AAE63E008230693073B07937AE723
:100AB00033680593F368039373690493337E9B460D
:100AC0002623F35C9A4673689946002B18D080233E
:100AD0005B05994501D0002025E02723F35C002B1E
:100AE00000D075E7336A1F00C0B2404B9847010041
:100AF0000E2206AB9C46624438003D4B984712E0FC
:100B000008230693002307932723F35C002B0ED0C2
:100B1000069B0093079B0E2206A98C466244B16A8D
:100B2000306A344FB847002800D0E0E650E7336A17
:100B30001F00C0B22D4B98470100069B0093079BF6
:100B40000E2206A88446624438002A4FB847EAE7D6
:100B5000F37E002B00D17DE78023DB041F4379E780
:100B60002000254B984707E00137042F0DD0F9B23C
:100B7000BB0098590028F3D0431CF5D00EA908708B
:100B8000000CC0B21D4B9847EEE70023EB602B61D1
:100B90006B61AB61EB612B62AB626B620022EB8538
:100BA000AB853033EA540133EA540133EA5401335C
:100BB000EA542868074B984704001149114B98479D
:100BC000A400114BE550002091E61023069300236A
:100BD0000793E8E601080000000400400915000042
:100BE0007D140000F50600000020004125150000DE
:100BF00037060000610600004107000001160000F2
:100C0000250C00003D080000E4000020931C9B0020
:100C1000C31859603021012393401A00435C1343E9
:100C200043547047F8B58000624BC5582C68E3699F
:100C3000002BFCD1237EA67D1E403023EB5C3122AD
:100C4000AF5C1F40F30722D5EB8D9BB2002B1CD06D
:100C5000AA6A1378DBB2511CA962697901290ED006
:100C60009BB2DB05DB0D2385EB8D013B9BB2EB8556
:100C7000002B0CD1013323750133A37507E05178A4
:100C800009020B430232AA62EBE701232375B30783
:100C900006D50223237500223133EA54FB071AD408
:100CA000730765D5AB8D9BB2002B5FD0638BDBB236
:100CB0001A0714D43F221340002B34D09A0711D5C1
:100CC0001A223223EA54303B63837B0750D5280035
:100CD0006B6998474CE02800EB689847E0E73722BB
:100CE0001340E9E75A0705D51E223223EA542E3B6A
:100CF0006383EAE7DA0705D513223223EA54313B4E
:100D00006383E2E7DA0605D542223223EA54223B26
:100D10006383DAE720221A42D7D021323223EA5401
:100D2000123B6383D1E7238DDB05DB0DDAB2696A01
:100D30000A706A6A511C69626979012910D0AB8D09
:100D4000013B9BB2AB85002B12D1043323750022EB
:100D50002E33EA54BB070BD528002B69984707E0D0
:100D60001B0A53706B6A01336B62E8E70423237537
:100D7000F30604D5102323752376FB060ED4B306A1
:100D800004D52023237523763B070BD4330704D5E2
:100D9000082323752376BB0608D4F8BD2800EB6929
:100DA0009847ECE72800AB699847EFE72B6A2800E3
:100DB0009847F2E7E400002070B58000164BC45855
:100DC00023689D7B227E637E13401D40EB0706D483
:100DD000AB070BD4EB0610D4AB0615D470BD2000C6
:100DE000A3689847012322689373F1E72000E36822
:100DF0009847022322689373ECE720002369984701
:100E0000102322689373E7E72000636998472368FB
:100E100020229A73E2E7C046F000002010B50020BF
:100E2000014B984710BDC046B90D000010B5012018
:100E3000014B984710BDC046B90D00000C4B1B6814
:100E4000002B06D1EFF31083002B07D00022094BB3
:100E50001A70074A136801331360704772B6BFF304
:100E60005F8F0022044B1A700132024B1A70F0E7B8
:100E7000A0000020A400002008000020084B1A68F1
:100E8000013A1A601B68002B09D1064B1B78002B16
:100E900005D00122044B1A70BFF35F8F62B6704712
:100EA000A0000020A400002008000020F0B583B0BE
:100EB00001AC012565700027A77025702100102066
:100EC000064EB04780225202054B9A61277065702A
:100ED00021000E20B04703B0F0BDC046E50E000073
:100EE0000044004100B583B001AB80221A700A783B
:100EF0005A704A789A708A78DA701900014B9847CC
:100F000003B000BD0116000010B5082803D880000A
:100F10001C4B1B589F46002032E01B4B18692FE0EA
:100F20001A4B1B6A9B059B0F1948D84028E0164BAB
:100F3000586925E0144B1B6800209B0720D51349F6
:100F40001022CB681A42FCD00F4B1A68242313409E
:100F5000042B01D00F4813E000200F4B98470A4B99
:100F60009B681B041B0C58430AE05023074AD35CC0
:100F700000205B0704D5044BD86801E08020000204
:100F800010BDC046B41E0000A800002000080040AC
:100F900000127A00006CDC022515000070B50C49C7
:100FA0000B6A047885784078012210408001402641
:100FB000B34303432A40D2018020834313430322D7
:100FC000224012020348034013430B6270BDC04627
:100FD00000080040FFFCFFFFF0B5CE46474680B555
:100FE000194B99469B6941788C4605780679C778F4
:100FF0004479807801210840800004229343034310
:1010000060460840C0000432934303433800084060
:1010100080014027BB43034330000840C0018026C5
:10102000B3430343072005402D02084803402B43E8
:1010300021400903064803400B434A4693610CBC18
:1010400090469946F0BDC04600080040FFF8FFFFFB
:10105000FFEFFFFF10B5037A9B061B0C4289920538
:10106000920D134318494B608379C2791343428828
:101070008488224313434278D20113430B600378E0
:10108000042B11D0202B0ED1037B9B06028A134325
:10109000C28912040D490A4013430B4A9360116838
:1010A0000B4B0B43136010BD037B9B06028A13435B
:1010B000C289120405490A401343034A9360136826
:1010C00004210B431360EEE7A80000200000FF039B
:1010D00024040000082803D88000254B1B589F4695
:1010E000172044E0234A136A02210B4313620020B5
:1010F0003DE0204A936902210B439361002036E0D2
:101100001C4A138A02210B43138200202FE0194A44
:10111000938A02210B439382002028E016490B6832
:10112000022213430B60134B9A8419000E32CB68D2
:101130001A42FCD0104A91680E4BD96252689A62EA
:1011400000229A8419001032CB681A42FCD00A4B54
:101150001B689BB2074A9384002008E0054944229B
:101160008B5C022003438B54002000E0002070477A
:10117000D81E000000080040A8000020F0B58DB087
:10118000C222D200444B9A6044494B681E229343CA
:101190001C3A13434B6001AB1A700024404DE0B27F
:1011A00001A9A8470134182CF9D13E4C2368DB046F
:1011B00039498A695B0E1B043B48024013438B612B
:1011C0000AA80123437083700025C570037106339C
:1011D00003704571354B98470420354B984705AB54
:1011E00000225D809D809A71DA713F2159813B39DF
:1011F00019705A7023689B0E3F2B4BD005A80372C1
:10120000B723DB000382072303733833C381294BE1
:10121000984704A800254570012686700570264B66
:1012200098470620224FB847244B984701AC0296B6
:101230006570257265720423237021000120204B04
:10124000984701201F4B9847267021000020144B1F
:10125000984700201C4B98470720B8470E49D022DA
:10126000CB681340D02BFBD1184A00231372537262
:101270009372D37201A901224A604B700B724B72B8
:1012800007330B7000200E4B984700200D4B9847FA
:101290000DB0F0BD203BB1E7000800400040004128
:1012A0000915000024608000FFFF80FFD90F0000B7
:1012B000D5100000551000009D0F0000D112000055
:1012C000F5120000AD1300007D1400000004004082
:1012D000064A936908210B4393610122044B1A705B
:1012E00019000B781342FCD17047C046000400403F
:1012F000000C004070B5060004000D782D02054377
:101300004B78002B02D08023DB021D434B7A002B4D
:1013100002D080231B031D434868012810D9431EB7
:10132000184234D1022830D90223002201325B0056
:101330009842FBD812023243140080235B031D4302
:101340000B7A002B02D080239B031D43134A537852
:101350005BB2002BFBDB124B9847124B1E700F4AFF
:1013600053785BB2002BFBDB0C4B9C601A0053786C
:101370005BB2002BFBDB094A5368802149020B401A
:101380001D435560084B984770BD0022D2E7040208
:10139000344380239B021D43D2E7C046000C00402B
:1013A0003D0E0000080C00407D0E000010B504004A
:1013B0000B4A53785BB2002BFBDB0A4B98470A4B76
:1013C0001C70074A53785BB2002BFBDB044A516860
:1013D00080235B020B435360044B984710BDC0460B
:1013E000000C00403D0E0000040C00407D0E00008B
:1013F00070B504001A4A53785BB2002BFBDB194B23
:101400009847194B1C70164A53785BB2002BFBDBD4
:10141000134E7068C004C00E144B98470500124B61
:101420001C707668F602F60F114B1C700C4A53784C
:101430005BB2002BFBDB0A4B9C682402240C0D4B97
:101440009847002E07D1012C07D9210028000A4B0C
:101450009847050001E00134E540280070BDC04612
:10146000000C00403D0E0000040C0040090F00007D
:10147000080C00407D0E0000191A000010B5040091
:10148000064B9847064B1C70064A53888021C901B9
:101490000B435380044B984710BDC0463D0E0000DF
:1014A000020C0040000C00407D0E000010B504004E
:1014B0000F4B98470F4B1C700F4A53881B05180F92
:1014C00053880E490B40538053880D490B4053807D
:1014D00011008022D2014B881342FCD106494A8870
:1014E00003020648024013434B80064B984710BD49
:1014F0003D0E0000020C0040000C0040FFF0FFFF1A
:10150000FFBFFFFF7D0E000010B50C7824020443DE
:10151000024B9847A4B2024B5C8010BDAD14000092
:10152000000C004010B50400064B9847064B1C7099
:10153000064B5C882405240F054B98472000054B7B
:10154000984710BD3D0E0000020C0040000C00400A
:101550007D0E0000F113000030B5D378002B35D19B
:101560001378802B29D01B068024640223435478EF
:101570000225AC4306D19478002C20D18024A4020B
:10158000234341605478013C012C1CD90D042D0CDF
:10159000A024E4052C431C4384620D0CD0242406B3
:1015A0002C431C438462D478002C22D15B031CD5CD
:1015B0009378012B1ED0416117E00023D7E7C024A8
:1015C000E4022343DDE70D4C2340DFE741600C04D8
:1015D000240CA023DB05234383620C0CD0231B06C1
:1015E00023438362D378002B03D15378013B012B33
:1015F00002D930BD8161F8E78160FAE7FFFFFBFFA8
:1016000010B50A00C1090023002904D14309DB01F8
:1016100005498C4663441F24204001218140180065
:10162000024B984710BDC0460044004159150000C8
:101630007047000010B5054B9847054B9847054B80
:101640009847054B9847054B984710BD7D11000002
:10165000AD0E0000311600003116000031160000FA
:10166000FEE70000F8B52A4A2A4B9A4211D01A0028
:10167000294B9A420DD2294A03339B1A9B08013306
:101680009B000022234822498C58845004329A42FD
:10169000FAD1234A234B9A420AD2D34321495B18F9
:1016A00003218B4304339B18002102C29342FCD1D7
:1016B0001D4AFF211D4B8B439360FD3990235B0036
:1016C0001B4AD1501B4AD3780325AB430224234342
:1016D000D370D3780C27BB4308263343D370164B03
:1016E000987B30229043202210439873997BB94312
:1016F000314399739A7BAA4322439A730F4A5368E2
:1017000080210B4353600E4B98470E4B9847FEE7E2
:101710001C1F0000000000207400002004000020B6
:10172000740000203C01002000ED00E000000000FB
:10173000007000410050004100480041004000415D
:10174000591D0000351900000300064A1268002ADE
:1017500004D0044A1068C318136070470249014A54
:101760001160F6E7C0000020400500207047002906
:101770000BD003000139C9B20131411800201A7899
:10178000504001338B42FAD170470020FCE7000043
:1017900010B5174B1B7817490A78D2B21648C254B5
:1017A0000A78D2B2FF2A03D00133114A137010BD58
:1017B0000278D2B2591C9142F6DB104A1278002A04
:1017C000F2D000220A4B1A70040007210C4B9847F4
:1017D000E179227A0B4B181A0B0280B2134398421C
:1017E000E5D10122084B1A700022044B1A70DEE783
:1017F000C6000020370100202C0100200900002035
:101800006F170000E3070000C700002030B591B05B
:101810008023DB05009300230193FF2269460A81A0
:1018200000228B72CB72012124206C46215401309E
:10183000215425316354013163540A9305316354B3
:101840000131635405932382E37622762277627610
:101850001323A3766277154B0893C4239B0303934A
:1018600001235B420C930D93114B0E93114B0F937D
:10187000114D124C6A4612492800A0470028F9D1A0
:101880000D4D2C6820000F4B98471F2318401E3B1E
:1018900083400D4A13602A68D369002BFCD123686A
:1018A00002221343236011B030BDC04690D0030024
:1018B00003000A0003000B00F8000020C908000024
:1018C000001000427908000000E100E070B5084C0B
:1018D000002208492000084DA8470122074920009E
:1018E000A8473122A35C03210B43A35470BDC0461B
:1018F000F80000206D1700000D0C0000911700008B
:10190000094A1368013B1360002B0BD1FA225200E5
:10191000054B1A6080225202044BDA61044A1378A4
:10192000013B13707047C0460C000020004400418A
:10193000C500002010B582B0244B9847244B98472F
:1019400001A901234B7000228A700B701020214BDB
:10195000984780225202204B9A61204B9847204B97
:10196000984752220F2180201E4B984700201E4B83
:101970009847FA2189001D4B984701381C4B984223
:101980000DD81C4A50601C48036A1B021B0AC02168
:1019900009060B430362002393600733136001229F
:1019A000164B1A700332164B1A702820154B9847A5
:1019B000002200210020144B9847144B9847C82060
:1019C000134B9847134C0A20A047FCE7351600003C
:1019D000E5040000E50E0000004400410D18000081
:1019E000CD180000ED000000F1130000191A0000EE
:1019F000FFFFFF0010E000E000ED00E0C400002069
:101A0000C500002049030000B9030000B501000033
:101A1000410400005D040000002243088B4274D39F
:101A200003098B425FD3030A8B4244D3030B8B42DF
:101A300028D3030C8B420DD3FF22090212BA030CE8
:101A40008B4202D31212090265D0030B8B4219D3C9
:101A500000E0090AC30B8B4201D3CB03C01A5241E9
:101A6000830B8B4201D38B03C01A5241430B8B4231
:101A700001D34B03C01A5241030B8B4201D30B031A
:101A8000C01A5241C30A8B4201D3CB02C01A524141
:101A9000830A8B4201D38B02C01A5241430A8B4204
:101AA00001D34B02C01A5241030A8B4201D30B02ED
:101AB000C01A5241CDD2C3098B4201D3CB01C01A07
:101AC000524183098B4201D38B01C01A5241430911
:101AD0008B4201D34B01C01A524103098B4201D3FF
:101AE0000B01C01A5241C3088B4201D3CB00C01A6C
:101AF000524183088B4201D38B00C01A52414308E4
:101B00008B4201D34B00C01A5241411A00D2014608
:101B1000524110467047FFE701B5002000F0F0F891
:101B200002BDC0460029F7D076E7704703460B4355
:101B30007FD4002243088B4274D303098B425FD3C6
:101B4000030A8B4244D3030B8B4228D3030C8B42F2
:101B50000DD3FF22090212BA030C8B4202D31212D8
:101B6000090265D0030B8B4219D300E0090AC30BAD
:101B70008B4201D3CB03C01A5241830B8B4201D35A
:101B80008B03C01A5241430B8B4201D34B03C01A43
:101B90005241030B8B4201D30B03C01A5241C30ABB
:101BA0008B4201D3CB02C01A5241830A8B4201D32C
:101BB0008B02C01A5241430A8B4201D34B02C01A16
:101BC0005241030A8B4201D30B02C01A5241CDD2BB
:101BD000C3098B4201D3CB01C01A524183098B4206
:101BE00001D38B01C01A524143098B4201D34B01EF
:101BF000C01A524103098B4201D30B01C01A524152
:101C0000C3088B4201D3CB00C01A524183088B42D8
:101C100001D38B00C01A524143088B4201D34B00C1
:101C2000C01A5241411A00D2014652411046704733
:101C30005DE0CA0F00D04942031000D34042534038
:101C400000229C4603098B422DD3030A8B4212D3F8
:101C5000FC22890112BA030A8B420CD3890192112A
:101C60008B4208D3890192118B4204D389013AD067
:101C7000921100E08909C3098B4201D3CB01C01A3C
:101C8000524183098B4201D38B01C01A524143094F
:101C90008B4201D34B01C01A524103098B4201D33D
:101CA0000B01C01A5241C3088B4201D3CB00C01AAA
:101CB000524183088B4201D38B00C01A5241D9D2C2
:101CC00043088B4201D34B00C01A5241411A00D243
:101CD0000146634652415B10104601D34042002B3F
:101CE00000D54942704763465B1000D3404201B5BE
:101CF000002000F005F802BD0029F8D016E7704773
:101D00007047C046F0B5CE46474615042D0C2E0050
:101D100080B50704140C3F0C9946030C7E435D43C9
:101D2000674363437F19340CE4199C46A54203D9E9
:101D300080235B029846C4444B46514343433604D8
:101D4000360C250C24046544A4195918491920009F
:101D50000CBC90469946F0BD70B500260C4D0D4C5C
:101D6000641BA410A64209D1002600F0C7F80A4D52
:101D70000A4C641BA410A64205D170BDB300EB58F9
:101D800098470136EEE7B300EB5898470136F2E783
:101D9000081F0000081F0000081F00000C1F0000A3
:101DA00010B5034B0100186800F00CF810BDC046D8
:101DB0001000002003008218934200D17047197070
:101DC0000133F9E7032370B5CD1C9D4308350600A8
:101DD0000C2D1ED20C25A9421DD8300000F062F84F
:101DE000254A14682100002919D1244C2368002BAE
:101DF00003D1300000F044F820602900300000F0EA
:101E00003FF8431C2CD10C233000336000F04BF81A
:101E100003E0002DDFDA0C233360002070BD0B6877
:101E20005B1B1AD40B2B03D90B60CC18256003E085
:101E30008C420ED163681360300000F034F820004B
:101E400007220B30231D9043C31AE7D05A42E250B9
:101E5000E4E74B6863600C00EEE70C004968C2E7FA
:101E60000323C41C9C43A042E0D0211A300000F0A0
:101E700007F8431CDAD1C6E7C8000020CC000020D8
:101E8000002370B5064C050008002360FFF75CFCDA
:101E9000431C03D12368002B00D02B6070BDC046CB
:101EA000380100207047704700080042000C0042D3
:101EB000001000421A0F0000160F0000160F00005D
:101EC0007C0F00007C0F00002E0F0000200F000090
:101ED000340F00006A0F000000110000E010000045
:101EE000E01000006C110000F21000000E11000064
:101EF000E41000001C1100005C110000F8B5C046A1
:101F0000F8BC08BC9E467047B5000000F8B5C04656
:0C1F1000F8BC08BC9E4670478D00000025
:101F1C00401F00000800000001010000F401000057
:101F2C001400002000000000000000000000000071
:101F3C000000000000000000000000000000000095
:101F4C000000000000000000000000000000000085
:101F5C000000000000000000000000000000000075
:101F6C000000000000000000000000000000000065
:101F7C000000000000000000000000000000000055
:041F8C000000000051
:04000003000016657E
:00000001FF
